:020000040800F2
:1000000000120020D91B00085D140008C51B000861
:10001000C51B0008C51B0008C51B00080000000028
:10002000000000000000000000000000DD1C0008CF
:10003000C51B000800000000751C000849330008BB
:10004000A91E0008A91E0008A91E0008A91E000874
:10005000A91E0008A91E0008A91E0008A91E000864
:10006000A91E0008A91E0008A91E0008A91E000854
:10007000A91E0008A91E0008A91E0008A91E000844
:10008000A91E0008A91E0008A91E0008A91E000834
:10009000A91E0008A91E0008A91E0008A91E000824
:1000A000A91E0008A91E0008A91E0008A91E000814
:1000B000A91E0008A91E0008A91E0008A91E000804
:1000C000A91E0008A91E0008A91E0008A91E0008F4
:1000D000A91E0008A91E0008A91E0008A91E0008E4
:1000E000A91E0008A91E0008A91E0008A91E0008D4
:1000F000A91E0008A91E0008A91E0008A91E0008C4
:10010000A91E0008A91E0008A91E0008A91E0008B3
:10011000A91E0008A91E0008A91E0008A91E0008A3
:10012000A91E0008A91E0008A91E0008A91E000893
:10013000A91E0008A91E0008A91E0008A91E000883
:10014000A91E0008A91E0008A91E0008A91E000873
:10015000A91E0008A91E0008A91E0008A91E000863
:10016000A91E0008A91E0008A91E0008A91E000853
:10017000A91E0008A91E0008A91E0008A91E000843
:10018000A91E0008A91E0008A91E0008A91E000833
:08019000A91E0008A91E0008C9
:1001980053B94AB9002908BF00281CBF4FF0FF31E6
:1001A8004FF0FF3000F00CB8ADF1080C6DE904CE4B
:1001B80000F008F8DDF804E0DDE9022304B0704738
:1001C800704700BF2DE9F04786468C460846089ED2
:1001D800154674461946002B40F0C2808542B2FA93
:1001E80082F245D94AB1C2F1200300FA02FC2EFA84
:1001F80003F3954043EA0C0C94404FEA154EA8B21D
:10020800BCFBFEF8230C0EFB18CC08FB00F943EAF4
:100218000C43994528D9EB1808F1FF3704D29945C2
:1002280002D9A8F102072B44A3EB0903A4B2B3FB3C
:10023800FEFC0EFB1C330CFB00F044EA0344A04216
:1002480014D92C190CF1FF3304D2A04202D9ACF115
:1002580002032C44241A43EA07401EB1D440002369
:1002680034607360BDE8F0874746DDE76346F1E731
:1002780092BB431B01214FEA154EAFB2B3FBFEFC04
:10028800200C0EFB1C330CFB07F840EA034398458F
:1002980062D9EB180CF1FF3004D2984502D9ACF1C1
:1002A80002002B44A3EB0803A4B2B3FBFEFC0EFB35
:1002B8001C330CFB07F744EA0344A7424ED92C1918
:1002C8000CF1FF3304D2A74202D9ACF102032C444B
:1002D800E41B43EA0040C0E7C2F1200320FA03F11F
:1002E800954090402EFA03F303434FEA154EAFB200
:1002F800B1FBFEFC0EFB1C10190C0CFB07F841EAC5
:100308000041884504FA02F422D969180CF1FF303B
:1003180004D2884502D9ACF102002944A1EB0801B6
:100328009BB2B1FBFEFC0EFB1C110CFB07F743EA6A
:1003380001439F420ED9EB180CF1FF3104D29F42C2
:1003480002D9ACF102012B44DB1B41EA004192E7E0
:100358006046E3E76146F7E76046A3E76346B7E729
:10036800834206D916B9002108467BE7C6E900E0B2
:10037800F9E7B3FA83F78FB9834201D3724508D8F6
:10038800BEEB020460EB030301209C461EB900216A
:1003980068E73846FAE7C6E9004CF8E7C7F1200CE9
:1003A800BB4022FA0CF41C432EFA0CF120FA0CF391
:1003B800B84001434FEA14490EFA07F5B3FBF9F8C0
:1003C8001FFA84FE09FB18300B0C08FB0EFA43EAEF
:1003D80000439A4502FA07F240D9E31808F1FF30C2
:1003E80004D29A4502D9A8F102002344A3EB0A03D8
:1003F80089B2B3FBF9F809FB183308FB0EFE41EA92
:1004080003418E452CD9611808F1FF3304D28E457B
:1004180002D9A8F10203214443EA0040A0FB029854
:10042800A1EB0E014145CE46434602D306D14D45C8
:1004380004D2B9EB020E68EB04030138002EA6D0F3
:10044800B5EB0E0261EB030101FA0CFC22FA07F38B
:100458004CEA0303F940C6E9003198E74046C5E78E
:100468004346D9E7034613F8012B002AFBD1181A93
:1004780001387047000000002DE9F04F85B00646AE
:100488000F461546984683685B6802AA9847002875
:100498002FDB029CDDF80C90A5FB04AB05FB09BB28
:1004A80019A3D3E9002350465946FFF771FE0546C4
:1004B8004FF0FF335345164B73EB0B031CD3A8FBCC
:1004C80004A408FB094410A3D3E90023504621469D
:1004D800FFF75EFE03464FF0FF3252450C4AA24139
:1004E8000DD3BDF8382000922A463946304605F02B
:1004F800D5F905B0BDE8F08F6FF08500F9E76FF02A
:100508008500F6E7AFF3008000CA9A3B00000000C0
:10051800FFC99A3BF0B587B006460D467B4B53F8AA
:100528002130002B53D004930395794B029300207C
:100538000190009003460322764904F0A4FBB368B7
:100548001B68294630469847002842DB724B0293C5
:10055800002001900090034603226E4904F093FBAB
:1005680042F21070002103F099FFB3685B682946D6
:1005780030469847002838DB664F684B02930024C2
:1005880001940094234603223946204604F07BFB5D
:1005980042F21070002103F081FF614B0293019435
:1005A8000094234603223946204604F06CFB642C51
:1005B80035D8E2B22946304604F05CFB002820DB3F
:1005C8006420002103F06AFF0134A4B2EFE7554B21
:1005D800A9E70390544B0293002001900090034632
:1005E80001224C4904F04FFB17E003904E4B029355
:1005F80000200190009003460122464904F043FB85
:100608000BE004940390494B029300200190009062
:10061800034601223F4904F036FB07B0F0BD42F221
:100628001070002103F03AFF64231A462946304629
:1006380004F017FB002838DB3D4B029300200190A3
:10064800009003460322334904F01DFB4CF250305E
:10065800002103F023FF4FF47A731A4629463046E7
:1006680004F0FFFA00282CDB324B029300200190A3
:10067800009003460322274904F005FB4CF2503052
:10068800002103F00BFFB3685B68294630469847A2
:1006980000282EDB284B029300200190009003468F
:1006A80003221C4904F0EFFAB7E703901E4B0293AC
:1006B80000200190009003460122164904F0E3FA55
:1006C800ABE7144F0390184B029300240194009455
:1006D800234601223946204604F0D5FA174B0293E7
:1006E80001940094234603223946204604F0CBFAAD
:1006F800C4E703900C4B029300200190009003463E
:100708000122044904F0BFFA87E700BF0000002077
:10071800A868000818680008C4680008D0680008BD
:10072800E06800089C680008BC68000804690008C4
:100738001C6900087C690008A06900084469000871
:1007480010B584B00F4805F0C5FB48B10024002C53
:10075800FCD121460B48FFF7DDFE0134E4B2F6E791
:10076800084B1B680393084B0293002401940094E0
:10077800234601220549204604F085FA204604B0A4
:1007880010BD00BF24650008B86900081868000893
:100798002DE9F04F91B005920293134602F004023E
:1007A8000092C3F3C20210F00303019340F02D82BC
:1007B80080468A460132041D00284FD0B8F1000F48
:1007C80005D0A4EB08030433534500F22182029BB1
:1007D8005D1E019B04930693039300264FF0FF3B95
:1007E8000427B946B8F1000F01D0029B2360531EBD
:1007F8000793002A40F35F81059B13F0020228D07B
:100808000120A4EB08018B081AB1B1F5007F80F034
:10081800058203990F2900F20482B8F1000F00F055
:100828006281DBB201F140026A4402F8103C02F82E
:1008380020BC002800F0538163F07F0301F14002DF
:100848006A4402F8103C049B01330493039B013370
:10085800039304340022CC4640463DE001F0070AE9
:100868005444CAF1080AA9E7002634E0002632E019
:10087800002630E00827BC462DE025292BD10BF1B6
:10088800010B01260427BC4625E04729EED82A2972
:1008980014D32A39C9B24FF0010E0EFA01F14FF6FE
:1008A800DA7E11EA0E0F16D111F0625F40F0C180B6
:1008B80011F0010F40F08C8000260CE0252903D1AF
:1008C8000BF1FF3B002606E001D9002603E02029B2
:1008D80001D02329CCD11D466B1C6978002900F072
:1008E8001B81002EC9D07A29BED84C29CDD34C39CA
:1008F8002E2961D80FF2040E5EF821F0DF080008F7
:10090800C1090008C1090008C1090008C109000897
:10091800C1090008C1090008C1090008C109000887
:10092800C1090008C1090008C1090008D109000867
:10093800C1090008C1090008C1090008C109000867
:10094800C1090008C1090008C1090008C109000857
:100958003B0A0008C1090008D1090008D1090008AC
:100968003B0A00083B0A00083B0A0008DF080008A9
:10097800D10900087D080008C1090008DF0800083F
:10098800C1090008970A0008D1090008970A000859
:10099800C1090008C10900089F0A0008CB0900081E
:1009A800D1090008C1090008C1090008D1090008D7
:1009B800C1090008C509000800268CE70427BC46C1
:1009C80089E70427BC4686E729786C2925D00026C4
:1009D8003C44013CB4FBF7F407FB04F4254620B182
:1009E800211A6144514500F21681002A58D1BCF100
:1009F800040F00F08980BCF1080F40F015811A99A6
:100A0800073121F0070101F108051A95D1E900899C
:100A180008B1C4E9008908345DE713F8021C6C29A1
:100A280003D000260427BC46D2E700260827BC4688
:100A3800CEE729784C291AD01A99073121F00701F5
:100A480001F108061A96D1E90067073424F0070473
:100A580040B1211A0831514513D829784C2913D0AF
:100A6800C4E90067083400260827BC4633E71A990A
:100A7800073121F0070101F108061A96D1E900674C
:100A8800E3E76FF01B00BDE0C4E90067EAE7002672
:100A98000427BC469CE7324600260427BC4697E755
:100AA8002C46E14680461A9A111D1A911268029244
:100AB800079A1D4696E6624B029A9A4204D3614B06
:100AC8009A420AD3002300E00023002B7FF494AE5F
:100AD800059B03F00202002093E60123F5E7069B3D
:100AE80001330693B2E610B10AF1010AAEE6009BA3
:100AF80013B10AF1020AA9E60298FFF7B3FC00EB6A
:100B08000A0303F1020AA1E61A990D1D1A9509684C
:100B180000B121600434DEE68046231AB3F5806F05
:100B280080F0858090B1002202609B080370009BD2
:100B380083B1069BC370049B88F802301BBB019DE0
:100B4800DDF80C90DDF810B0029F3DE05344A3F1AE
:100B5800080057E0069B4370EDE701339842EED951
:100B680003F140026A4412F8101C12F9102C002AF2
:100B7800F3DA01F07F01A4EB08020132524559D89B
:100B880004F8011BE9E7019B0398E7E7009B43B3DF
:100B980005F140036B4413F8203C04F8013B019E27
:100BA800A4EB080333440133534546D805F1400309
:100BB8006B4413F8103C04F8013B32463946204692
:100BC80005F09EFB34440135A94519D9BBF1000F46
:100BD800DCD005F140036B4413F9103C002BD5DA47
:100BE800F1E705F140036B4413F8103C58F8237003
:100BF800002248F823203846FFF734FC461CCFE78C
:100C0800A4EB080011B0BDE8F08F6FF00D00F9E714
:100C18006FF01B00F6E76FF01B00F3E76FF01500AD
:100C2800F0E76FF01500EDE76FF01500EAE76FF0F9
:100C38001500E7E76FF01B00E4E76FF01B00E1E742
:100C480048630008EC770008014B1860704700BF44
:100C58000400002080B505460E461746984603F066
:100C680055FC034605F062FB0446DFF8189049F886
:100C78000030424639463046A84754F8090000F08B
:100C8800C1FF00BF08000000064B1A6842F400725A
:100C98001A601A6842F480621A60034B034A1A60A9
:100CA80000207047003C0240800000200024F4002F
:100CB800034A536823F0020353600020704700BFC3
:100CC800002004E038B505460B4C00E010340B4B0F
:100CD8009C420FD263685B79002BF7D029462046E7
:100CE80004F0A3F80028F1D023681B6829462046A1
:100CF8009847EBE738BD00BF406800085068000817
:100D080008B505F086FA0022431819D213440D4A93
:100D1800A2FB03CE2EF0030C0CEB9E0CA3EB0C03F2
:100D2800C01A61F100014FF0CC3300FB03F302FB62
:100D38000133A0FB02021344400840EAC37008BD17
:100D48000122E3E7CDCCCCCC2DE9F041074605469E
:100D58000AE007EA0807144B03EB06135B68042252
:100D68001968204600F00CF9D5B195FAA5F6B6FA3F
:100D780086F60D4C04EB06140123B3406FEA030812
:100D880025EA0305237B002BEED03301064AD3580E
:100D98001B69002BDDD0204698470028E4D1D8E70E
:100DA8003846BDE8F08100BF406800082DE9F041F1
:100DB80080460F46204BBFF35B8F53E8005F6A1CE9
:100DC80043E800210029F8D1BFF35B8F002D2FD114
:100DD8001A4C002607E0636804221968204600F0D0
:100DE800CFF801361034164B9C4213D2237B002BCC
:100DF800F8D02368DB680BB12046984723681B6945
:100E0800002BE8D0204698470028E4D00123B340BF
:100E18001D43E6E7B8F1000F0BD055B12846FFF7A0
:100E280093FF0546002FF8D00A2004F005F8F4E7F0
:100E380000252846BDE8F0818402002040680008AB
:100E480050680008014B53F820007047F869000803
:100E580048B108B5054A1060054B1960084600F00E
:100E680081FA002008BD6FF01500704708000020C7
:100E78007802002008B50023054A1370054A13605C
:100E8800054A13604FF47A710448FFF7E1FF08BD83
:100E98001D0400207C02002080020020090D0008AB
:100EA8000D4B1B7803B1704710B500210120FFF7E7
:100EB8007DFF0A4C00E01034094B9C4208D263685D
:100EC8005B79002BF7D023689B6820469847F2E7A8
:100ED800014B01221A7010BD1D0400204068000853
:100EE80050680008014B01221A7070471C0400204A
:100EF8000D4BBFF35B8F53E8001F013143E800122D
:100F0800002AF8D1BFF35B8F00B97047074BBFF3D6
:100F18005B8F53E8001F013943E80012002AF8D11B
:100F2800BFF35B8FF1E700BF7C0200208002002046
:100F380010B50446044B1B689847A0602146034837
:100F480003F075FF10BD00BF08000020AC000020B2
:100F58000248034BC01AC008704700BF4068000829
:100F6800E867000810B50C46FFF7F2FFA04203D966
:100F7800024B53F8340010BD0020FCE7E867000876
:100F880008B5094BC31A1B110133D0F804C08CF8FB
:100F9800043043689A7143681960436801225A71A2
:100FA800FFF7A0FF08BD00BF406800080EB400B5F9
:100FB80082B0014603AB53F8042B0193034801F0B8
:100FC8008DF902B05DF804EB03B07047534F000889
:100FD80030B585B011F0440F05D01A4B1C6834B9F0
:100FE800002005B030BD1849FFF7E0FFF9E7174BBF
:100FF8001968B2FBF1F1B1FBF4FC154AA2FB0C3203
:10100800D20A4FF4616E0EFB12CE124BA3FB0E53A5
:101018005B0904FB1C114FF47A7C0CFB01F1B1FB5A
:10102800F4F504FB15110CFB01F1B1FBF4F102918D
:101038000195C3EB0311AEEB810100910649FFF75F
:10104800B5FFCEE78C020020186A0008880200204D
:10105800C5B3A29189888888246A000861B108B557
:101068002AB1064A52F8232012B9054A00E0044A78
:101078000449FFF79BFF08BD704700BFA06A00083E
:10108800406A0008486A00082DE9F04105461746FD
:10109800069EDDF81C8081B900242EB13246114924
:1010A8002846FFF783FF0444B8F1000F14D06FB14E
:1010B800099B042B13D00C4909E00C4B099A53F8EF
:1010C80022200B49FFF772FF0446E6E7064942462D
:1010D8002846FFF76BFF04442046BDE8F081054928
:1010E800F5E700BF606A0008506A0008B46A0008A3
:1010F800586A00084C6A00082DE9F04F87B0054689
:101108000C46049205939DF84C7001F0020B01F017
:10111800010AC1F3C00801F4807903F0B3FE18B3E3
:10112800024616492846FFF741FF0646BBF1000F65
:101138001CD13A465146284603F032FFB9F1000F58
:1011480001D0002311930397129B0293119B0193E3
:10115800109B00930023049A41462846FFF794FF0A
:10116800304407B0BDE8F08F0026DFE7059A214636
:101178002846FFF72DFF0644DBE700BF646A000836
:1011880011F0100F0BD108B511F0200F03D004494E
:10119800FFF70CFF08BD0349FFF708FFFAE77047A0
:1011A80018690008686A00082DE9F04105460F46ED
:1011B800164698460699FFF7E3FF0024444505DAEA
:1011C80024492846FFF7F2FE0134F7E7002409E036
:1011D80020492846FFF7EAFE0BE01F492846FFF79B
:1011E800E5FE01340F2C0CDC002C02DD14F0070F97
:1011F800EED0B442F1D23A5D18492846FFF7D6FE40
:10120800EFE717492846FFF7D1FE002409E0114906
:101218002846FFF7CBFE0BE012492846FFF7C6FE2B
:1012280001340F2C13DC002C02DD14F0070FEED074
:10123800B44207D23A5D0C4B9B5C13F0970FEBD18D
:101248002E22E9E703492846FFF7B0FEE8E7BDE8A4
:10125800F08100BF5C6A0008746A00086C6A0008C4
:10126800786A00087C6A0008DD7600082DE9F041FC
:1012780084B004469DF82C500C9F0E9E95B9012B06
:101288001ED019484FF0000827B13B46224617499F
:1012980003F084FDC6B905BB204603F0B4FE04B0D4
:1012A800BDE8F08103950A980290019300920B46DD
:1012B80000220F992046FFF71FFF80460C48E3E7FE
:1012C8000B484FF00008DFE70F9B00934346324678
:1012D8000D99204603F07CFEDDE72A460F9920464B
:1012E80003F06AFED8E700BF714F0008E522000846
:1012F800534F00082DE9F04387B006460C46904648
:10130800D1F808900F88C7F382170878C0F3C20095
:101318004B6833B11249591A41F3CF0100291ADA3F
:101328000023214651F8105BC5F34A256288C2F3B1
:101338000B12481905B90021CDF8148004920390C6
:10134800029101970022009249463046FFF78EFF2E
:1013580007B0BDE8F083FFF705FE0346E1E700BFED
:10136800E8670008074B01221A6004E04008054AB4
:1013780013685B001360044B9842F7D8034B18605E
:10138800704700BF8802002040420F008C020020F6
:1013980070B506460D46002405E0315D04488368B3
:1013A8005B6898470134AC42F7D3284670BD00BF4C
:1013B800D4640008014B0360002070471C6B0008D0
:1013C80070B586B005460368426881681C4E059171
:1013D800049203931B4B0293002401940094234628
:1013E80001223146204603F03FFEEB682A6969690D
:1013F800059104920393144B02930194009423469D
:1014080001223146204603F02FFEEB6903930F4B70
:10141800029301940094234601223146204603F0AA
:1014280023FEAB6903930A4B02930194009423466D
:1014380001223146204603F017FE06B070BD00BFFA
:10144800286800081C6B00084C6B00087C6B0008BF
:101458008C6B000808B5034B1B68984700F048F8E8
:1014680008BD00BF1400002030BFFFF7FDBF00BF5C
:1014780038B50446084D2A46084904F041FF084893
:10148800431E2B44B3FBF0F3064A002100FB034044
:1014980004F044FF38BD00BF000000009468000855
:1014A800010000000400000070B505460C480D4A14
:1014B8000244013AB2FBF0F20B4B0C4C1C44013CC9
:1014C800B4FBF3F404FB03F300FB02340E1B3046B9
:1014D800FFF7CEFF083EC5F8A46004F1080070BD10
:1014E80001000000000000000400000004000000EB
:1014F800044B99685869884203D003494FF08052D9
:101508000A607047E403002004ED00E081690D4B98
:101518005A6942F480725A61BFF34F8FBFF36F8FDD
:1015280031F8021C5A6922F480725A61BFF34F8F56
:10153800BFF36F8F4DF60273994201D000207047B8
:101548000120704700ED00E010B584B000241C7045
:1015580002F07F44B4F17F4F19D102F00C04082C3B
:1015680005D012F0080F0FD0084604B010BD094B83
:101578000293002401940094234601220649204640
:1015880003F095FD2046F0E701221A70EDE70020F0
:10159800EBE700BFBC6B000828680008F0B585B011
:1015A80005460F4614464C4B0293002001900090CC
:1015B80003460122494903F07AFD494B9B6A13F41B
:1015C800805F26D11626464B9B6A13F4006F2CD1F8
:1015D800434B9B6A13F4007F33D1414B9B6A13F44E
:1015E800806F55D13E4B9B6A13F4807F5CD13C4B96
:1015F8009B6A13F4005F63D1394A936A43F47F43CB
:1016080093620121284603F050FD2070304605B052
:10161800F0BD344B02930020019000900346012254
:101628002E4903F044FD1726CDE72F4B02930020E7
:101638000190009003460122284903F038FD18263E
:10164800C6E72A4B0293002001900090034601222E
:10165800224903F02CFD224B9A6B9B6A13F4004F2E
:1016680001D11926B9E70392214B0293002001907A
:10167800009003460122194903F019FD37B1184AB1
:10168800936A23F4004393621926A6E71926A4E770
:10169800184B0293002001900090034601220F4945
:1016A80003F005FD1A269DE7134B029300200190D5
:1016B800009003460122094903F0F9FC1B269BE729
:1016C8000E4B02930020019000900346012203492B
:1016D80003F0EDFC1C268FE7E86B0008286800087B
:1016E80000ED00E0006C0008146C0008286C00088D
:1016F800446C00085C6C0008786C0008906C00086A
:1017080000B585B03D4B0293002001900090034640
:1017180001223B4903F0CBFC3A4B9B6A13F0007F54
:1017280023D11D20374B9B6A13F0807F29D1354B7D
:101738009B6A13F4002F30D1324B9B6A13F4802F2D
:1017480037D1304B9B6A13F4003F3ED12D4B9B6A37
:1017580013F4803F45D12B4A936A6FEA03436FEA3B
:101768001343936205B05DF804FB274B02930020F6
:101778000190009003460122214903F098FC1E20A5
:10178800D0E7224B029300200190009003460122EB
:101798001B4903F08CFC1F20C9E71D4B0293002056
:1017A8000190009003460122154903F080FC212096
:1017B800C2E7184B029300200190009003460122D3
:1017C8000F4903F074FC2220BBE7134B029300205F
:1017D8000190009003460122094903F068FC232088
:1017E800B4E70E4B029300200190009003460122BB
:1017F800034903F05CFC2420ADE700BFC06C00087F
:101808002868000800ED00E0D86C0008EC6C0008BF
:10181800086D0008286D0008506D00086C6D000800
:1018280000B585B000200870054B02930190009028
:1018380003460122034903F03AFC05B05DF804FBB6
:10184800986D00082868000800B587B00F2910DCDB
:10185800094B103904910393084B0293002001901F
:10186800009003460122064903F021FC07B05DF809
:1018780004FB044BEDE700BFBC6D0008F06D0008E9
:1018880028680008D46D00082DE9F04184B00446AA
:101898000F461546584B02930020019000900346CE
:1018A8000122564903F003FC554B9B6A13F0100FB5
:1018B8003DD11026524B9B6A13F0080F43D1504B71
:1018C8009B6A13F0020F4AD16FF015084C4B9B6AC4
:1018D80013F0010F6ED14A4B9B6A13F0200F75D19C
:1018E800474B9B6A13F0100F04D1454B9B6A13F0CA
:1018F800020F04D0424B5B6813F4006F72D1404B67
:101908009B6A13F0200F04D03D4A536A23F4005316
:1019180053623B4A936A43F0FF03936201212046D6
:1019280003F0C3FB2870304604B0BDE8F081354BA6
:101938000293002001900090034601222F4903F0F2
:10194800B6FB1126B6E7304B0293002001900090B9
:1019580003460122294903F0AAFB1226AFE72B4BC5
:10196800029300200190009003460122234903F0CE
:101978009EFB234BD3F834809B6A13F0800F03D16E
:101988006FF015081326A1E7CDF80C80204B0293C1
:1019980000200190009003460122184903F087FBBC
:1019A80037B1174A936A23F08003936213268DE7B1
:1019B80013268BE7174B02930020019000900346F3
:1019C80001220E4903F073FB142684E7124B02939D
:1019D80000200190009003460122084903F067FBAC
:1019E80015267DE72146404600F0ECF9002886D010
:1019F80080F30988022682E7046E00082868000838
:101A080000ED00E01C6E0008146C0008506E000821
:101A1800686E0008806E0008906C000870B584B08D
:101A280005460E46384B0293002401940094234641
:101A380001223649204603F03AFB3470344BDC6A05
:101A480014F002040BD1324BDB6A002B13DB304B52
:101A5800DC6A14F0804419D1204604B070BD2D4BC7
:101A6800029300240194009423460122274920462A
:101A780003F01DFBF0E7284B029300200190009033
:101A880003460122214903F012FBE5E7234B0293A9
:101A9800002001900090034601221C4903F007FB37
:101AA8002846FFF733FD98B9194B9B6A13F0FF0FCF
:101AB8001CD1174B9C6A14F47F441ED1144B9B6AAB
:101AC800B3F5803FC8D32846FFF71AFE0446C3E79C
:101AD8002B680393124B0293002001900090034659
:101AE80001220A4903F0E3FA2C68B5E732460121DE
:101AF8002846FFF7C9FE0446AEE7324601212846CC
:101B0800FFF74CFD0446A7E7A06E00082868000808
:101B180000ED00E0B86E0008DC6E0008EC6E00080E
:101B28000C6F000830B58BB01F4B5D68C5F3080516
:101B3800002383F31188BFF36F8F0DF12603FFF79E
:101B480003FD04460DF12702294603F0BFFA9DF86C
:101B580027300BB10BB030BD05460DF1040C2068E1
:101B68006168A268E368ACE80F0020696169A2694E
:101B7800E369ACE80F009DF826304BB1089BC3F32E
:101B880008025AB96FEA53236FEA4323089305E022
:101B9800089B23F4FF7323F00103089301A9284647
:101BA80003F071FAD6E700BF00ED00E0024A53697E
:101BB80043F010035361704700ED00E0EFF3088035
:101BC800EFF3098101B57246FFF7ACFF01BD00BF15
:101BD80000200A490870102080F3118808484FF443
:101BE8000461401880F30988EFF314800221084348
:101BF80080F31488BFF36F8F00F09EF81F04002055
:101C08004004002008B50A4B9B68834202D004F0C8
:101C180079FA08BDEFF30583002BF8D0054B5A6815
:101C280042F080525A605A6A22F400425A62EEE741
:101C3800E403002000ED00E00A4A9368C3F8A80016
:101C48006FF00A01C3F8AC1007494B6843F08053A2
:101C58004B60002383F31188BFF36F8F9368D3F829
:101C6800AC007047E403002000ED00E016498A68E4
:101C78004FF030001044EFF3098C80E8F01F10207B
:101C880080F31288BFF36F8F104F4FF000664A69D8
:101C98008A603E604FF0A404141920680C4C206040
:101CA800D2F8A8000023C2F8A83080F3118804B540
:101CB800104600F017F9BDE8044002F1300090E842
:101CC800F01F8CF309887047E403002004ED00E05E
:101CD800B80200201EF0040F0CBFEFF30880EFF3EA
:101CE8000980816911F8021C0229FFD001B503F0AF
:101CF800D6F901BD002807DB00F01F0240090123C7
:101D08009340024A42F82030704700BF00E100E0EB
:101D1800002808DB0901C9B200F1604000F5614004
:101D280080F80013704700F00F000901C9B2014B99
:101D38001954704714ED00E008B50F4B0F4A22F014
:101D48007F029A60BFF34F8FBFF36F8FD3F888205D
:101D580022F47002C3F88820EFF3148323F00403FD
:101D680083F31488BFF36F8F01F050FF02F0D4FBA8
:101D780000F07CF801F0B6FF00ED00E0000000087C
:101D880010B4A2F120040E4942F8081C21F0010108
:101D980042F8081C42F8203C019B42F81C3C029B7C
:101DA80042F8183C039B42F8143C4FF0807342F809
:101DB800043C04650023C0F8A83010BC704700BF7D
:101DC8005D0C0008104B9B68BBB110F1160F0BD0CF
:101DD800D3F89420A2F1400C844510D8824210D93F
:101DE8008A4207D800207047D3F894208A4201D845
:101DF80000207047D3F894007047002070470020F7
:101E080070470020704700BFE403002008B50D4666
:101E180014460A4A9060D0F8A420094B1A6000F0D2
:101E280061F8204685F30988002163B681F311889B
:101E3800BFF36F8F00220023FEF70CFFE40300209E
:101E4800B8020020014910220A60704710ED00E036
:101E580072B6404080F31188BFF36F8FBFF34F8F86
:101E680030BF62B6BFF36F8F704700BF002207E034
:101E780003F1604303F56143102183F80013013235
:101E8800552A09DC53B2002BF2DA03F00F03034999
:101E9800194410230B76F2E7704700BFFCEC00E012
:101EA80001B5EFF30580A0F110004FEAC000044926
:101EB800014409C99847BDE80140024908470000A4
:101EC80038650008F914000808B5034B034A0121D6
:101ED800034803F070F908BD00000220000000204C
:101EE800286F000808B5D0F89430403B04480360D8
:101EF80040234360034B8360012103F060F908BD70
:101F0800BC02002000000B15084AC2F898000B68B4
:101F180023F01F03034343F01003C2F89C308B687F
:101F280043F00103C2F8A030704700BF00ED00E0A5
:101F380010B584B004460D4BD3F89030C3F3072393
:101F4800013B984204D8FFF7DFFF204604B010BDDC
:101F58000390074B02930020019000900346012252
:101F6800044903F0FAF86FF01500EFE700ED00E020
:101F7800386F0008206800082DE9F04385B08046D6
:101F88000F4699461646002509E02146F0B203F0AF
:101F9800F3F8064610F1160F1ED001360135BD4282
:101FA8001ADA05EB450408EB84046268002AF5D0C8
:101FB800B9F1000FE9D0204603F0BEF80028E4D1BB
:101FC8000395074B029301900090034601220549AF
:101FD80003F0C3F86FF01506304605B0BDE8F0838E
:101FE800606F00082068000810B5034C01232278B0
:101FF800FFF7C2FF207010BD1E04002008B50023A3
:102008000B4A1278FFF7B8FF10F1160F0FD00246EF
:1020180006E0084BC3F898200021C3F8A01001324D
:10202800044BD3F89030C3F307239342F1DC08BD87
:102038001E04002000ED00E0F0B589B0054607A8B1
:10204800FFF7B8F90646002425E0B3F5801F40F0F5
:10205800C680576809589368202B64D9B3F1004F9C
:1020680063D8013BB3FA83F3C3F11F035B0003F0AA
:102078003E0343F0885343F43023049705910693B5
:1020880004A92878FFF754FF0028C0F2B2802B7803
:1020980001332B700134B44280F0AF8020010799DE
:1020A80001EB0412D3681B0D1B05B3F5000F5ED0BE
:1020B8001DD8B3F5001F3AD0B3F5800FC5D15768C6
:1020C80009589368202B4ED9B3F1004F4DD8013BE6
:1020D800B3FA83F3C3F11F035B0003F03E0343F03D
:1020E800E06343F40033049705910693C8E7B3F11E
:1020F800807F56D0B3F1007F71D157680958936833
:10210800202B68D9B3F1004F67D8013BB3FA83F3AA
:10211800C3F11F035B0003F03E0343F480230497DD
:1021280005910693ACE70823A3E73E23A1E7576888
:1021380009589368202B12D9B3F1004F11D8013BED
:10214800B3FA83F3C3F11F035B0003F03E0343F0CC
:10215800885343F4002304970591069390E70823D6
:10216800F5E73E23F3E70823B9E73E23B7E75768C7
:1021780009589368202B10D9B3F1004F0FD8013BB1
:10218800B3FA83F3C3F11F035B0003F03E0343F08C
:10219800827304970591069372E70823F7E73E23B5
:1021A800F5E7576809589368202B10D9B3F1004F09
:1021B8000FD8013BB3FA83F3C3F11F035B0003F0AD
:1021C8003E0343F0887304970591069358E7082364
:1021D800F7E73E23F5E708239FE73E239DE7084BF3
:1021E800029300200190009003460122054902F065
:1021F800B4FF6FF0150009B0F0BD0020FBE700BF89
:10220800846F000820680008044B0522C3F8942056
:10221800BFF34F8FBFF36F8F704700BF00ED00E033
:10222800BFF35F8F024B0022C3F89420704700BFB2
:1022380000ED00E038B51C4B1D681C4BD3F89030FE
:10224800C3F307239D422BD8FFF7EAFF002409E0D8
:10225800154B5B6804EB440103EB81012046FFF753
:1022680053FE0134A542F3D811480570FFF7E4FE88
:1022780010F1160F13D00E4B1A780C4BD3F8903080
:10228800C3F307239A4207DA084BC3F898200021C2
:10229800C3F8A0100132F0E7FFF7B6FF002038BD01
:1022A8004FF0FF30FBE700BFA86F000800ED00E02B
:1022B8001E04002008B5024B1B689847002008BD83
:1022C800C8020020034B1860034A937843F00203C6
:1022D80093707047C80200201800002030B587B0FE
:1022E8000D4611460024009401940294039404942A
:1022F800059402228DF80220044A01920490059563
:102308001A46684602F050FA07B030BDCF510008AF
:1023180008B5064921F00701C1F1005202F5003263
:10232800034802F0F2FC002008BD00BF471200205D
:10233800CC02002038B50546002401E00134E4B29F
:102348006B78A34216D3287820441F28F6DC012393
:102358008340094A526933EA0202EFD1064A5361BF
:10236800064B53F83020002AE8D003EBC003596825
:102378009047E3E738BD00BF003C0140D802002089
:10238800002399420ADD10B400EB030C044C04F856
:102398000C2001339942F7DC10BC7047704700BF2E
:1023A8002800002008B50246054B18560123934023
:1023B800044A11680B43136002F0ADFE08BD00BF6C
:1023C80028000020003C01401F2806DC0122824032
:1023D80002490B6823EA02030B607047003C014086
:1023E80003292ED8DFE801F0020E192401228240C9
:1023F800144B996821EA02019960D96821EA02021E
:10240800DA607047012282400E4B99681143996047
:10241800D96821EA0202DA60704701228240094B3A
:10242800D9681143D960996821EA02029A60704715
:1024380001238340034A916819439160D1680B4393
:10244800D3607047003C014010B40D4B53F8303056
:102458008B4209D08BB90A4B43F8301003EBC00309
:102468005A60002010BC7047054C04EBC00CDCF827
:1024780004409442EED10020F4E76FF00F00F1E73A
:10248800D8020020034B002243F8302003EBC0039E
:102498005A607047D80200200C4B1B6813F0020FDB
:1024A80009D10A4A136843F001031360074B1B68FC
:1024B80013F0020FFAD0054A936823F003039360E0
:1024C800024B9B6813F00C0FFAD17047003802409A
:1024D8000C4B1A6842F480221A601A6842F480325F
:1024E8001A60084B1B6813F4003FFAD0054A536F73
:1024F80043F001035367034B5B6F13F0020FFAD0ED
:10250800704700BF0038024010B5154B9B6803F0B8
:102518000C03082B1CD0124C236823F08073236013
:10252800636823F4403343F480336360636823F0C3
:10253800706343F00063636000F0DAF8236843F0E7
:1025480080732360064B1B6813F0007FFAD010BD20
:10255800FFF7A2FF024A936823F0F0039360DAE7DB
:102568000038024038B500F0DBF800F0CBFF1E4B16
:102578009B68C3F303131D4AD35C20FA03F5137851
:102588001B4C1C41A54226D3FFF7A2FFFFF7BCFF57
:10259800154A936823F0F0039360936823F00303CC
:1025A80043F002039360104B9B6803F00C03082B65
:1025B800F9D1A54213D20F4B0D4A1A600A4A936803
:1025C80023F4E05343F480539360936823F4604307
:1025D8009360002038BD204601F082F9D4E72046F8
:1025E80001F07EF9E7E700BF00380240A475000853
:1025F80000D8B80580000020F8B50C461546394BC0
:102608001E680221304602F039FE07460121304695
:1026180002F034FE2368442B28D8002B5BD0013B02
:10262800432B5BD8DFE803F0364F5239445A5A5AE5
:102638005A5A5A5A5A5A5A5A5A5A5A5A5A5A5A5AF2
:102648005A5A5A5A5A5A5A5A5A5A5A5A5A5A5A5AE2
:102658005A5A5A5A5A5A5A2A5A5A5A2A5A5A5A2D5F
:102668005A5A5A5A5A5A5A305A5A5A33A82B02D1D5
:102678002E60002034E06FF0850031E02E600020ED
:102688002EE02E6000202BE02F60002028E028603C
:10269800002025E02E60002022E000F025F8042329
:1026A8004FF4C072082102F0E2FD2860002017E014
:1026B80000F01AF808234FF4C072194602F0D7FD4B
:1026C800286000200CE00020286009E04FF4FA435D
:1026D8002B60002004E06FF0850001E06FF08500BA
:1026E800F8BD00BF800000200048704700127A0043
:1026F80008B502F03EFE084A5168084B0B4040F40A
:10270800C04040F0080003435360536823F440334B
:1027180043F48033536008BD003802400080BFFF97
:1027280082B0064B1A6C42F080521A641B6C03F09C
:1027380080530193019B02B0704700BF00380240EC
:1027480010B504460A2806D0E1B2064883685B68DB
:102758009847204610BD034883685B680D21984759
:10276800F2E700BFD464000810B5044C2046FFF718
:10277800A9FD2046FEF768FA10BD00BF49270008EA
:1027880008B5054803F0A6FB18B1FFF7EDFF0020D8
:1027980008BD6FF01200FBE7D464000808B5436871
:1027A80031B107488268126803F10C01904708BDEF
:1027B80003488268526803F10C019047F7E700BFAD
:1027C800F86300085FFA81FC0CF102020A4B53F827
:1027D80022200B0C22EA114193FAA3F34BB1B3FA6E
:1027E80083F3984001430CF1020C034A42F82C1081
:1027F80070472023F5E700BF0038014070B582B06C
:1028080004460D460A4A6B4692E8030083E8030033
:1028180008488268126819469047064610B1304643
:1028280002B070BD2946204602F06BFFF7E700BFF3
:1028380094680008F8630008C3B20233074A52F8E4
:102848002320030C02EA104093FAA3F31BB1B3FA56
:1028580083F3D84070472023FBE700BF00380140CE
:10286800F8B50C46114647680269B1F5001F1FD03C
:102878001D46B1F5800F34D01D492046FFF7E4FD11
:10288800064688BB2146B868FFF7B8FFB5F1806FE8
:1028980023D0B5F1C06F22D0B5F1007F1BD03146EF
:1028A8002046FFF79DFD2046FFF77CFD3046F8BD2A
:1028B800204602F03DFFBB68984201D00026F5E7AC
:1028C8002046FFF781FD2046FFF7DCFD002120466A
:1028D800FFF786FDF2E70221E2E70121E0E70321A5
:1028E800DEE76FF08506E1E76FF00F06DEE700BF71
:1028F8004554000810B5044603695860074803F0BA
:10290800E9FA38B101212046FFF748FF002800DB2B
:10291800002010BD6FF01200FBE700BFF86300084D
:10292800F0B585B007464668336813B10025002422
:102938001DE003680393204B029300200190009050
:10294800034601221D4902F09AFF6FF01205EEE7D7
:102958003B6803931A4B02930020019000900346B2
:102968000122164902F08BFF6FF01205013433681B
:102978009C421DD2E5B9736803EBC40553F83400D3
:1029880003F0A8FA0028E3D04FF4B011284602F06B
:102998002AFF05460028E9D003900A4B029300203D
:1029A8000190009003460122044902F068FFDDE728
:1029B800284605B0F0BD00BF68710008F067000840
:1029C800B47100089471000808B543681868884213
:1029D80028D9642A29D8586800EB01108368A2FB1B
:1029E800032CC2F31303110D41EA0C311944104BA7
:1029F800A3FB01E3DB0803EB830303EB8303CB1A9D
:102A0800D21A6CF1000C0B4B0B4902FB01F103FBD2
:102A18000C11A2FB03231944920842EA817102F0C7
:102A28004CFF08BD6FF01500FBE76FF01500F8E7E5
:102A38001F85EB51295C8FC2F5285C8FF0B585B0F6
:102A480045682B685BB100242B689C4225DA6F68C7
:102A58002601B85903F03EFA80B10134F4E703685F
:102A680003930F4B0293002001900090034601222C
:102A78000C4902F07BFF6FF012000FE0BB591B6896
:102A88000393094B029301900090034601220549E4
:102A980002F06CFF6FF0120000E0002005B0F0BDFE
:102AA80068710008F867000810720008AF2817D886
:102AB800F8B504460D46164603090B4A52F823702A
:102AC8005FB1384603F006FA38B133462A4604F0B7
:102AD8000F01384602F043FEF8BD6FF01200FBE725
:102AE8006FF01500704700BF7072000810B44029DD
:102AF80020D009D804291FD0102901D102210AE0C9
:102B080001291BD1002106E0B1F5807F18D0B1F56D
:102B1800806F17D10521036A0B4C14F801C00221FC
:102B280001FA0CF123EA010302FA0CF213430362DF
:102B380010BC70470321EEE70121ECE70621EAE724
:102B48000421E8E70621E6E71874000840291AD0AE
:102B580009D8042919D0102901D102230AE0012932
:102B680015D1002306E0B1F5807F12D0B1F5806F52
:102B780011D10523026A0949C85C02238340134026
:102B880023FA00F070470323F4E70123F2E7062352
:102B9800F0E70423EEE70623ECE700BF187400080B
:102BA80010B440291FD009D804291ED0102901D1FA
:102BB80002230AE001291AD1002306E0B1F5807F3B
:102BC80017D0B1F5806F16D1052318300B4AD15CA8
:102BD80042580B4C14F803C0082303FA0CF31343B0
:102BE800435010BC70470323EFE70123EDE70623AA
:102BF800EBE70423E9E70623E7E700BF28740008AA
:102C0800207400082DE9F04F8FB00493BDF8608060
:102C180044684F1E032F1AD82568B5F1804F06D097
:102C2800684B9D4203D0B2F5803F00F2C780664BE7
:102C380053F82790032918D8644B53F827A018F4A1
:102C4800807B23D0BAF1000F12D056461FE00391C3
:102C58005F4B0293002001900090034601225D49DA
:102C680002F0FDFE6FF0150094E04FF0000AE6E771
:102C78000391594B029300200190009003460122D2
:102C8800544902F0ECFE6FF0150083E04E462AB37B
:102C9800A3684BBB531E05932B6A36EA03033AD04D
:102CA80006A803F0EFF860230693BBF1000F45D1A7
:102CB80001230793404602F0C0FE0A90BAF1000FC4
:102CC8004ED023681B6A3AEA030368D000230893AE
:102CD80051462068FFF73AFF0B9041E02B6A23EA40
:102CE80006032B62002055E0102B08D0202B0CD0B7
:102CF800402B0AD0602B08D06FF085004AE0049B77
:102D0800013B0493531E0593C6E7049B5B08049399
:102D180053080593C0E7404602F08FFE024631464D
:102D28002846FFF7E3FE2D4B53F827300499206817
:102D380098472368059ADA6200202BE0012308935C
:102D4800404602F07AFE0B9023681B6A39EA0303B7
:102D580023D00023079349462068FFF7F7FE0A901F
:102D6800049B099306AA4946206803F095F8C0B960
:102D78002268136843F08003136049462068FFF710
:102D88000FFF2368059ADA622268536943F001034A
:102D9800536100200FB0BDE8F08F0123DAE701236B
:102DA80095E70F4B02930020019000900346012203
:102DB800084902F054FE6FF00400EBE76FF085005D
:102DC800E8E700BF000C004008740008FC73000826
:102DD8009C72000830680008B4720008EC730008A0
:102DE800DC720008124B9B68DB68B3B110B586B083
:102DF8000C4605AA01460E48984700280BDB0D4BE8
:102E0800D3F88C3013F0807F0AD101A803F021F8A1
:102E1800029B2360002006B010BD6FF0570070477A
:102E280001A803F016F8029B23600020F3E700BF17
:102E3800F863000800380240F0B58BB007694668AF
:102E48003E4803F047F8002836D006F10C053B4809
:102E580083681B6829469847041E39DB394628468B
:102E6800FFF7C0FF041E3FDBB968786802F0DCFD9D
:102E78000021706902F002FE041E41DB05A802F081
:102E8800F8FF7368ADF81430B3680693002307930E
:102E9800089305A9306800F0D7FC00283CD13368B6
:102EA800274A934245D03268136843F00103136000
:102EB800002420460BB0F0BD224B029301900090F5
:102EC80003460122204902F0CAFD6FF01204F0E720
:102ED80003941E4B029300200190009003460122A8
:102EE800194902F0BCFDE4E70394194B0293002052
:102EF8000190009003460122134902F0B0FDD8E783
:102F08000394144B02930020019000900346012281
:102F18000D4902F0A4FDCCE70F4B0293002001906D
:102F2800009003460122084902F099FD6FF004045D
:102F3800BFE75A6C42F400425A64B4E7F8630008E9
:102F48000000014008730008306800082873000872
:102F5800487300086C7300088C73000810B50446A9
:102F6800B2F5004F2FD04FF0000C48184CEB0C0C6A
:102F780040184CF1000C4FEACC0C4CEA507CC000D5
:102F880040184FEA83024FEA93734CF10001FDF7B2
:102F9800FFF82449A1FB00235B091A0192B24FF004
:102FA800640C0CFB13031B013233A1FB0313C3F3A3
:102FB8004F1303F0F0010A4492B203F00F031344D5
:102FC8009BB2A36010BD4FF0000C48184CEB0C02EC
:102FD800401842F10002D20042EA5072C000401884
:102FE80042F10001DA184CEB0C03FDF7D1F80D495A
:102FF800A1FB00235B091A0192B24FF0640C0CFB91
:103008001303DB003233A1FB0313C3F34F1359003F
:1030180001F4F8710A4492B203F0070313449BB217
:10302800A360CFE71F85EB5108B5024A02F0C3FD44
:1030380008BD00BF315C000800B583B08DF80710EB
:10304800034A0DF1070102F0CFFD03B05DF804FB60
:10305800395C000830B587B00C46456803691868C4
:10306800E9688368DB6883B105AA984700280CDB08
:103078002A68D36823F40043D360234600220599C5
:103088002868FFF76BFF07B030BD054B029300209F
:103098000190009003460122024902F01DFEF2E76A
:1030A80058740008386800082DE9F0410C46456856
:1030B80003695E680B79012B57D0022B58D14FF466
:1030C80080676279012A58D0022A58D0002A51D044
:1030D8004FF4005194F806E0BEF1040F52D0002BD3
:1030E80053D14FF00008A3F1030C5FFA8CFCBCF13C
:1030F800010F5AD913B1BEF1040F59D0B1F5805F51
:1031080048D0B1F5405F47D0002941D003239A4207
:1031180051D1B8F1000F41D1002F44D103239E456E
:103128004CD1E3796BB1012B4BD12B68284A9342E0
:1031380007D0A2F54C42934203D002F55042934285
:1031480042D12A68D36823F40053D360214602F0A1
:10315800D2FD2A68D36843F40053D36094E803008F
:1031680086E803000020BDE8F0814FF4C067A8E7B7
:103178000027A6E74FF48051ACE70021AAE74FF4F7
:103188004051A7E74FF48058ADE74FF48058AAE7BD
:103198000123BCE70023BAE70223B8E70FB90423E9
:1031A800BDE70323BBE70223B9E76FF08500DAE741
:1031B8006FF08500D7E76FF08500D4E76FF08500E2
:1031C800D1E76FF08500CEE76FF08500CBE700BF51
:1031D8000010014030B585B0456804691248206088
:1031E80002F078FE48B1206883681B68E968984750
:1031F800044670B9204605B030BD0C4B02930190CF
:103208000090034601220A4902F066FD6FF012049D
:10321800F0E7084B0293002001900090034601223A
:10322800034902F059FDE5E7F86300080873000850
:10323800386800088874000870B584B0054644688A
:1032480003695E682268D36823F40053D36060681A
:1032580002F040FE18B3A168606802F059FC2268C9
:1032680002F10C0353E8003F43F00C0302F10C0099
:1032780040E800310029F3D13146284602F03BFDF1
:10328800237D23B12268536943F008035361226800
:10329800D36843F40053D360002004B070BD064BDC
:1032A80002930190009003460122044902F014FDA4
:1032B8006FF01200F1E700BFA87400083868000832
:1032C8004FF0E023996918699A6909B90C4B196894
:1032D8000AB90B4B1A6810F4803F01D1914208D209
:1032E80008490B680648006803440B604FF0E02368
:1032F8001B69034B1B689B1A024A106818447047E5
:10330800DC030020D80300200A4B102283F8232076
:10331800094B4FF416521A600020084B18604FF002
:10332800E02342F27F525A6198611A6942F007021B
:103338001A61704700ED00E0DC030020D80300208C
:1033480010B5FFF7BDFF11480368114A51681468AA
:103358001B1941F1000113605160002202600D4900
:103368000A68981A0C4BA3FB0030800A4FF41653D6
:1033780000FB03F3D2184B6843F100030A604B606B
:1033880001F086F9FEF7B4F810BD00BFD80300209D
:10339800F0000020E8000020B5814E1BF8B5002998
:1033A8004ED0B0F1FF3F40D0404B1C6801284FDDA4
:1033B80040F2D3639842A8BF1846461E4FF0100348
:1033C800EFF3118583F31288BFF36F8FFFF778FF50
:1033D8004FF0E0239F69364A13685168C31841F1DA
:1033E8000001136051600021324A1160324A1168AD
:1033F8005A1A2FD44FF4165000FB062202F5155224
:103408003F322E4EA6FB0262920AC91A00FB021135
:103418000A46B1F5806F38BF4FF48062284B994255
:1034280036D9224B264A1A6018E04FF0E022136979
:1034380023F0010313611D4B4FF07F421A6026E011
:103448001A4B1C68B0F1FF3FB0D140F2D260AFE731
:103458000026B3E7154B4FF480621A604FF0E02363
:103468009969124A1268013A5A6100229A618F4298
:1034780011D2641A3C440E4A136851681B1941F171
:1034880000011360516085F31188BFF36F8FF8BD99
:10349800064B1A60E2E77F1A054A13685168DB1980
:1034A80041F1000113605160EDE700BFDC0300202B
:1034B800F0000020D8030020E8000020B5814E1B52
:1034C80000C3FF0038B54FF01003EFF3118583F305
:1034D8001288BFF36F8F084B1C68084B1B68E41AEF
:1034E800FFF7EEFE204485F31188BFF36F8F044B7E
:1034F800A3FB0030800A38BDF0000020E80000205F
:10350800B5814E1B08B5334B9B6803F00C03042BA5
:103518005BD0082B5BD12F4B5A6802F03F025B68E7
:1035280013F4800F2CD02B4B5868C0F388104FEA47
:10353800401CBCEB000C6EEB0E0E4FEA8E1343EAF8
:103548009C634FEA8C11B1EB0C0163EB0E03DB00BB
:1035580043EA5173C90011EB000C43F1000359020F
:1035680000234FEA4C2041EADC51FCF711FE194BCD
:103578005B68C3F3014301335B00B0FBF3F027E062
:10358800144B5868C0F388104FEA401CBCEB000C81
:103598006EEB0E0E4FEA8E1343EA9C634FEA8C11D2
:1035A800B1EB0C0163EB0E03DB0043EA5173C90076
:1035B80011EB000C43F10003990200234FEA8C2021
:1035C80041EA9C51FCF7E4FDD1E7034800E00348D9
:1035D80008BD00BF0038024000127A000024F40041
:1035E800034B9B68C3F30313024AD35CD84070476C
:1035F80000380240A4750008034B9B68C3F382237C
:10360800024AD35CD8407047003802409C750008D5
:10361800034B9B68C3F34233024AD35CD8407047DC
:10362800003802409C7500080F4B5B6803F4800368
:1036380023B90E4B082803D0002070470C4BF9E73C
:10364800094A516801F03F01B3FBF1F05368C3F335
:10365800881303FB00F05368C3F3014301335B0095
:10366800B0FBF3F0704700BF003802400024F400BC
:1036780000127A0008B5084B9B6803F00C03042B72
:1036880005D0082B05D10820FFF7CEFF02E003483C
:1036980000E0034808BD00BF0038024000127A006D
:1036A8000024F40030B4036A23F001030362036AC0
:1036B8004468826922F073020D682A4323F00203EA
:1036C8000D692B4323F001034D682B430F4DA8428E
:1036D80007D044608261CA6842630362002030BC3C
:1036E800704723F008034D6943EA850323F0040378
:1036F8008D6843EA850324F480748D692C4324F48F
:103708000074CD6944EA4504E3E700BF00000140C6
:1037180030B4036A23F010030362036A44688269C1
:1037280022F4E6420D6842EA052223F020030D69DF
:1037380043EA051323F010034D6843EA0513104DBF
:10374800A84207D044608261CA688263036200208D
:1037580030BC704723F080034D6943EA851323F09A
:1037680040038D6843EA851324F480648D6944EA34
:10377800850424F40064CD6944EAC504E2E700BF87
:103788000000014030B4036A23F480730362036AC3
:103798004468C26922F073020D682A4323F4007357
:1037A8000D6943EA052323F480734D6843EA052332
:1037B8000F4DA84207D04460C261CA68C263036261
:1037C800002030BC704723F400634D6943EA852329
:1037D80023F480638D6843EA852324F480548D693B
:1037E80044EA051424F40054CD6944EA4514E2E798
:1037F8000000014030B4036A23F480530362036A73
:103808004468C26922F4E6420D6842EA052223F4BC
:1038180000530D6943EA053323F480534D6843EAA6
:103828000533084DA84207D04460C261CA680264E3
:103838000362002030BC704724F480448D6944EA58
:103848008514F1E7000001400368244A90420ED035
:10385800B0F1804F0BD0A2F57C42904207D002F520
:103868008062904203D002F58062904203D123F037
:1038780070034A681343194A90421AD0B0F1804F36
:1038880017D0A2F57C42904213D002F58062904294
:103898000FD002F5806290420BD002F59A32904226
:1038A80007D002F58062904203D002F58062904210
:1038B80003D123F44073CA68134303608B68C3625F
:1038C8000B888362054B984205D0436943F0010396
:1038D8004361002070470B690363F6E7000001406D
:1038E8000246002858D02E4B1B6803F44043B3F51A
:1038F800404F22D000212A4B1B6803F44043B3F504
:10390800004F2FD0264B1B6803F44043B3F5804F7C
:1039180035D0244A136823F007030B4313600222AF
:10392800204B1B6803F00703013A994201D0002A93
:10393800F6D1994232D0012070471B4B984204D8E7
:103948001A4B98420AD9002100E0032141B1184BD3
:103958009A42D0D90029CED10121CCE70021F6E73F
:103968000221C8E7114B9A4200D931B1104B9A4253
:10397800C8D90029C6D10121C4E70221C2E70B4BEF
:103988009A4200D931B10A4B9A42C2D90029C0D112
:103998000121BEE70221BCE70120704700207047E3
:1039A80000700040003C0240804A5D050090D00352
:1039B80080C3C901034B00E01433034A9342FBD38D
:1039C800704700BFF86300083865000804280CD861
:1039D800DFE800F0030D05070900064870470648B0
:1039E80070470648704706487047064870470648BB
:1039F800704700BFB4750008D8750008E87500085E
:103A0800F475000804760008C475000830B108B5DC
:103A180002F0B0FA20B1037823B108BD024870471C
:103A28000148FAE70048F8E71476000810B584B0B2
:103A38000446FDF735FA064B0293002001900090EA
:103A480003460122034902F055FA204602F061FAC2
:103A58001C760008286800082DE9F04186B0054664
:103A68000C464FF01003EFF3118783F31288BFF36E
:103A78006F8FDFF88480D8F80860FFF7A7FF98F801
:103A880010300593049003951C4B0293002001907D
:103A98000090034601221A4902F02CFA1CB1E3698E
:103AA800C3F30803E3B93046FFF7B0FF0490039669
:103AB800144B029300200190009003460122104904
:103AC80002F018FA21462846FFF7B0FF87F311885D
:103AD800BFF36F8F3046FEF795F806B0BDE8F0816A
:103AE800094B0293002001900090034601220449EB
:103AF80002F000FAD7E700BFE40300202C760008A4
:103B080028680008787600085476000870B50646DC
:103B1800134B53F8204009E0434219E0EA68137058
:103B2800EA68537843F0010353700834731C0C4A55
:103B380052F82330A34212D965686DB12368002B6F
:103B4800EED02846984703460028E9D00028E3DB52
:103B5800FF2BE3DDFF23E1E723689847E5E770BD26
:103B68009876000810B586B0B023114C03FB0044CA
:103B780000EB400C00EB80000E4B03EB80030E4A79
:103B88000592012204920F220392002202920192CE
:103B980000930A4B4FF4A072094901EBCC1120465F
:103BA80000F014F9637B23F00403637306B010BDBF
:103BB800F8000020E4030020907600085761000810
:103BC800800C002008B50A4B01221A700320FFF769
:103BD8009DFF00F0E1FD0420FFF798FF00F05AF97F
:103BE800FCF7AEFD034A137B23F00103137308BDF2
:103BF8001F040020A801002008B50146014A024818
:103C0800FEF704F9CD3B0008A801002008B50348D9
:103C1800034A121A002102F085F908BDE8000020C5
:103C28002004002010B50446FFF79CFFB02311497B
:103C380003FB0411104A04EB840302EB8303D960ED
:103C48001C7404EB44110D4B03EB811303F504635F
:103C580004EB840402EB84025360094BBFF35B8FCF
:103C680053E8001F013143E80012002AF8D1BFF3DE
:103C78005B8F10BDF8000020E40300204004002002
:103C8800E003002070B586B000F06EFB104D114BBC
:103C98005D61114B0593012304930024039402945E
:103CA800019400940D4B4FF480620D49284600F0B2
:103CB8008DF806466B7B23F004036B73284602F0ED
:103CC800A1F92046FFF7AEFF304606B070BD00BF31
:103CD800A8010020E4030020DC690008CD3B0008AF
:103CE800000E002000B5ADB00020FFF70FFF1D4B00
:103CF80083F308881C4C636943F400736361F02301
:103D080084F822300025E57725766576A57684F84F
:103D18002050636A43F4E0236362FDF747FFFEF730
:103D280091F84FF0FF33A362E362FEF783FAFEF7E0
:103D3800CBF8FDF79FF801248DF80D408DF80C4065
:103D4800259526952895094BC3F808D0FFF732FE2C
:103D58002046FFF7DBFE0220FFF7D8FEFFF792FFB1
:103D6800FFF74AFF800C002000ED00E0E40300208C
:103D78004FF01003EFF3118183F31288BFF36F8FB5
:103D88000A4B1B6A834204D11A6F084B1A6207E078
:103D9800134613B11A6F8242FAD10BB1026F1A6738
:103DA80081F31188BFF36F8F704700BFE4030020D1
:103DB80008B553EA020102D102F0DEF808BD024953
:103DC800183000F0E5FBF9E7C36000082DE9F04F73
:103DD80085B004460F4615461E46DDF838A0DDF8C6
:103DE8003C90DDF84080DDF84CB000F15803836565
:103DF800C365129B0422119902F0C2F82A4639467B
:103E0800204602F097F80546CDF80880CDF80490D2
:103E1800CDF800A03346024639462046FDF7B0FFEC
:103E2800002363652666C4F864A0C4F86890C4F8E3
:103E38006C804FF01003EFF3118283F31288BFF305
:103E48006F8F134B196A21671C6282F31188BFF3C5
:103E58006F8FBBF1000F13D01F22594604F1740075
:103E680002F0DBF9002384F89330094B9B685BB1BF
:103E7800D3F8A030C4F8A030284605B0BDE8F08FCC
:103E8800002384F87430F0E7C4F8A030F4E700BFEA
:103E9800E403002010B586B0184C14E0636A05935B
:103EA800236A0493E3690393A36902936369019303
:103EB80023690093E368A26861682068FFF786FFBA
:103EC80023685C6530340E4B9C42E7D300F0A4F8BD
:103ED8000A4C00E030340A4B9C420BD2A26AE36AD7
:103EE800B3F1FF3F08BFB2F1FF3FF3D02068FFF7FF
:103EF8005FFFEFE700F0C8F906B010BDE8670008FB
:103F0800E8670008C3897F2B11D80E4B1B687BB16B
:103F180090F90E200C4B1B689A420CDB437B13F084
:103F28001F0F0AD1094B984209D0012300E0002352
:103F380003F0010070470023FAE70023F8E70023A5
:103F4800F6E700BF1404002010040020F800002049
:103F5800044BC01AC010044B03FB00F0034B0122B2
:103F68001A54704758020020ABAAAAAA0C040020D1
:103F780070B505460D4B1E7C06EB46030C4C04EB56
:103F8800C304204602F023F90A4B00229A5528461A
:103F9800FFF7B8FF00B970BD074B1A68013AD3178D
:103FA8000649204600F0F4FAF5E700BFE4030020D4
:103FB800580200200C04002014040020593F000877
:103FC80008B50B4659B9EFF3058242B9064A50695C
:103FD8009268904203D00846FDF72EFE03E083F373
:103FE8001188BFF36F8F08BDE403002008B50346AE
:103FF80050B9EFF305823AB9064A5169926891427D
:1040080002D0FDF719FE03E083F31188BFF36F8F29
:1040180008BD00BFE403002000234FF01002EFF3B7
:10402800118182F31288BFF36F8F09E0064B9A68FB
:10403800D37B013BD37381F31188BFF36F8F0123C7
:10404800002BF3D0704700BFE403002038B50446C6
:10405800104801F0D0FF054670B184B90E4B9B683B
:104068005A7B12F01F0F0AD1AA6942B9DA897F2A4E
:1040780005D9094A53610BE0074BDD68EDE7064BAC
:104088009B68AB4202D02846FFF772FF024B5D6186
:1040980038BD00BFFC030020E403002038B5054606
:1040A800427B90F90D30002B0ADB6B7B63F07F03BA
:1040B8006B731B4B53F8184F9C4210D100240EE031
:1040C80002F07F0242730146164801F07EFFECE7DA
:1040D80063686B602C601D60656017E000246CB13C
:1040E8002146284601F05BFF0028F1DC002CF6D0C1
:1040F8000B4BDB699C42F1D02468F0E7084BDA6986
:1041080003F1180129606A601560DD61044B986845
:10411800A84214BF00200120FFF798FF38BD00BF58
:10412800E4030020FC03002038B54FF01002EFF341
:10413800118382F31288BFF36F8F1D46144B9C685E
:10414800144B1B68A34217D0124B00221A60104B65
:104158001B7C114AD35C53B12046FFF7D3FE30B124
:10416800637B13F01F0F0FD02046FFF701FF85F385
:104178001188BFF36F8F38BD2046FFF7F9FE85F32E
:104188001188BFF36F8FF6E72046FFF787FFEBE74D
:10419800E4030020080400200C040020427B90F96E
:1041A8000D30002B33DB70B5044612F01F0F01D120
:1041B800866906B170BD62F07F024273144B53F8F2
:1041C800185F9D4208D1354606E06B68636025603C
:1041D8001C606C6017E035466DB12946204601F039
:1041E800DEFE0028F1DC002DF6D0094BDB699D428C
:1041F800F1D02D68F0E7064BDA6903F11801216068
:1042080062601460DC610020FFF720FFD2E770478E
:10421800E403002010B54FF01003EFF3118483F38B
:104228001288BFF36F8F437B13F0040F04D184F31C
:104238001188BFF36F8F10BD23F004034373FFF79A
:10424800ADFF21460148FFF7BBFEF4E71804002044
:1042580010B50446427B90F90D30002B08DB084B63
:104268009868A04214BF00200120FFF7EFFE10BDA0
:1042780002F07F0242730146024801F0A6FEEEE713
:10428800E4030020FC03002010B500234FF01002C7
:10429800EFF3118482F31288BFF36F8F0CE0094BA0
:1042A8009A68D37B0133D3730020FFF7CFFE84F3E2
:1042B8001188BFF36F8F0123002BF0D001F079FE36
:1042C80010BD00BFE403002038B5437B0B4213D177
:1042D80004460D460B43437303F09F02427312F0EA
:1042E800800F0AD1082D10D00120FFF7AFFE102D46
:1042F80002D02046FFF73CFD38BD03F01F0343738F
:104308000146094801F061FEECE7A36813B12046B5
:1043180001F063FE04F1180001F059FF04F15800A0
:1043280001F08CFEE0E700BFFC03002038B504462E
:104338000D4662B108212046FFF7C6FF094B9B686E
:10434800A34206D085F31188BFF36F8F38BD1021C3
:10435800F1E7EFF30583002BF4D12846FDF76CFC59
:10436800F4E700BFE403002008B5024801F0C6FEE8
:1043780008BD00BFF8030020F8B54FF01003EFF3B5
:10438800118683F31288BFF36F8F1D4CA1684B7B96
:1043980003F07F034B7304F11807384601F015FE4C
:1043A800A5686B7B63F07F036B73A469BC4208D17B
:1043B800002406E063686B602C601D60656017E090
:1043C80000246CB12146284601F0E9FD0028F1DC03
:1043D800002CF6D00A4BDB699C42F1D02468F0E748
:1043E800074BDA6903F1180129606A601560DD611D
:1043F8000120FFF72BFE3046FDF71EFCF8BD00BF7D
:10440800E40300202DE9F04150EA010338D00446C6
:104418000E466FF001031B1A4FF0FF3262EB0102E8
:10442800012B72F100022FDB6FF001052D1A4FF0FE
:104438001003EFF3118883F31288BFF36F8F144FC3
:10444800B868144B1860FFF703FFB8682246334674
:104458001149183000F09CF8BA68537B43F01003F8
:1044680053734046FDF7E8FB01F0CFFE281A63EBD3
:104478000303012873F1000300DA0020BDE8F0818E
:10448800FFF77AFF0020F9E701F0BFFE0519CEE734
:10449800E403002008040020C360000808B5B1F157
:1044A800FF3F08BFB0F1FF3F22D0FFF7ABFFC317B4
:1044B800093043F100030021C21820D20A441149EF
:1044C800A1FB02CE2EF0030C0CEB9E0CA2EB0C020F
:1044D800801A63F100024FF0CC3300FB03F301FBB9
:1044E8000233A0FB01010B44400840EAC37008BD39
:1044F800054B986801F0E7FD4FF0FF30F7E7012121
:10450800DCE700BFCDCCCCCCE4030020014B98689D
:10451800704700BFE403002008B50648064A121A8F
:10452800064901F003FD064A0649074801F0FEFC6A
:1045380008BD00BF00000020E8000020EC7700085C
:1045480000000000EC77000800000020034B18680A
:10455800984200D070470020FCE700BF840000208C
:1045680030B1044A5268904201D000687047002078
:10457800704700BF8400002008B5044B1B680BB1CE
:10458800002008BDFEF79EFFFBE700BF18040020CF
:10459800B3F1FF3F08BFB2F1FF3F74D02DE9F047F8
:1045A800044692461D46816000234FF01002EFF347
:1045B800118782F31288BFF36F8F26E01AF1010882
:1045C80045F10009FFF7D8FF18EB000349EBE0704D
:1045D800236160613BE0521A66EB030302614361A9
:1045E8004368636020601C60446005E0264B5A689D
:1045F8002360626014605C60FFF7A8FF84423AD0D1
:1046080087F31188BFF36F8F0123002B39D15346ED
:104618006FF00101B1EB0A014FF0FF3060EB0502CA
:10462800002ACBDB194A116852685B1842EB050275
:104638006FF00101C91A60EB020308461A46012906
:1046480073F1000301DA0120002220616261FFF7A3
:104658007DFF0028CAD002694669216963699142D1
:1046680073EB060EB7DB891A63EB060321616361FE
:10467800FFF776FFEDE701F08DFD0021FEF78EFED6
:10468800BEE7BDE8F0877047840000207002002074
:1046980070B54FF01003EFF3118683F31288BFF360
:1046A8006F8F2B4B1860FFF751FF044624E0294A0F
:1046B800136851685B1941EBE57113605160002282
:1046C8000023C4E90423204601F04DFD86F3118838
:1046D800BFF36F8FA368204698474FF01003EFF39E
:1046E800118683F31288BFF36F8F194A13685B1B17
:1046F8001360FFF72BFF04463CB125696169144B31
:104708001A68D317AA428B41D1DA44B12369626986
:104718000F4909685B1A62EBE172236162610D4A15
:104728000B4D2868136851681B1841EBE071136042
:10473800516000242C6001F02DFD2146FEF72EFE6D
:1047480086F31188BFF36F8FFFF7EEFC70BD00BFD3
:10475800180400207002002010B500224FF010034A
:10476800EFF3118483F31288BFF36F8F134611465A
:104778000CE0FFF701FF074A13685168C31841EBC3
:10478800E07184F31188BFF36F8F0122002AF0D003
:10479800184610BD7002002008B5024800F034FB2E
:1047A80008BD00BFB47600082DE9F04F8DB043680E
:1047B8000293837815469A07804640F10D810024BC
:1047C8000E78002E00F00A81252E0BD04B1C039387
:1047D8000134029B4146304698470028C0F2F680D3
:1047E8000399EDE74E788B1C252E0393F0D0002714
:1047F800B946BB46BBF11F0F38D8A6F12003102BD2
:104808000AD8DFE803F02A0909300909092109094A
:104818000928092D09091F00A6F13003092B33D9EE
:104828002A2E37D11BF0400F55F8043B40F0828008
:10483800002BA7BF4BF0200B9946C3F100094BF0A2
:10484800280B01E04BF0010B039B13F8016B03935A
:10485800002ECFD130E04BF0020B4BF0040BF3E706
:104868004BF0080BF0E74BF0100BEDE7BBF17F0FB7
:1048780019D8A6F13003092BD2D81BF0400F03D06A
:104888000A2101FB0737DFE70A2101FB09394BF051
:10489800200BD9E72E2E06D11BF0400F40F09E804A
:1048A8004BF0400BD0E76C2E31D02BD8682E36D089
:1048B8006A2E3CD04C2E3AD0002F46F02003B8BFC9
:1048C8002BF04002A3F16501BCBF1FFA82FB002751
:1048D800022901D9612B2FD1073525F00705DFF80B
:1048E800ACA2083507271BF0080F66D00AEB070BA8
:1048F80056465E4563D1A4EB0A0A06EB0A02A9EB09
:1049080007096FE1742E9FD07A2E9DD0D4E71BF053
:10491800800F18BF4BF4007B4BF0800B94E71BF41F
:10492800807F18BF4BF4007B4BF4807B8CE74BF403
:10493800207B89E71F4687E7A6F16301122900F269
:10494800F080DFE811F013004F00EE00EE00EE00FB
:10495800EE004F00EE00EE00EE00EE00EE00FE006E
:10496800E900EE00EE001B00EE00AF0055F8043B36
:104978008DF8183001270DF1180AB4E755F804AB83
:10498800834BBAF1000F08BF9A461BF0400F14BFC3
:1049980039464FF0FF31504601F04FFC0746A2E779
:1049A800029B41462020984700280FDB013EB74272
:1049B800F6D34C44A41BB14698E74E46F7E716F8E1
:1049C800010B029B41469847002892DA98F802307A
:1049D80043F0040388F802304FF0FF3420460DB04E
:1049E800BDE8F08F1BF0800F34D01BF4007F2CD073
:1049F800073525F00705AA4669685AF8080B2BF011
:104A080010050029ADB237DA404261EB410145F4A7
:104A180080650DF1180B0A235A4601F01AFCA0EB29
:104A28000B0301936B0662D5019B25F001019F42A0
:104A380089B240F3A180002E00F0998015F0100291
:104A480040F09C80BB460D4623E0AA465AF8040B6A
:104A5800C117D4E7AA461BF4807F5AF8041B01D17A
:104A68000846F5E71BF4007F15BF48B208B241F3CA
:104A7800C01141F3C031C2E750EA0103C9D11BF0AC
:104A8800400FC6D0002FC4D12BF0110295B2BB46FF
:104A9800019740F2064115EA01021CBF0BF1010B18
:104AA80000222CE02BF010021FFA82FB0A231BF0D5
:104AB800800C49D01BF400711DBF073525F0070590
:104AC800AA46AA461ABF5AF8080B69685AF8040B8E
:104AD80050EA010545D12BF016051BF0400FADB289
:104AE80042D0002F40D12BF0170295B2019715F054
:104AF800100248D0019B002E42D103F1010B290777
:104B08005AD4EB0706D5D9456FDD0199A9EB0B03FC
:104B18005F18CB465B4649E04BF0100B1023782614
:104B2800C5E7782B04D1C6F1780343F01003BEE73C
:104B3800029B4146252098470028FFF647AF0234DC
:104B480047E608230026B2E7AA461BF480715AF804
:104B5800040BBDD01BF400711ABFC0B2614680B20D
:104B6800B6E72BF0060295B20DF1180B54E725F0C5
:104B78001105ADB2BB468CE70D46B8E73B460D467E
:104B880003F1020BBBE7DDF804B082E7E477000825
:104B9800DD770008CDE904324146029B2020984782
:104BA8000028FFF613AF049B059A01339945F1DC01
:104BB800A4EB0B01CC189B460AB3029B414630205C
:104BC80098470028FFF602AF8EB901342744019BAD
:104BD800391B994224DC1D465DBB019AA9EB0B09E0
:104BE800224455461446914435E0019F92E7023429
:104BF80041463046029B98470028E7DAE6E640F24D
:104C080006410D42E2D015F0020F14BF2B202020E0
:104C180015F4806F04F10104414618BF2D20E9E71F
:104C2800029B414630209847002804F10104CEDA5F
:104C3800CCE606AB013D4146585D029B98470028EB
:104C4800CADAC3E6029B414620209847002804F1AF
:104C58000104FFF6BBAEA9EB0403002BF2DCBFE5B1
:104C6800704710B58468A4680CB1A04710BD6FF0F8
:104C78005700FBE708B583681B690BB1984708BD67
:104C88006FF05700FBE710B586B00BAC05940394A2
:104C98000A9C0294099C0194089C009400F00BF96A
:104CA80006B010BD10B5131D50F8234074B9C36881
:104CB800012494402343C360043240F82210CB00FF
:104CC8001A1D89B281520633C15210BDE200043266
:104CD800835A4FEAC10C0CF1040E20F80E300CF187
:104CE800060C20F80C40DB00063389B2C152815211
:104CF800EBE708B500EBC1035A885208B2FA82F212
:104D0800C2F11F02FFF7CEFF08BD70B50346043A93
:104D1800C81D20F007000A4422F00702121AD5081D
:104D2800186085600023C360B5FA85F1C1F1200ED3
:104D3800C1F124018900CE1DF10805E003F1040C3E
:104D4800002440F82C4001337345F7DB4C00A4B233
:104D580044804FF0000CA0F800C044F001044480E7
:104D68006B1A4FEA430E26F00704A51C20F805E04D
:104D7800015322F00704951C20F805C00244035390
:104D8800538843F001035380FFF7B3FF70BD10B59C
:104D98000C4611461A46029BA04710BD5BB32DE98D
:104DA800F04782B00746884691461D461A785E78D5
:104DB8009C78DB7804EB820404EB43042C444FF02A
:104DC800000A0AE014F8013B45F823402046FBF7A7
:104DD80049FB013004440AF1010AB245F2D305F156
:104DE800080300936B684A4641463846FFF7CFFFF1
:104DF80002B0BDE8F0876FF01500704700207047DB
:104E080008B500F030F808BD0FB400B583B004A9A8
:104E180051F8040B0191FFF7F3FF03B05DF804EBC1
:104E280004B070477047002070470120704708B5EC
:104E38000846FBF747FF08BD08B520EAE073D91715
:104E48008A0042EA93729800C01841EB02010018E8
:104E58004941FFF723FB08BD08B500210846FBF7C9
:104E6800A5FF002008BD00B585B003910290002081
:104E78000190009003460246014600F01CF805B078
:104E88005DF804FB0020704770B588B10E461446E3
:104E98001946054633B11030C2F34A23120D18449F
:104EA80001F02EFA2C606E602846FCF741F870BDC0
:104EB800FCF71EF8FBE72DE9F04F85B002AF8146FD
:104EC8000D4690461E46D7F830B0D7F838A0BAF14C
:104ED800000F38D0FB6B7B60009353467A6B102130
:104EE8000020FBF755FC014600EB0B0317330024A9
:104EF8006FF300046FF341046FF3820469F3C50490
:104F080068F3881460F353246BF31F5423F00703EA
:104F1800ADEB030D0DF108086B4613F1180008D02E
:104F2800BAF1000F05D0FB6B009353467A6BFBF781
:104F38002FFC3346224629464046FFF7A5FF0C378B
:104F4800BD46BDE8F08F0020CDE700B583B08DF8F1
:104F580007000B684A68526801210DF1070098475D
:104F6800002003B05DF804FB38B504460D460A2856
:104F780005D029462046FFF7E8FF002038BD0D2060
:104F8800FFF7E3FFF5E7F8B507460D4614461E465A
:104F9800324621462846B8470544241AF8D1F8BDB8
:104FA80008B513460122FCF759F808BD08B51346A1
:104FB8000022FCF753F808BD38B505460C4601F049
:104FC8000101FFF7F3FF21462846FCF7D9F838BD61
:104FD8002DE9F04383B080460E4615461F46DDF89E
:104FE80028902C46102D28BF1024CDF800903B4661
:104FF800224631464046FCF7D7F826442D1BF0D10F
:1050080003B0BDE8F08310B50446426853681268DF
:1050180081680068FFF7B7FF636800221A6010BD57
:1050280043681B685B6819610020704743681B6808
:105038001A6852685360704708B543681B685A6815
:10504800012111751868FFF7DEFF08BD38B50C4659
:1050580043681D686B681869FBF7F4FE03460F2266
:1050680021462868984738BD10B586B00BAC059422
:1050780003940A9C0294099C0194089C0094FFF7ED
:105088001AFF06B010BD38B504460D4611B10846E2
:10509800FCF796F929462046FEF7DEFC38BD08B530
:1050A80001460068FFF7EFFF08BD0020704710B504
:1050B80086B00BAC059403940A9C0294099C019455
:1050C800089C0094FFF7F7FE06B010BD08B5002352
:1050D8001370CB1E092B1AD8DFE803F005090D1150
:1050E8001919191919141146FCF798FC08BD002163
:1050F800FCF7CAFBFAE70021FCF750FAF6E7FCF7E1
:10510800FFFAF3E71146FCF78BFB0020EEE7FCF70C
:105118009BFB0020EAE708B540B2FCF7EBFD08BDB1
:1051280008B5013140B2FCF7F3FD08BD08B5002110
:105138000120FFF7A8FF08BD43685A1E134206D195
:105148001F2B06D903681A4205D00020704700209B
:105158007047002070470120704710B586B00BAC2F
:10516800059403940A9C0294099C0194089C009459
:10517800FFF7A1FE06B010BD00B585B00B6801931E
:105188004B688A68202B12D9B3F1004F11D8013B24
:10519800B3FA83F3C3F11F035B0003F03E03134329
:1051A800039301A9FCF7C4FE05B05DF804FB0823CE
:1051B800F5E73E23F3E708B5FCF716FF08BD08B589
:1051C800FCF71CFF08BD08B50B6949699847002022
:1051D80008BD08B5FDF76EF8002008BD08B5062221
:1051E80001210020FDF7CCF8002211460620FFF728
:1051F80097FF072201210846FDF7C2F80022114651
:105208000720FFF78DFF082201210220FDF7B8F8DB
:10521800002211460820FFF783FF092201210320FD
:10522800FDF7AEF8002211460920FFF779FF0A22A0
:1052380001210420FDF7A4F8002211460A20FFF7F7
:105248006FFF172205210846FDF79AF8002211463C
:105258001720FFF765FF282206210A20FDF790F89E
:10526800002211462820FFF75BFF002008BDB0FB95
:10527800F1F002FB00F0B0FBF3F07047B0FBF1F087
:105288007047012806D038B10338022807D96FF0D3
:1052980085007047002070476FF085007047002038
:1052A80070470B68A3F13002782A09D803F18043CC
:1052B80003F50E334A6819680A431A6000207047DC
:1052C8006FF0850070470B68A3F13002782A0AD87E
:1052D80003F1804303F50E3349681A6822EA010294
:1052E8001A60002070476FF08500704710B50C46B3
:1052F8000868FFF7C6FF00281FDB6368FF2B1DD077
:10530800DAB202F1804202F50E32C3F34231C3F33E
:1053180004239940136823EA010313606168CBB240
:1053280003F1804303F50E33C1F30242C1F30421B4
:105338008A4019680A431A60002010BD0020FCE763
:1053480008B50868A0F13003782B0BD800F180402D
:1053580000F50E3002684B68934301D0012008BD68
:105368000220FCE7FFF78DFF08B10120F7E70220D4
:10537800F5E74FF4800070470B4639B111681960A2
:1053880041688A4209D0002313607047136803609C
:1053980041688A42F7D14360F5E74360F3E708B50F
:1053A8000A460368002101E019461B682BB19342A5
:1053B800FAD1FFF7E1FF012000E0002008BD70B539
:1053C80004460D461646036833B1FFF7E8FF70B987
:1053D8001EB96FF0150006E032B123682B60256016
:1053E800636843B1002070BD6FF01500FBE7002E25
:1053F800F3D10020F7E765600020F4E770B50E46AA
:105408001546016821B10C683CB131B90C4604E07D
:105418000C4602E0234621461C4671B18A682A40A0
:1054280002D04B6830469847002CF3D02368002BF5
:10543800F1D0002CEFD12346EDE770BD08B50B463F
:1054480001228240496803F10800FFF7D7FF08BD31
:1054580010F4003F1BD010230B6010F0020F04D093
:1054680010F0040F2CD050230B6010F0100F05D053
:105478000B6843F400730B600020704710F0200F96
:1054880021D00B6843F480630B600020704710F450
:10549800803F11D000230B6010F0100F04D04FF4A0
:1054A80000730B600020704710F0200F0DD04FF4F0
:1054B80080630B600020704730230B60002070472A
:1054C8006FF08500704700207047002070474368E0
:1054D8005B681B690B600020704743685B6858690C
:1054E80042400A4042405A610020704743685B6866
:1054F80099610020704743685B680904996100203E
:10550800704743685A6853694B405361002070479D
:1055180008B500690830FFF752FF08BD10B40468E9
:1055280091FAA1F39BB1B3FA83F35B004FF0030C3C
:105538000CFA03F324EA030391FAA1F149B1B1FA91
:1055480081F149008A401343036010BC704720234F
:10555800EBE72021F5E710B4846891FAA1F39BB139
:10556800B3FA83F35B004FF0030C0CFA03F324EA5D
:10557800030391FAA1F149B1B1FA81F149008A40D6
:105588001343836010BC70472023EBE72021F5E725
:1055980010B4C46891FAA1F39BB1B3FA83F35B002A
:1055A8004FF0030C0CFA03F324EA030391FAA1F178
:1055B80049B1B1FA81F149008A401343C36010BC74
:1055C80070472023EBE72021F5E710B4046A91FA2D
:1055D800A1F39BB1B3FA83F39B004FF00F0C0CFAC5
:1055E80003F324EA030391FAA1F149B1B1FA81F175
:1055F80089008A401343036210BC70472023EBE7FD
:105608002021F5E710B4446A090A91FAA1F39BB185
:10561800B3FA83F39B004FF00F0C0CFA03F324EA60
:10562800030491FAA1F149B1B1FA81F189008A40E4
:105638001443446210BC70472023EBE72021F5E7B0
:105648002DE9F8430F461546984643685E680124DD
:105658008C4002F03009C2F38013706820EA04001D
:105668008B4018437060C2F3C11221463046FFF7E1
:1056780072FFC5F3412221463046FFF789FFB9F191
:10568800200F07D04FEA191221463046FFF746FF90
:10569800BDE8F883072F05DC424621463046FFF770
:1056A80094FFEFE7424621463046FFF7ABFFE9E7B4
:1056B800F0B583B007460D46144601A91046FFF71A
:1056C800C7FE064670B914F4003F05D014F4002F45
:1056D8000BD114F4802F0ED10023019A29463846A5
:1056E800FFF7AEFF304603B0F0BD0121A9403846B0
:1056F800FFF7FCFEF0E70121A9403846FFF7FBFE63
:10570800EAE708B54A4201F0030302F0030258BF72
:10571800534204339B000F2202FA03F30A4600297E
:1057280004DB43EAA201FDF74DF808BDCA1CF8E7FF
:1057380008B5424200F0030302F0030258BF534287
:1057480004339B000F2202FA03F30246002804DB0D
:1057580043EAA200FDF770F808BDC21CF8E7F8B5E7
:1057680007460E4614461D46FFF76AFF112D01D065
:105778000020F8BD14F4006407D1002CF8D10121F1
:10578800B1403846FFF7B7FEF2E70121B14038468D
:10579800FFF7ACFEECE738B513468568046912F4E8
:1057A800801F07D012F4402F04D012F0010F01D04F
:1057B80082F4402323F4801213F0010F0AD02368E7
:1057C8004FF0010C0CFA01FC43EA0C0323602B6830
:1057D800984738BD23684FF0010C0CFA01FC23EA06
:1057E8000C032360F3E708B503468C460068197973
:1057F800DA8842EA0C02FFF7CEFF08BD08B532B1DD
:10580800012303FA01F18368DB68984708BD012387
:1058180003FA01F183681B699847F7E710B5036934
:105828001C6801238B401C4202D0B2FA82F2520952
:10583800FFF7E4FF10BD08B50B46416808689842B9
:105848000DD9642A0ED8486800EBC301003A18BF86
:105858000122097950F83300FFF7E0FF08BD6FF027
:105868001500FBE76FF01500F8E708B56422FFF7AD
:10587800E2FF08BD08B50022FFF7DDFF08BD10B53F
:1058880086B00BAC059403940A9C0294099C01947D
:10589800089C0094FFF70FFB06B010BD30B583B02D
:1058A80084689A4206D32468BDF818500095A0472A
:1058B80003B030BD6FF01500FAE700B583B00B46B2
:1058C80082890092826841680068FAF7D5FD03B0C2
:1058D8005DF804FB00B583B01346828900920A463E
:1058E80041680068FAF7C8FD03B05DF804FB8C4610
:1058F80040680168614523D90021D3181AD211BB29
:1059080010B500244FF47A71A3FB0131A1B9ECB9A9
:105918004FF47A71A2FB012181B9D4B940684FF4E0
:105928007A7101FB02F203FB01F100EB0C10FFF7A7
:10593800D1FF10BD0121E2E70124E8E70124ECE7EB
:105948006FF0150070476FF0150070476FF0150085
:10595800EFE76FF01500ECE708B56422FDF734F8BF
:1059680008BD08B50022FDF72FF808BD10B586B0B0
:105978000BAC059403940A9C0294099C0194089C1E
:105988000094FFF798FA06B010BD00B503681360DD
:1059980001E008331360136890F804C0D0F800E001
:1059A8000EEBCC0C634505D293F805C08C45F0D1BD
:1059B800002001E06FF001005DF804FBF8B5064631
:1059C8000F460024254614E002F01F0110291FD0BD
:1059D80011291BD0530A1B01DBB2C2F3431002F09A
:1059E8001F0229461843FDF761F8002813DB01342C
:1059F800E4B2BC420ED206EBC40356F8342012F0CF
:105A0800100FE1D15D6845F02005E3E75D68E1E747
:105A18003025DFE70020F8BD416370478163704798
:105A2800C16370470164704708B58368DB680BB1D0
:105A3800984708BD6FF05700FBE710F0010F01D041
:105A48000220704700207047036941681B68496855
:105A58000131B3FBF1F3002013605060704710B5BB
:105A680086B00BAC059403940A9C0294099C01949B
:105A7800089C0094FFF71FFA06B010BD00B583B06C
:105A880001AAFFF782FF002805DB019B0022197994
:105A98001868FFF793FF03B05DF804FB43681868C4
:105AA800C1F34B1301F01F01C05801238B4018426A
:105AB80014BF0123002313700020704710B44368FB
:105AC8001C68C1F34B1001F01F01235801228A40C2
