:020000040800F2
:100000004030002001440008293D0008ED4300086D
:10001000ED430008ED430008ED4300080000000038
:10002000000000000000000000000000054500087E
:10003000ED430008000000009D44000835960008CC
:10004000D1460008D1460008D1460008D146000834
:10005000D1460008D1460008D1460008D146000824
:10006000D1460008D1460008D1460008D146000814
:10007000D1460008D1460008D1460008D146000804
:10008000D1460008D1460008D1460008D1460008F4
:10009000D1460008D1460008D1460008D1460008E4
:1000A000D1460008D1460008D1460008D1460008D4
:1000B000D1460008D1460008D1460008D1460008C4
:1000C000D1460008D1460008D1460008D1460008B4
:1000D000D1460008D1460008D1460008D1460008A4
:1000E000D1460008D1460008D1460008D146000894
:1000F000D1460008D1460008D1460008D146000884
:10010000D1460008D1460008D1460008D146000873
:10011000D1460008D1460008D1460008D146000863
:10012000D1460008D1460008D1460008D146000853
:10013000D1460008D1460008D1460008D146000843
:10014000D1460008D1460008D1460008D146000833
:10015000D1460008D1460008D1460008D146000823
:10016000D1460008D1460008D1460008D146000813
:10017000D1460008D1460008D1460008D146000803
:10018000D1460008D1460008D1460008D1460008F3
:08019000D1460008D146000829
:1001980081F0004102E000BF83F0004330B54FEA30
:1001A80041044FEA430594EA050F08BF90EA020F9D
:1001B8001FBF54EA000C55EA020C7FEA645C7FEA30
:1001C800655C00F0E2804FEA5454D4EB5555B8BF53
:1001D8006D420CDD2C4480EA020281EA030382EAC4
:1001E800000083EA010180EA020281EA0303362D56
:1001F80088BF30BD11F0004F4FEA01314FF4801C29
:100208004CEA113102D0404261EB410113F0004F3A
:100218004FEA03334CEA133302D0524263EB4303F1
:1002280094EA050F00F0A780A4F10104D5F1200E8F
:100238000DDB02FA0EFC22FA05F2801841F10001EA
:1002480003FA0EF2801843FA05F359410EE0A5F1BE
:1002580020050EF1200E012A03FA0EFC28BF4CF0EF
:10026800020C43FA05F3C01851EBE37101F00045A5
:1002780007D54FF0000EDCF1000C7EEB00006EEBB2
:100288000101B1F5801F1BD3B1F5001F0CD349083C
:100298005FEA30004FEA3C0C04F101044FEA445293
:1002A80012F5800F80F09A80BCF1004F08BF5FEA1A
:1002B800500C50F1000041EB045141EA050130BDFA
:1002C8005FEA4C0C404141EB0101013C28BFB1F50C
:1002D800801FE9D291F0000F04BF01460020B1FA57
:1002E80081F308BF2033A3F10B03B3F120020CDA2A
:1002F8000C3208DD02F1140CC2F10C0201FA0CF008
:1003080021FA02F10CE002F11402D8BFC2F1200C6C
:1003180001FA02F120FA0CFCDCBF41EA0C01904022
:10032800E41AA2BF01EB0451294330BD6FEA04046B
:100338001F3C1CDA0C340EDC04F11404C4F1200256
:1003480020FA04F001FA02F340EA030021FA04F368
:1003580045EA030130BDC4F10C04C4F1200220FABF
:1003680002F001FA04F340EA0300294630BD21FAFD
:1003780004F0294630BD94F0000F83F4801306BFC3
:1003880081F480110134013D4EE77FEA645C18BFB7
:100398007FEA655C29D094EA050F08BF90EA020F4E
:1003A80005D054EA000C04BF1946104630BD91EA46
:1003B800030F1EBF0021002030BD5FEA545C05D149
:1003C8004000494128BF41F0004130BD14F5800488
:1003D8003CBF01F5801130BD01F0004545F0FE41FC
:1003E80041F470014FF0000030BD7FEA645C1ABF31
:1003F800194610467FEA655C1CBF0B46024650EA68
:10040800013406BF52EA033591EA030F41F4002193
:1004180030BD00BF90F0000F04BF0021704730B519
:100428004FF4806404F132044FF000054FF00001EE
:1004380050E700BF90F0000F04BF0021704730B5AF
:100448004FF4806404F1320410F0004548BF404284
:100458004FF000013EE700BF42004FEAE2014FEAD9
:1004680031014FEA02701FBF12F07F4393F07F4FB4
:1004780081F06051704732F07F4208BF704793F0B7
:100488007F4F04BF41F40021704730B54FF46074CA
:1004980001F0004521F000411CE700BF50EA0102CD
:1004A80008BF704730B54FF000050AE050EA010276
:1004B80008BF704730B511F0004502D5404261EBE6
:1004C80041014FF4806404F132045FEA915C3FF427
:1004D800D8AE4FF003025FEADC0C18BF03325FEAC4
:1004E800DC0C18BF033202EBDC02C2F1200300FA75
:1004F80003FC20FA02F001FA03FE40EA0E0021FA9A
:1005080002F11444BDE600BF70B54FF0FF0C4CF487
:10051800E06C1CEA11541DBF1CEA135594EA0C0F39
:1005280095EA0C0F00F0DEF82C4481EA030621EA74
:100538004C5123EA4C5350EA013518BF52EA0335AF
:1005480041F4801143F4801338D0A0FB02CE4FF061
:100558000005E1FB02E506F00042E0FB03E54FF091
:100568000006E1FB03569CF0000F18BF4EF0010E89
:10057800A4F1FF04B6F5007F64F5407404D25FEA85
:100588004E0E6D4146EB060642EAC62141EA555138
:100598004FEAC52040EA5E504FEACE2EB4F1FD0C7A
:1005A80088BFBCF5E06F1ED8BEF1004F08BF5FEAF8
:1005B800500E50F1000041EB045170BD06F00046AA
:1005C80046EA010140EA020081EA0301B4EB5C0457
:1005D800C2BFD4EB0C0541EA045170BD41F480114F
:1005E8004FF0000E013C00F3AB8014F1360FDEBF74
:1005F800002001F0004170BDC4F10004203C35DA50
:100608000C341BDC04F11404C4F1200500FA05F3D2
:1006180020FA04F001FA05F240EA020001F0004273
:1006280021F0004110EBD37021FA04F642EB0601E9
:100638005EEA430E08BF20EAD37070BDC4F10C0413
:10064800C4F1200500FA04F320FA05F001FA04F2D7
:1006580040EA020001F0004110EBD37041F10001C3
:100668005EEA430E08BF20EAD37070BDC4F12005CE
:1006780000FA05F24EEA020E20FA04F301FA05F236
:1006880043EA020321FA04F001F0004121FA04F2DE
:1006980020EA020000EBD3705EEA430E08BF20EAAE
:1006A800D37070BD94F0000F0FD101F000464000E8
:1006B80041EB010111F4801F08BF013CF7D041EA6A
:1006C800060195F0000F18BF704703F0004652006E
:1006D80043EB030313F4801F08BF013DF7D043EA3F
:1006E8000603704794EA0C0F0CEA135518BF95EAF5
:1006F8000C0F0CD050EA410618BF52EA4306D1D17C
:1007080081EA030101F000414FF0000070BD50EA9A
:10071800410606BF1046194652EA430619D094EA24
:100728000C0F02D150EA013613D195EA0C0F05D10E
:1007380052EA03361CBF104619460AD181EA030162
:1007480001F0004141F0FE4141F470014FF000001A
:1007580070BD41F0FE4141F4780170BD70B54FF0B5
:10076800FF0C4CF4E06C1CEA11541DBF1CEA135535
:1007780094EA0C0F95EA0C0F00F0A7F8A4EB050417
:1007880081EA030E52EA03354FEA013100F088800E
:100798004FEA03334FF0805545EA131343EA1263D7
:1007A8004FEA022245EA111545EA10654FEA00268C
:1007B8000EF000419D4208BF964244F1FD0404F545
:1007C800407402D25B084FEA3202B61A65EB0305A1
:1007D8005B084FEA32024FF480104FF4002CB6EB5E
:1007E800020E75EB030E22BFB61A754640EA0C00DE
:1007F8005B084FEA3202B6EB020E75EB030E22BF1E
:10080800B61A754640EA5C005B084FEA3202B6EB5E
:10081800020E75EB030E22BFB61A754640EA9C001D
:100828005B084FEA3202B6EB020E75EB030E22BFED
:10083800B61A754640EADC0055EA060E18D04FEAAB
:10084800051545EA16754FEA06164FEAC30343EA4B
:1008580052734FEAC2025FEA1C1CC0D111F4801F18
:100868000BD141EA00014FF000004FF0004CB6E711
:1008780011F4801F04BF01430020B4F1FD0C88BFB0
:10088800BCF5E06F3FF6AFAEB5EB030C04BFB6EBBB
:10089800020C5FEA500C50F1000041EB045170BDAE
:1008A8000EF0004E4EEA113114EB5C04C2BFD4EBDB
:1008B8000C0541EA045170BD41F480114FF0000E5F
:1008C800013C90E645EA060E8DE60CEA135594EADB
:1008D8000C0F08BF95EA0C0F3FF43BAF94EA0C0FDE
:1008E8000AD150EA01347FF434AF95EA0C0F7FF453
:1008F80025AF104619462CE795EA0C0F06D152EAA7
:1009080003353FF4FDAE1046194622E750EA41068A
:1009180018BF52EA43067FF4C5AE50EA41047FF49B
:100928000DAF52EA43057FF4EBAE12E780F00040CA
:1009380002E000BF81F0004142001FBF5FEA4103AF
:1009480092EA030F7FEA226C7FEA236C6AD04FEAAF
:100958001262D2EB1363C1BFD218414048404140F4
:10096800B8BF5B42192B88BF704710F0004F40F4A6
:10097800000020F07F4018BF404211F0004F41F4C2
:10098800000121F07F4118BF494292EA030F3FD08E
:10099800A2F1010241FA03FC10EB0C00C3F12003A1
:1009A80001FA03F100F0004302D5494260EB400030
:1009B800B0F5000F13D3B0F1807F06D340084FEA9B
:1009C800310102F10102FE2A51D2B1F1004F40EB90
:1009D800C25008BF20F0010040EA030070474900F8
:1009E80040EB0000013A28BFB0F5000FEDD2B0FA95
:1009F80080FCACF1080CB2EB0C0200FA0CF0AABFB8
:100A080000EBC25052421843BCBFD0401843704755
:100A180092F0000F81F4000106BF80F4000001325B
:100A2800013BB5E74FEA41037FEA226C18BF7FEA32
:100A3800236C21D092EA030F04D092F0000F08BF74
:100A48000846704790EA010F1CBF0020704712F05B
:100A58007F4F04D1400028BF40F00040704712F19A
:100A680000723CBF00F50000704700F0004343F0FF
:100A7800FE4040F4000070477FEA226216BF084635
:100A88007FEA23630146420206BF5FEA412390EAF8
:100A9800010F40F4800070474FF0000304E000BFEE
:100AA80010F0004348BF40425FEA000C08BF70479F
:100AB80043F0964301464FF000001CE050EA010263
:100AC80008BF70474FF000030AE000BF50EA010278
:100AD80008BF704711F0004302D5404261EB410165
:100AE8005FEA010C02BF84460146002043F0B6438A
:100AF80008BFA3F18053A3F50003BCFA8CF2083AAF
:100B0800A3EBC25310DB01FA02FC634400FA02FCB7
:100B1800C2F12002BCF1004F20FA02F243EB0200BE
:100B280008BF20F00100704702F1200201FA02FC20
:100B3800C2F1200250EA4C0021FA02F243EB020013
:100B480008BF20EADC7070474FF0FF0C1CEAD05257
:100B58001EBF1CEAD15392EA0C0F93EA0C0F6FD018
:100B68001A4480EA010C400218BF5FEA41211ED0F6
:100B78004FF0006343EA501043EA5111A0FB0131E2
:100B88000CF00040B1F5000F3EBF490041EAD371B7
:100B98005B0040EA010062F17F02FD2A1DD8B3F133
:100BA800004F40EBC25008BF20F00100704790F0A2
:100BB800000F0CF0004C08BF49024CEA502040EAF4
:100BC80051207F3AC2BFD2F1FF0340EAC2507047BA
:100BD80040F400004FF00003013A5DDC12F1190FF8
:100BE800DCBF00F000407047C2F10002410021FA6A
:100BF80002F1C2F1200200FA02FC5FEA310040F182
:100C0800000053EA4C0308BF20EADC70704792F0FA
:100C1800000F00F0004C02BF400010F4000F013A32
:100C2800F9D040EA0C0093F0000F01F0004C02BF2D
:100C3800490011F4000F013BF9D041EA0C018FE79C
:100C48000CEAD15392EA0C0F18BF93EA0C0F0AD0A2
:100C580030F0004C18BF31F0004CD8D180EA0100C8
:100C680000F00040704790F0000F17BF90F0004F61
:100C7800084691F0000F91F0004F14D092EA0C0F43
:100C880001D142020FD193EA0C0F03D14B0218BFD6
:100C9800084608D180EA010000F0004040F0FE401C
:100CA80040F40000704740F0FE4040F440007047B8
:100CB8004FF0FF0C1CEAD0521EBF1CEAD15392EA37
:100CC8000C0F93EA0C0F69D0A2EB030280EA010C27
:100CD80049024FEA402037D04FF0805343EA1111C0
:100CE80043EA10130CF000408B4238BF5B0042F11E
:100CF8007D024FF4000C8B4224BF5B1A40EA0C00C3
:100D0800B3EB510F24BFA3EB510340EA5C00B3EBF4
:100D1800910F24BFA3EB910340EA9C00B3EBD10FE2
:100D280024BFA3EBD10340EADC001B0118BF5FEA34
:100D38001C1CE0D1FD2A3FF650AF8B4240EBC2505D
:100D480008BF20F0010070470CF0004C4CEA50201E
:100D58007F32C2BFD2F1FF0340EAC250704740F46D
:100D680000004FF00003013A37E792F0000F00F05F
:100D7800004C02BF400010F4000F013AF9D040EADD
:100D88000C0093F0000F01F0004C02BF490011F471
:100D9800000F013BF9D041EA0C0195E70CEAD15369
:100DA80092EA0C0F08D142027FF47DAF93EA0C0F50
:100DB8007FF470AF084676E793EA0C0F04D14B0234
:100DC8003FF44CAF08466EE730F0004C18BF31F0E6
:100DD800004CCAD130F000427FF45CAF31F00043E0
:100DE8007FF43CAF5FE700BF4FF0FF3C06E000BF79
:100DF8004FF0010C02E000BF4FF0010C4DF804CD9C
:100E08004FEA40024FEA41037FEA226C18BF7FEAAB
:100E1800236C11D001B052EA530C18BF90EA010FAD
:100E280058BFB2EB030088BFC81738BF6FEAE1703C
:100E380018BF40F0010070477FEA226C02D15FEAD8
:100E4800402C05D17FEA236CE4D15FEA412CE1D044
:100E58005DF8040B704700BF844608466146FFE70B
:100E68000FB5FFF7C9FF002848BF10F1000F0FBDED
:100E78004DF808EDFFF7F4FF0CBF012000205DF8E6
:100E880008FB00BF4DF808EDFFF7EAFF34BF01206B
:100E980000205DF808FB00BF4DF808EDFFF7E0FF04
:100EA80094BF012000205DF808FB00BF4DF808ED55
:100EB800FFF7D2FF94BF012000205DF808FB00BFB8
:100EC8004DF808EDFFF7C8FF34BF012000205DF89A
:100ED80008FB00BF7BB972B90029BEBF00204FF0E4
:100EE800004106E008BF00281CBF6FF000414FF02A
:100EF800FF3000F075B8ADF1080C6DE904CE00299B
:100F080009DB002B1ADB00F02CF9DDF804E0DDE941
:100F1800022304B07047404261EB4101002B1BDB08
:100F280000F01FF9DDF804E0DDE9022304B04042D7
:100F380061EB4101524263EB43037047524263EB5A
:100F4800430300F00EF9DDF804E0DDE9022304B004
:100F5800404261EB41017047524263EB430300F0AA
:100F680000F9DDF804E0DDE9022304B0524263EB46
:100F78004303704753B94AB9002908BF00281CBF6A
:100F88004FF0FF314FF0FF3000F02AB8ADF1080CF8
:100F98006DE904CE00F0E5F8DDF804E0DDE90223B0
:100FA80004B07047D0B50C4B002206460F46FFF739
:100FB800ABFA00F09FF80446FFF72CFA074B002223
:100FC800FFF7A2FA02460B4630463946FFF7E4F827
:100FD80000F090F82146D0BD0000F03D0000F0413F
:100FE800704700BF4FF0FF3C06E000BF4FF0010C18
:100FF80002E000BF4FF0010C4DF804CD4FEA410C60
:101008007FEA6C5C4FEA430C18BF7FEA6C5C1BD02C
:1010180001B050EA410C0CBF52EA430C91EA030FAD
:1010280002BF90EA020F0020704710F1000F91EA0A
:10103800030F58BF994208BF90422CBFD8176FEAD8
:10104800E37040F0010070474FEA410C7FEA6C5CA6
:1010580002D150EA013C07D14FEA430C7FEA6C5CAD
:10106800D6D152EA033CD3D05DF8040B704700BFD9
:101078008446104662468C461946634600E000BF27
:1010880001B5FFF7B7FF002848BF10F1000F01BDF9
:101098004DF808EDFFF7F4FF0CBF012000205DF8C4
:1010A80008FB00BF4DF808EDFFF7EAFF34BF012049
:1010B80000205DF808FB00BF4DF808EDFFF7E0FFE2
:1010C80094BF012000205DF808FB00BF4DF808ED33
:1010D800FFF7CEFF94BF012000205DF808FB00BF9A
:1010E8004DF808EDFFF7C4FF34BF012000205DF87C
:1010F80008FB00BF4A0011D212F5001211D20DD51B
:101108006FF47873B3EB62520ED44FEAC12343F005
:10111800004343EA505323FA02F070474FF00000AF
:10112800704750EA013002D14FF0FF3070474FF05E
:101138000000704738B50022002304460D46FFF72B
:10114800B1FF28B920462946BDE83840FFF72ABF35
:10115800204605F10041FFF725FF404261EB4101C0
:1011680038BD2DE9F04786468C460846089E154648
:1011780074461946002B40F0C2808542B2FA82F2CA
:1011880045D94AB1C2F1200300FA02FC2EFA03F352
:10119800954043EA0C0C94404FEA154EA8B2BCFBAC
:1011A800FEF8230C0EFB18CC08FB00F943EA0C43AD
:1011B800994528D9EB1808F1FF3704D2994502D987
:1011C800A8F102072B44A3EB0903A4B2B3FBFEFC6E
:1011D8000EFB1C330CFB00F044EA0344A04214D974
:1011E8002C190CF1FF3304D2A04202D9ACF102034E
:1011F8002C44241A43EA07401EB1D440002334602B
:101208007360BDE8F0874746DDE76346F1E792BBC8
:10121800431B01214FEA154EAFB2B3FBFEFC200C75
:101228000EFB1C330CFB07F840EA0343984562D9D0
:10123800EB180CF1FF3004D2984502D9ACF102004A
:101248002B44A3EB0803A4B2B3FBFEFC0EFB1C3338
:101258000CFB07F744EA0344A7424ED92C190CF1BA
:10126800FF3304D2A74202D9ACF102032C44E41B99
:1012780043EA0040C0E7C2F1200320FA03F1954099
:1012880090402EFA03F303434FEA154EAFB2B1FB79
:10129800FEFC0EFB1C10190C0CFB07F841EA004180
:1012A800884504FA02F422D969180CF1FF3004D2F7
:1012B800884502D9ACF102002944A1EB08019BB290
:1012C800B1FBFEFC0EFB1C110CFB07F743EA0143C4
:1012D8009F420ED9EB180CF1FF3104D29F4202D97C
:1012E800ACF102012B44DB1B41EA004192E7604666
:1012F800E3E76146F7E76046A3E76346B7E783425B
:1013080006D916B9002108467BE7C6E900E0F9E7E7
:10131800B3FA83F78FB9834201D3724508D8BEEB7D
:10132800020460EB030301209C461EB9002168E714
:101338003846FAE7C6E9004CF8E7C7F1200CBB408D
:1013480022FA0CF41C432EFA0CF120FA0CF3B840E4
:1013580001434FEA14490EFA07F5B3FBF9F81FFAEF
:1013680084FE09FB18300B0C08FB0EFA43EA004315
:101378009A4502FA07F240D9E31808F1FF3004D27F
:101388009A4502D9A8F102002344A3EB0A0389B2C3
:10139800B3FBF9F809FB183308FB0EFE41EA0341D9
:1013A8008E452CD9611808F1FF3304D28E4502D935
:1013B800A8F10203214443EA0040A0FB0298A1EBF4
:1013C8000E014145CE46434602D306D14D4504D2CF
:1013D800B9EB020E68EB04030138002EA6D0B5EB7A
:1013E8000E0261EB030101FA0CFC22FA07F34CEA46
:1013F8000303F940C6E9003198E74046C5E743468C
:10140800D9E7034613F8012B002AFBD1181A013833
:1014180070470000000000002DE9F047AAB0CA4854
:101428000EF0BDFA002800F05382C8480EF0B7FA53
:10143800002800F05682C6480EF0B1FA002800F0E5
:101448005682C4480EF0ABFA002800F05682C04815
:1014580000F06CFFBC4800F08BFFBC4800F0F4FFC4
:10146800BC4801F05DF84FF0010AB94CA5682B693A
:1014780024AA0B21204698472B6922AA0C21204632
:101488009847B14CA5682B6918AA032120469847AC
:101498002B6912AA0721204698472B6910AA0C210C
:1014A80020469847A94CA5682B690AAA032120461B
:1014B80098472B6904AA072120469847A54CA56898
:1014C8002B6920AA0E21204698472B691EAA0D21B8
:1014D80020469847A04809F0B5FBA04809F0C4FB8E
:1014E8002498FEF7A7FF04460D462598FEF7A2FFAD
:1014F80093A3D3E90023FFF731F902460B462046B0
:101508002946FEF74BFE04460D462698FEF792FF45
:1015180006460F462798FEF78DFF89A3D3E90023D7
:10152800FFF71CF902460B4630463946FEF736FEF1
:1015380006460F462898FEF77DFF8046894629987B
:10154800FEF778FF7EA3D3E90023FFF707F90246E9
:101558000B4640464946FEF721FECDE90201CDE99A
:10156800006722462B467E4809F06CFB2298FEF75E
:1015780061FF04460D462398FEF75CFF70A3D3E98C
:101588000023FFF7EBF802460B4620462946FEF7F4
:1015980005FE02460B46734809F054FB1898FEF7FF
:1015A80049FF04460D461998FEF744FF64A3D3E9A2
:1015B8000023FFF7D3F802460B4620462946FEF7DC
:1015C800EDFD04460D461A98FEF734FF06460F4611
:1015D8001B98FEF72FFF5AA3D3E90023FFF7BEF8A5
:1015E80002460B4630463946FEF7D8FD8046894606
:1015F8001C98FEF71FFF06460F461D98FEF71AFFB8
:101608004FA3D3E90023FFF7A9F802460B4630465B
:101618003946FEF7C3FDCDE90201CDE9008922462E
:101628002B46514809F00EFB1298FEF703FF0446BB
:101638000D461398FEF7FEFE41A3D3E90023FFF7FA
:101648008DF802460B4620462946FEF7A7FD0446BC
:101658000D461498FEF7EEFE06460F461598FEF75F
:10166800E9FE37A3D3E90023FFF778F802460B46D3
:1016780030463946FEF792FD804689461698FEF7B1
:10168800D9FE06460F461798FEF7D4FE2CA3D3E9D9
:101698000023FFF763F802460B4630463946FEF74B
:1016A8007DFDCDE90201CDE9008922462B462F4870
:1016B80009F0C8FA1098FEF7BDFE04460D461198C9
:1016C800FEF7B8FE1EA3D3E90023FFF747F802464A
:1016D8000B4620462946FEF761FD02460B46244884
:1016E80009F0B0FA0A98FEF7A5FE04460D460B98D5
:1016F800FEF7A0FE12A3D3E90023FFF72FF8024656
:101708000B4620462946FEF749FD04460D460C982F
:10171800FEF790FE06460F460D98FEF78BFE08A3CF
:10172800D3E90023FFF71AF802460B46304639463C
:10173800FEF734FD804689461CE000BFAFF3008009
:101748000000000080842E41F40401080805010807
:10175800CC040108E0040108780D01087C0D01089B
:10176800A00D0108D40D0108F40D01082C0E010884
:10177800600E01080E98FEF75DFE06460F460F98AC
:10178800FEF758FE60A3D3E90023FEF7E7FF024601
:101798000B4630463946FEF701FDCDE90201CDE999
:1017A800008922462B465A4809F04CFA0498FEF75D
:1017B80041FE04460D460598FEF73CFE52A3D3E9C8
:1017C8000023FEF7CBFF02460B4620462946FEF7CC
:1017D800E5FC04460D460698FEF72CFE06460F4625
:1017E8000798FEF727FE48A3D3E90023FEF7B6FFC4
:1017F80002460B4630463946FEF7D0FC80468946FD
:101808000898FEF717FE06460F460998FEF712FEDF
:101818003DA3D3E90023FEF7A1FF02460B4630465D
:101828003946FEF7BBFCCDE90201CDE90089224625
:101838002B46384809F006FA1E98FEF7FBFD0446C9
:101848000D461F98FEF7F6FD2FA3D3E90023FEF7F8
:1018580085FF22462B46FEF7A1FC02460B462E4882
:1018680009F0F0F92098FEF7E5FD04460D462198A9
:10187800FEF7E0FD24A3D3E90023FEF76FFF22461D
:101888002B46FEF78BFC02460B46244809F0DAF992
:10189800234B1A68514623480AF066FC224B1A6803
:1018A800514622480AF060FC214B1A6851462148EB
:1018B8000AF05AFC204B1A68514620480AF054FC9A
:1018C8000AF1010A44F62060002108F0CDFECCE5BB
:1018D8001B4B19681B480AF047FC00202AB0BDE8DA
:1018E800F087194B196817480AF03EFCF5E7174BC3
:1018F800196814480AF038FCEFE7154B19681148C5
:101908000AF032FCE9E700BF0000000080842E41A5
:10191800840E0108BC0E0108F00E0108100F010822
:10192800081D00202C0F0108041D0020440F010889
:10193800001D0020640F01080C1D0020800F010805
:10194800F4040108600D010808050108CC04010829
:10195800E00401080000000010B50468E217530114
:1019680043EAD4636101091B63EB02035B0243EAA8
:10197800D1534902091942EB030C4FEA8C1E4EEA77
:10198800916E8B015B1A6EEB0C0E1B1942EB0E026B
:1019980041685B1842EBE172012B72F100011ADB1E
:1019A800D91842EB0200CB1842EB0002110141EAC0
:1019B80013711801C01A61EB0201890041EA9071A4
:1019C8008000154BC01812A3D3E9002341F1000190
:1019D800FFF780FA10BDD91842EB0200CB1842EB92
:1019E8000002110141EA13711801C01A61EB0201EA
:1019F800890041EA90718000084BC01804A3D3E91C
:101A0800002361F10001FFF765FAE3E7AFF3008017
:101A1800D8EF2F0000000000ECF717001408E8FFCB
:101A28002DE9F0470D4616461C46032800F2908023
:101A3800DFE800F00223438CB2F90400C117A4FBCD
:101A4800000304FB0131FEF731FD43A3D3E9002372
:101A5800FEF75AFDFFF76EFB06460C46404A002388
:101A6800FFF738FA28603E4A002330462146FFF740
:101A780031FA6A600020BDE8F087B2F90600C117A4
:101A8800A4FB000304FB0131FEF710FD32A3D3E9E8
:101A98000023FEF739FDFFF74DFB06460C46304A9A
:101AA8000023FFF717FA28602D4A00233046214605
:101AB800FFF710FA6A600020DDE7B2F90800C117E5
:101AC800A4FB000304FB0131FEF7F0FC22A3D3E9D9
:101AD8000023FEF719FDFFF72DFB06460C46204AAA
:101AE8000023FFF7F7F928601D4A002330462146F6
:101AF800FFF7F0F96A600020BDE7A84606EB470348
:101B0800B3F90400C117A4FB000304FB0131FEF77D
:101B1800CDFC11A3D3E90023FEF7F6FCFFF70AFB7F
:101B2800824689460E4A0023FFF7D4F948F8080B85
:101B38000B4A002350464946FFF7CCF96A60013743
:101B4800FFB24546022FD8D9002094E70027F9E7CD
:101B58006FF085008FE700BF05A3923A019D2340EF
:101B680040420F00000000002DE9F0470D461646E0
:101B78001C460438032800F29080DFE800F00223B6
:101B8800438CB2F91000C117A4FB000304FB013118
:101B9800FEF78CFC42A3D3E90023FEF7B5FCFFF760
:101BA800C9FA06460C46404A0023FFF793F9286015
:101BB8003D4A002330462146FFF78CF96A60002031
:101BC800BDE8F087B2F91200C117A4FB000304FBBB
:101BD8000131FEF76BFC32A3D3E90023FEF794FC36
:101BE800FFF7A8FA06460C462F4A0023FFF772F9BA
:101BF80028602D4A002330462146FFF76BF96A60BA
:101C08000020DDE7B2F91400C117A4FB000304FBB0
:101C18000131FEF74BFC22A3D3E90023FEF774FC45
:101C2800FFF788FA06460C461F4A0023FFF752F9C9
:101C380028601D4A002330462146FFF74BF96A60A9
:101C48000020BDE7A84607F1080336F91300C117BD
:101C5800A4FB000304FB0131FEF728FC10A3D3E921
:101C68000023FEF751FCFFF765FA824689460E4AC3
:101C78000023FFF72FF948F8080B0B4A00235046BA
:101C88004946FFF727F96A600137FFB24546022F38
:101C9800D8D9002094E70027F9E76FF085008FE78F
:101CA8006811F16346DF913F40420F0000000000D9
:101CB800B0B582B000AF04464068072A3AD00A2A75
:101CC8007BD0002A74D06D4688B06B4613F11002A1
:101CD8007DD00C2142B10846042901DD424C5C61EB
:101CE800082801DD414898610B2973DD0C243AB1BD
:101CF8000321397100217971B971F9717868186116
:101D080000216FF300016FF341016FF382016FF35C
:101D1800C501042363F38811C4F30A0464F353214F
:101D28006FF31F510023324801F05EFCAD466FF09F
:101D380085002FE01D68E917480140EAD5606A016F
:101D4800521B60EB0100400240EAD2505202521985
:101D580041EB000C4FEA8C1E4EEA926E9001801AFD
:101D68006EEB0C0E401941EB0E015B68C01841EB9D
:101D7800E371012871F100030FDB1E4BC01818A393
:101D8800D3E9002341F10001FFF7A4F801462046FA
:101D980005F0E4F80837BD46B0BD174BC01810A3CE
:101DA800D3E9002361F10001FFF794F80146EEE75B
:101DB8001988204605F042F9ECE71B682BB1012B86
:101DC8000BD101210BF0ACFAE4E70021FAE76FF040
:101DD80000417FE76FF01B0489E76FF00400D9E743
:101DE8003AA3950000000000C0200108A0230108C4
:101DF800DC0701089DD14A00632EB5FF00000000F2
:101E080010B50468E217530143EAD4636101091B62
:101E180063EB02035B0243EAD1534902091942EB1F
:101E2800030C4FEA8C1E4EEA916E8B015B1A6EEB27
:101E38000C0E1B1942EB0E0241685B1842EBE17273
:101E4800012B72F100011ADBD91842EB0200CB1802
:101E580042EB0002110141EA13711801C01A61EB4B
:101E68000201890041EA90718000154BC01812A345
:101E7800D3E9002341F10001FFF72CF810BDD91870
:101E880042EB0200CB1842EB0002110141EA137148
:101E98001801C01A61EB0201890041EA90718000C3
:101EA800084BC01804A3D3E9002361F10001FFF730
:101EB80011F8E3E7AFF30080D8EF2F00000000002F
:101EC800ECF717001408E8FF2DE9F0470D46164611
:101ED8001C46032800F29080DFE800F00223438CC0
:101EE800B2F90400C117A4FB000304FB0131FEF79B
:101EF800DDFA43A3D3E90023FEF706FBFFF71AF93F
:101F080006460C46404A0023FEF7E4FF28603E4A96
:101F1800002330462146FEF7DDFF6A600020BDE859
:101F2800F087B2F90600C117A4FB000304FB0131D6
:101F3800FEF7BCFA32A3D3E90023FEF7E5FAFFF770
:101F4800F9F806460C46304A0023FEF7C3FF28601E
:101F58002D4A002330462146FEF7BCFF6A60002068
:101F6800DDE7B2F90800C117A4FB000304FB013147
:101F7800FEF79CFA22A3D3E90023FEF7C5FAFFF780
:101F8800D9F806460C46204A0023FEF7A3FF28602E
:101F98001D4A002330462146FEF79CFF6A60002058
:101FA800BDE7A84606EB4703B3F90400C117A4FB35
:101FB800000304FB0131FEF779FA11A3D3E90023EA
:101FC800FEF7A2FAFFF7B6F8824689460E4A0023C2
:101FD800FEF780FF48F8080B0B4A00235046494695
:101FE800FEF778FF6A600137FFB24546022FD8D95D
:101FF800002094E70027F9E76FF085008FE700BF1E
:1020080005A3923A019D234040420F0000000000C2
:102018002DE9F0470D4616461C460438032800F201
:102028009080DFE800F00223438CB2F91000C1175A
:10203800A4FB000304FB0131FEF738FA42A3D3E9FD
:102048000023FEF761FAFFF775F806460C46404A8A
:102058000023FEF73FFF28603D4A00233046214613
:10206800FEF738FF6A600020BDE8F087B2F9120079
:10207800C117A4FB000304FB0131FEF717FA32A3D2
:10208800D3E90023FEF740FAFFF754F806460C465A
:102098002F4A0023FEF71EFF28602D4A00233046F2
:1020A8002146FEF717FF6A600020DDE7B2F9140049
:1020B800C117A4FB000304FB0131FEF7F7F922A3C3
:1020C800D3E90023FEF720FAFFF734F806460C465A
:1020D8001F4A0023FEF7FEFE28601D4A00233046F3
:1020E8002146FEF7F7FE6A600020BDE7A84607F123
:1020F800080336F91300C117A4FB000304FB0131E0
:10210800FEF7D4F910A3D3E90023FEF7FDF9FFF792
:1021180011F8824689460E4A0023FEF7DBFE48F88E
:10212800080B0B4A002350464946FEF7D3FE6A6067
:102138000137FFB24546022FD8D9002094E700277F
:10214800F9E76FF085008FE76811F16346DF913F8B
:1021580040420F0000000000B0B582B000AF044656
:102168004068072A3CD00A2A7DD0002A76D06D46DE
:1021780088B06B4613F1100200F08E800C2142B13A
:102188000846042901DD4C4C5C61082801DD4B48F8
:1021980098610B2940F383800C243AB103213971EB
:1021A80000217971B971F9717868186100216FF3AC
:1021B80000016FF341016FF382016FF3C50104233E
:1021C80063F38811C4F30A0464F353216FF31F51B6
:1021D80000233B4801F008FAAD466FF085002FE078
:1021E8001D68E917480140EAD5606A01521B60EB97
:1021F8000100400240EAD2505202521941EB000C51
:102208004FEA8C1E4EEA926E9001801A6EEB0C0E0D
:10221800401941EB0E015B68C01841EBE3710128DE
:1022280071F100030FDB274BC01821A3D3E900236A
:1022380041F10001FEF74EFE0146204605F090FFF1
:102248000837BD46B0BD204BC01819A3D3E90023F9
:1022580061F10001FEF73EFE0146EEE719882046CF
:1022680006F064F8ECE71B68072B1BD8DFE803F0DF
:1022780004101A06080A0C0E00210AE0032108E0DF
:10228800042106E0052104E0062102E0072100E020
:1022980001210BF0FAFBD3E76FF000416FE76FF015
:1022A8001B047AE76FF00400CAE700BFAFF30080B1
:1022B8003AA3950000000000C02001087C26010810
:1022C800E40701089DD14A00632EB5FF08B583686D
:1022D800DB683A219847024A13680133136008BD46
:1022E8000C1D002008B58368DB683A219847024A2C
:1022F80013680133136008BD081D002008B5836802
:10230800DB683A219847024A13680133136008BD15
:10231800041D002008B58368DB683A219847024A03
:1023280013680133136008BD001D002010B584B088
:102338000446642302930022039202AB3A2109F077
:10234800FFFD00280CDB0123ADF804300B23ADF8AA
:102358000630054A01A9204609F0E9FD04B010BD80
:10236800024809F001FFF9E7ED220008280B0108EF
:1023780010B588B004460023029302AB0A22032159
:1023880009F0DEFD002839DBD023069300220792EE
:1023980006AB0321204609F0D3FD002833DB9C233C
:1023A8000493214B059304AB07220321204609F02F
:1023B800C7FD00282BDBD02306930022079206AB2B
:1023C8000721204609F0BCFD002824DB04230493E0
:1023D800164B059304AB07221146204609F0B0FDC1
:1023E80000281CDB0123ADF804300323ADF80630C8
:1023F8000F4A01A9204609F09AFD02E00D4809F0AC
:10240800B3FE08B010BD0C4809F0AEFEF9E70B4862
:1024180009F0AAFEF5E70A4809F0A6FEF1E709481F
:1024280009F0A2FEEDE700BFA0D40D003A8B05002D
:1024380005230008540B01087C0B0108B40B0108A4
:10244800E40B0108180C010810B588B004460023F5
:10245800029302AB0A22032109F072FD002839DB3E
:10246800D02306930022079206AB0321204609F0E9
:1024780067FD002833DB9C230493214B059304ABB1
:1024880007220321204609F05BFD00282BDBD0231F
:1024980006930022079206AB0721204609F050FD5B
:1024A800002824DB04230493164B059304AB07226E
:1024B8001146204609F044FD00281CDB0123ADF835
:1024C80004300323ADF806300F4A01A9204609F06D
:1024D8002EFD02E00D4809F047FE08B010BD0C487B
:1024E80009F042FEF9E70B4809F03EFEF5E70A4815
:1024F80009F03AFEF1E7094809F036FEEDE700BFBA
:10250800A0D40D003A8B05001D230008440C0108D7
:102518006C0C0108A00C0108CC0C0108000D010886
:1025280010B584B004460A2302930022039202AB3A
:102538003A2109F005FD00280CDB0123ADF8043031
:102548003A23ADF80630054A01A9204609F0EFFC08
:1025580004B010BD024809F007FEF9E7D5220008CB
:102568002C0D01082DE9F04F91B005920293134606
:1025780002F004020092C3F3C20210F003030193B5
:1025880040F02D8280468A460132041D00284FD033
:10259800B8F1000F05D0A4EB08030433534500F24B
:1025A8002182029B5D1E019B0493069303930026E0
:1025B8004FF0FF3B0427B946B8F1000F01D0029B4A
:1025C8002360531E0793002A40F35F81059B13F095
:1025D800020228D00120A4EB08018B081AB1B1F53A
:1025E800007F80F0058203990F2900F20482B8F178
:1025F800000F00F06281DBB201F140026A4402F888
:10260800103C02F820BC002800F0538163F07F03DF
:1026180001F140026A4402F8103C049B0133049320
:10262800039B0133039304340022CC4640463DE02B
:1026380001F0070A5444CAF1080AA9E7002634E061
:10264800002632E0002630E00827BC462DE0252988
:102658002BD10BF1010B01260427BC4625E04729A5
:10266800EED82A2914D32A39C9B24FF0010E0EFA2E
:1026780001F14FF6DA7E11EA0E0F16D111F0625F02
:1026880040F0C18011F0010F40F08C8000260CE072
:10269800252903D10BF1FF3B002606E001D90026CE
:1026A80003E0202901D02329CCD11D466B1C697871
:1026B800002900F01B81002EC9D07A29BED84C29E8
:1026C800CDD34C392E2961D80FF2040E5EF821F0D3
:1026D800B3260008952700089527000895270008C5
:1026E80095270008952700089527000895270008D2
:1026F80095270008952700089527000895270008C2
:10270800A5270008952700089527000895270008A1
:1027180095270008952700089527000895270008A1
:10272800952700080F28000895270008A527000806
:10273800A52700080F2800080F2800080F28000800
:10274800B3260008A5270008512600089527000889
:10275800B3260008952700086B280008A52700085D
:102768006B2800089527000895270008732800089B
:102778009F270008A5270008952700089527000827
:10278800A5270008952700089927000800268CE748
:102798000427BC4689E70427BC4686E729786C29C4
:1027A80025D000263C44013CB4FBF7F407FB04F4B5
:1027B800254620B1211A6144514500F21681002AAC
:1027C80058D1BCF1040F00F08980BCF1080F40F02B
:1027D80015811A99073121F0070101F108051A95A9
:1027E800D1E9008908B1C4E9008908345DE713F824
:1027F800021C6C2903D000260427BC46D2E7002619
:102808000827BC46CEE729784C291AD01A990731EF
:1028180021F0070101F108061A96D1E9006707348B
:1028280024F0070440B1211A0831514513D82978FA
:102838004C2913D0C4E90067083400260827BC4691
:1028480033E71A99073121F0070101F108061A96B2
:10285800D1E90067E3E76FF01B00BDE0C4E900675A
:10286800EAE700260427BC469CE7324600260427F0
:10287800BC4697E72C46E14680461A9A111D1A91E4
:1028880012680292079A1D4696E6624B029A9A428D
:1028980004D3614B9A420AD3002300E00023002BA3
:1028A8007FF494AE059B03F00202002093E6012317
:1028B800F5E7069B01330693B2E610B10AF1010A67
:1028C800AEE6009B13B10AF1020AA9E60298FEF7E8
:1028D80098FD00EB0A0303F1020AA1E61A990D1DFF
:1028E8001A95096800B121600434DEE68046231A8F
:1028F800B3F5806F80F0858090B1002202609B085C
:102908000370009B83B1069BC370049B88F8023058
:102918001BBB019DDDF80C90DDF810B0029F3DE077
:102928005344A3F1080057E0069B4370EDE70133D9
:102938009842EED903F140026A4412F8101C12F9C9
:10294800102C002AF3DA01F07F01A4EB080201320F
:10295800524559D804F8011BE9E7019B0398E7E7BA
:10296800009B43B305F140036B4413F8203C04F883
:10297800013B019EA4EB080333440133534546D879
:1029880005F140036B4413F8103C04F8013B324650
:10299800394620460DF0C3FB34440135A94519D901
:1029A800BBF1000FDCD005F140036B4413F9103C78
:1029B800002BD5DAF1E705F140036B4413F8103C1E
:1029C80058F82370002248F823203846FEF719FDEE
:1029D800461CCFE7A4EB080011B0BDE8F08F6FF0FC
:1029E8000D00F9E76FF01B00F6E76FF01B00F3E747
:1029F8006FF01500F0E76FF01500EDE76FF01500C8
:102A0800EAE76FF01500E7E76FF01B00E4E76FF007
:102A18001B00E1E7F40201086C2C01082DE9F04FD6
:102A280097B000AF8346BA613B61D7F88030C3F3F3
:102A3800C0033B62F96011B909F00EFBF8609BF81E
:102A48000260B14636B1D7F8803013F0010F0DD1CE
:102A5800002300E000239BF803207A6242B1D7F8F4
:102A6800802012F0020F22D1002202E00123F2E7B7
:102A7800002202B9EBB19BF80050AA00BA60DBF85B
:102A880004207A610BEB8505BA69F2B1002B40F09E
:102A98000481B9F1000F00F00F81D7F8803013F0EE
:102AA800040F40F00D810020F8610646F9E001228C
:102AB800DFE7BB691BB13A69F96858469847FC6873
:102AC80020465C37BD46BDE8F08FFC68E3B94D444D
:102AD80000233B6123E00444013501364E451AD2F8
:102AE8002A7800235BF822201946B86909F0C9FA48
:102AF800BAF1000FEFD0D7F888309845EBD22AF812
:102B0800180008F10108E6E70026C7F81C80B0465F
:102B1800D7F884A0E2E7C7F81080D7F81C80D7F868
:102B2800803003F00503FB604FF0000AA146C7F8A8
:102B38001CB09CE000253B6A7BB9002D79D0D7F802
:102B4800803013F0010F79D1FB68002B6FD102237D
:102B5800A9EB030988E00125EDE75946786909F0F2
:102B6800D6FA0028E9D06C46002387F82C300223D7
:102B780087F82D308AB0694611F1100237D0122536
:102B88001AB1042D01DDB24B4B61002387F82830C0
:102B9800022387F829306ABB112D45DD122362B163
:102BA800042087F82C00002087F82D0087F82E00D5
:102BB800012087F82F00F86A08616FF300086FF3A7
:102BC80041086FF382086FF3C508022161F3881882
:102BD800C3F30A0363F353286FF31F5800234146D6
:102BE8009C4800F001FDA546A9F102093CE06FF000
:102BF8000045C5E72B46082D01DD786988610C2B57
:102C080001DDC1F81CB001F12003002009E000F14A
:102C1800300C07F1280EF4441CF830CC03F801CB33
:102C280001300128F3D9B7E76FF01B03B7E7012399
:102C38008EE7D7F8803013F0020F15D00023224614
:102C48001946B86909F01DFAD7F8843053B13B69C1
:102C5800D7F88820934205D2D7F8842022F81300A9
:102C680001333B61013881440AF1010A35467B6A28
:102C78009A4510D22E4616F802BB6B78FA6952F8BC
:102C88002340754B9C42FFF455AF744B9C42FFF4B4
:102C980062AF00254FE74C4612E707F144000023D6
:102CA800FB6118B14A4629460DF039FA4D444FF0F8
:102CB8000008C7F804901EE00020F8610646F0E717
:102CC800FE6107F134000026EBE700253B6A33BBC1
:102CD800002D3BD0D7F8803013F0010F26D0731C9D
:102CE80006F1300207F12801561806F8149CDEB2E6
:102CF80008F1010825467B6A98454AD22C4614F803
:102D080002AB95F801905BF82930534A9342DCD323
:102D1800524A934201D30025D8E70125D6E7514608
:102D2800786909F0F4F90028D2D0E1E7D7F88030C3
:102D380013F0040FDCD0FA69531C303207F1280174
:102D48000A4402F8249CDBB2FB61D1E7D7F8803053
:102D580013F0020F09D0731C06F1300207F12801A5
:102D6800561806F8149CDEB2C2E7F869431C00F155
:102D7800300107F128028A1802F824AC0246023210
:102D8800D2B2FA6107F1580252FA83F303F8249C8D
:102D9800AEE7D7F804909BF8003087F854309BF8DA
:102DA8000130334487F85530D7F8803013F0020FDC
:102DB8000ED1FB69C3F3470387F85730D7F8803043
:102DC80013F0010F06D113F0040F3FD1002302E0E6
:102DD8000023F1E7002387F85630DBF8000038635A
:102DE800786DCBF80000D7F810804246B96858468D
:102DF800D7F818A0D047041EFFF662AE386BCBF8A0
:102E08000000C7F810804246F96907F13400D0473E
:102E1800002856DB04EB0008B96849447B6A01EBDB
:102E28004301D7F810904A46FB68591A2846D047FC
:102E3800041EFFF645AE08EB04054FF000087E625D
:102E4800C7F820B05646D7F884B01EE0FB69C2E741
:102E5800980F0108EC070108F40201086C2C01081E
:102E68004FF0000A4A46012107F12C00B04700281C
:102E780029DB0544534622464946304609F001F904
:102E8800002822DB054408F101087B6A984511D225
:102E980008F1300307F12802134413F8143C87F8AB
:102EA8002C303A6A52F82340BBF1000FD8D03BF8D7
:102EB80018A0D7E73A6900210846BB6998472C460D
:102EC800FEE50446FCE50446FAE50446F8E500BFDD
:102ED800014B1860704700BF0000002080B5054610
:102EE8000E461746984607F02DFC03460DF0F4F9F8
:102EF8000446DFF8189049F8003042463946304613
:102F0800A84754F8090001F091FA00BF0800000032
:102F1800064B1A6842F400721A601A6842F480621A
:102F28001A60034B034A1A6000207047003C0240B5
:102F3800700000200024F400034A536823F00203C1
:102F480053600020704700BF002004E038B50546F4
:102F58000B4C00E010340B4B9C420FD263685B793A
:102F6800002BF7D02946204609F014FC0028F1D0A0
:102F780023681B68294620469847EBE738BD00BF01
:102F88003C0801084C08010870B506460D46084C77
:102F980004E02A463146204698471034054B9C42A7
:102FA80004D223689B69002BF3D1F6E770BD00BFFC
:102FB8003C0801084C08010808B50CF048FF00223D
:102FC800431819D213440D4AA2FB03CE2EF0030C6A
:102FD8000CEB9E0CA3EB0C03C01A61F100014FF03F
:102FE800CC3300FB03F302FB0133A0FB02021344C2
:102FF800400840EAC37008BD0122E3E7CDCCCCCC41
:103008002DE9F041074605460AE007EA0807144B90
:1030180003EB06135B6804221968204600F0B6FA31
:10302800D5B195FAA5F6B6FA86F60D4C04EB06145A
:103038000123B3406FEA030825EA0305237B002B2D
:10304800EED03301064AD3581B69002BDDD0204649
:1030580098470028E4D1D8E73846BDE8F08100BF9A
:103068003C0801082DE9F04180460F46204BBFF38C
:103078005B8F53E8005F6A1C43E800210029F8D100
:10308800BFF35B8F002D2FD11A4C002607E0636831
:1030980004221968204600F079FA01361034164BDC
:1030A8009C4213D2237B002BF8D02368DB680BB13A
:1030B8002046984723681B69002BE8D0204698478C
:1030C8000028E4D00123B3401D43E6E7B8F1000F20
:1030D8000BD055B12846FFF793FF0546002FF8D0CF
:1030E8000A2009F059FBF4E700252846BDE8F081DD
:1030F800241D00203C0801084C08010808B5064BAF
:10310800186018B1054B1B68092B00DC08BD044882
:1031180007F01EFBFAE700BF181D0020201D002045
:10312800DC00002008B5024807F012FB08BD00BF0C
:10313800DC00002030B589B000220F490F480CF0A0
:1031480096FE0F4D00220023CDE9062300240494A7
:103158000E2303930294019400940A4B4FF4407297
:10316800094928460CF073FC0849284606F0C8FEB1
:10317800204609B030BD00BF2D310008381B0020A3
:1031880080160020ED340008401F00205010010870
:10319800014B53F8200070476C10010848B108B57E
:1031A800054A1060054B1960084600F0D1FC002064
:1031B80008BD6FF01500704704000020141D0020A2
:1031C80008B5054B1B781BB1034B01221A7008BDCB
:1031D800024807F0BDFAF7E70C1F0020DC000020CA
:1031E8000D4BBFF35B8F53E8001F013143E800121A
:1031F800002AF8D1BFF35B8F00B97047074BBFF3C4
:103208005B8F53E8001F013943E80012002AF8D108
:10321800BFF35B8FF1E700BF1C1D0020201D0020BD
:10322800064B00200146BFF35B8F53E8000F43E8CD
:103238000012002AF9D1BFF35B8F70471C1D0020D4
:1032480038B5FFF7EDFF0546094C00E01034094B8F
:103258009C420BD263685B79002BF7D023685B68CC
:10326800002BF3D0294620469847EFE738BD00BF2A
:103278003C0801084C080108034B18680028D4BF13
:1032880000200120704700BF1C1D002010B5044C11
:103298000449204609F0CDF8034B1C6010BD00BF5F
:1032A800A000002058100108101D002008B50023B8
:1032B800064A1370064A1360064A13604FF47A717F
:1032C8000548FFF76BFFFFF7E1FF08BD0D1F002062
:1032D8001C1D0020201D0020C12F000808B5014634
:1032E800014809F069FA08BDA000002008B50248A5
:1032F80009F083F908BD00BFA000002008B5014609
:10330800024B186809F05EFA08BD00BF101D0020C6
:1033180008B5024809F05AFA08BD00BFA00000200D
:1033280010B582B000220023CDE900232C4B187879
:1033380008B902B010BD684609F060FA044688B1C1
:10334800284BBFF35B8F53E8001F013943E8001295
:10335800002AF8D1BFF35B8F2046FFF7F7FD204620
:10336800FFF7CCFFFFF788FF58B91F4A1368516869
:1033780013F57A7341F1000113605160FFF7C8FF3C
:10338800D7E70CF064FD0022431827D21344174AEC
:10339800A2FB034C2CF0030404EB9C041B1BC01A77
:1033A80061F100014FF0CC3300FB03F302FB013362
:1033B800A0FB02021344400840EAC3705B080A49B4
:1033C8000A684968801A63EB010340F2E9329042C7
:1033D80073F10003C9D3FFF733FFC6E70122D5E72E
:1033E8000C1F0020201D0020301B0020CDCCCCCC91
:1033F8000F4B1B7803B1704710B500210120FFF770
:1034080031FE0C4C00E010340B4B9C4208D2636830
:103418005B79002BF7D023689B6820469847F2E732
:10342800FFF77EFF0028FBD1014B01221A7010BD67
:103438000D1F00203C0801084C08010810B582B097
:103448001B4BBFF35B8F53E8002F511C43E8001060
:103458000028F8D1BFF35B8F164B1B7863B9164B66
:103468001B68BBB1C2B1092A14D114480CF00BFD7A
:10347800134807F06DF90DE04FF01003EFF31184D6
:1034880083F31288BFF36F8FFFF74AFF84F3118825
:10349800BFF36F8F02B010BD00220023CDE90023D7
:1034A80042F210720023054807F082FBF2E700BFE2
:1034B800201D00200D1F0020181D0020381B002093
:1034C800DC00002010B50446044B1B689847A06038
:1034D8002146034809F096F910BD00BF04000020FA
:1034E800A00000202DE9F04100210846FFF7BAFDB1
:1034F800804650B14FF4FA7600270CF0EDFE154BDC
:103508001858FFF7FBFD002515E04FF0FF364FF088
:10351800FF37F2E74046FFF773FD804670B94FF07A
:10352800FF364FF0FF3709E02C4632463B460A4843
:1035380007F036F92546B8F1000FEBD1FFF7F0FE9A
:1035480004460028F6D1002DEED000210846FFF7EA
:103558001BFDEAE708000000DC0000200248034BDE
:10356800C01AC008704700BF3C080108CC07010812
:1035780010B50C46FFF7F2FFA04203D9024B53F8EF
:10358800340010BD0020FCE7CC07010808B5094B42
:10359800C31A1B110133D0F804C08CF804304368F7
:1035A8009A7143681960436801225A71FFF708FE4F
:1035B80008BD00BF3C08010800B589B00592069314
:1035C8000023079362B1074A0C9B02930B9B01935C
:1035D8000A9B009305ABFFF721FA09B05DF804FBDD
:1035E8000022F1E71DC800082DE9F04F8BB004AFA9
:1035F80005461E468846C1F34A24002C00F08980FF
:1036080091460022FA603A617A6104230293FB181A
:1036180001930A23009307F10C0321464846FFF75C
:10362800FDF9B0F5006F58D3D9F804106D460023A2
:103638003B7302237B738AB004AC14F1100217D0D9
:1036480012201AB1042801DD3B4B636100233B7053
:1036580002237B70CAB10346082800DDA1610C2B48
:1036680002DD40F2FF73E36104F1200300210AE068
:103678006FF00040E5E701F118063E4416F8186CB3
:1036880003F8016B01310129F5D9112822DD122334
:1036980042B10421397300217973B9730121F97397
:1036A800F868206100216FF300016FF341016FF3A7
:1036B80082016FF3C501022060F38811C3F30A0386
:1036C80063F353210023C1F313011C4809F000F9E7
:1036D800AD462DE06FF01B03DAE760F35328C0F323
:1036E8000A0A0AEB1850173020F007008008FFF785
:1036F800F5FD8346B0B104230293FB1801930A2316
:103708000093534600F1100221464846FFF754FF44
:1037180008E004EB1154173424F00704A008FFF75D
:10372800DDFD8346334642462946584609F088F867
:103738001C37BD46BDE8F08F8C1001080C08010845
:103748000EB400B582B0014603AB53F8042B0193C5
:10375800034801F0C5F902B05DF804EB03B0704707
:1037680029CA000830B585B011F0440F05D01A4BAE
:103778001C6834B9002005B030BD1849FFF7E0FFD8
:10378800F9E7174B1968B2FBF1F1B1FBF4FC154AE4
:10379800A2FB0C32D20A4FF4616E0EFB12CE124B12
:1037A800A3FB0E535B0904FB1C114FF47A7C0CFB42
:1037B80001F1B1FBF4F504FB15110CFB01F1B1FBB0
:1037C800F4F102910195C3EB0311AEEB8101009175
:1037D8000649FFF7B5FFCEE72C1D0020CC100108E5
:1037E800281D0020C5B3A29189888888D8100108AF
:1037F80061B108B52AB1064A52F8232012B9054A20
:1038080000E0044A0449FFF79BFF08BD704700BF6A
:103818007C110108F4100108FC1001082DE9F041A1
:1038280005461746069EDDF81C8081B900242EB196
:10383800324611492846FFF783FF0444B8F1000FC8
:1038480014D06FB1099B042B13D00C4909E00C4B21
:10385800099A53F822200B49FFF772FF0446E6E75E
:10386800064942462846FFF76BFF04442046BDE858
:10387800F0810549F5E700BF14110108041101089A
:10388800901101080C110108001101082DE9F04FF1
:1038980087B005460C46049205939DF84C7001F0DC
:1038A800020B01F0010AC1F3C00801F4807908F0A5
:1038B800AFFF18B3024616492846FFF741FF0646F0
:1038C800BBF1000F1CD13A465146284609F068F86A
:1038D800B9F1000F01D0002311930397129B0293B3
:1038E800119B0193109B00930023049A414628469C
:1038F800FFF794FF304407B0BDE8F08F0026DFE7FC
:10390800059A21462846FFF72DFF0644DBE700BF4E
:103918001811010811F0100F0BD108B511F0200F84
:1039280003D00449FFF70CFF08BD0349FFF708FF60
:10393800FAE770470C0F01081C1101082DE9F04146
:1039480005460F46164698460699FFF7E3FF0024FA
:10395800444505DA24492846FFF7F2FE0134F7E723
:10396800002409E020492846FFF7EAFE0BE01F493A
:103978002846FFF7E5FE01340F2C0CDC002C02DD95
:1039880014F0070FEED0B442F1D23A5D1849284638
:10399800FFF7D6FEEFE717492846FFF7D1FE0024C8
:1039A80009E011492846FFF7CBFE0BE012492846EB
:1039B800FFF7C6FE01340F2C13DC002C02DD14F0D7
:1039C800070FEED0B44207D23A5D0C4B9B5C13F064
:1039D800970FEBD12E22E9E703492846FFF7B0FEFF
:1039E800E8E7BDE8F08100BF1011010828110108BF
:1039F800201101082C110108301101085D2B010864
:103A08002DE9F04184B004469DF82C500C9F0E9E81
:103A180095B9012B1ED019484FF0000827B13B4635
:103A28002246174908F043FBC6B905BB204608F0F3
:103A3800EAFF04B0BDE8F08103950A98029001936B
:103A480000920B4600220F992046FFF71FFF804681
:103A58000C48E3E70B484FF00008DFE70F9B0093A3
:103A6800434632460D99204608F0B2FFDDE72A4664
:103A78000F99204608F0A0FFD8E700BF61CA0008E8
:103A8800E94A000829CA00082DE9F04387B006462C
:103A98000C469046D1F808900F88C7F3821708782B
:103AA800C0F3C2004B6833B11249591A41F3CF0130
:103AB80000291ADA0023214651F8105BC5F34A257C
:103AC8006288C2F30B12481905B90021CDF8148099
:103AD80004920390029101970022009249463046D1
:103AE800FFF78EFF07B0BDE8F083FFF741FD0346FF
:103AF800E1E700BFCC07010870B582B0044605684D
:103B080042F20F738B4228BF0B460E4A05216846C6
:103B180007F0CAF8064663685B680B220A4928461C
:103B280008F031FF63685B6832466946284608F04A
:103B38002AFF63685B681B220449284608F023FFB4
:103B480002B070BDB02501085011010834110108F8
:103B5800074B01221A6004E04008054A13685B001D
:103B68001360044B9842F7D8034B1860704700BFA6
:103B7800281D002040420F002C1D002070B506466D
:103B88000D46002405E0315D044883685B6898476A
:103B98000134AC42F7D3284670BD00BF9004010839
:103BA800014B036000207047F811010808B5FCF7C5
:103BB80077FF0249FDF77CF808BD00BF0000C84246
:103BC8002DE9F04182B000AF0446D0F800E0D0F80B
:103BD80004C085686E468AB06B4613F1100200F087
:103BE800888014218AB10846042903DDDFF81C8186
:103BF800C3F81480082801DDC3F818E00C2801DD9B
:103C0800C3F81CC0102800DD1D62132974DD1425BB
:103C18003AB10521397100217971B971F971786862
:103C2800186100216FF300016FF341016FF3820106
:103C38006FF3C501012363F38811C5F30A0565F322
:103C480053216FF31F5100233148FFF7CDFCB546D0
:103C5800D4F80CC026696569E8468AB06B4613F14A
:103C680010024CD0142182B10846042903DDDFF884
:103C7800A4E0C3F814E0082801DDC3F818C00C2834
:103C880000DDDE61102800DD1D6213293ADD1425F0
:103C98003AB10521397100217971B971F9717868E2
:103CA800186100216FF300016FF341016FF3820186
:103CB8006FF3C501012666F38811C5F30A0565F39C
:103CC80053216FF31F51124D00232846FFF78CFC38
:103CD800C546E369104A3146284608F007FEA3693D
:103CE8000E4A3146284608F001FE0837BD46BDE8B1
:103CF800F0816FF0004175E76FF01B0588E76FF002
:103D08000041B0E76FF01B05C2E700BFF8110108DA
:103D18002C08010828120108581201086812010825
:103D280008B5034B1B68984700F048F808BD00BF6A
:103D38001000002030BFFFF7FDBF00BF38B50446B4
:103D4800084D2A4608490CF0EAF90848431E2B4456
:103D5800B3FBF0F3064A002100FB03400CF0EDF939
:103D680038BD00BF000000009008010801000000F5
:103D78000400000070B505460C480D4A0244013A9B
:103D8800B2FBF0F20B4B0C4C1C44013CB4FBF3F4BB
:103D980004FB03F300FB02340E1B3046FFF7CEFF93
:103DA800083EC5F8A46004F1080070BD01000000D9
:103DB800000000000400000004000000044B9968A3
:103DC8005869884203D003494FF080520A6070470F
:103DD800D41E002004ED00E081690D4B5A6942F4BD
:103DE80080725A61BFF34F8FBFF36F8F31F8021C97
:103DF8005A6922F480725A61BFF34F8FBFF36F8FF5
:103E08004DF60273994201D0002070470120704797
:103E180000ED00E04FF0000C83F800C002F07F4C8A
:103E2800BCF17F4F14D102F00C0CBCF1080F04D088
:103E380012F0080F09D00846704708B5054A012155
:103E4800054808F049FD002008BD01221A70704796
:103E580000207047981201082C08010808B52B4A61
:103E680001212B4808F038FD2A4B9B6A13F0007F8C
:103E780021D11D20274B9B6A13F0807F22D1254B2F
:103E88009B6A13F4002F24D1224B9B6A13F4802FD2
:103E980026D1204B9B6A13F4003F28D11D4B9B6A07
:103EA80013F4803F2AD11B4A936A6FEA03436FEAEF
:103EB8001343936208BD184A0121154808F00CFD08
:103EC8001E20D7E7154A0121114808F005FD1F20DB
:103ED800D5E7134A01210E4808F0FEFC2120D3E75C
:103EE800104A01210A4808F0F7FC2220D1E70E4ABF
:103EF8000121074808F0F0FC2320CFE70B4A0121F5
:103F0800034808F0E9FC2420CDE700BFC4120108EB
:103F18002C08010800ED00E0DC120108F01201088D
:103F28000C1301082C13010854130108701301081D
:103F380008B500230B70034A0121034808F0CCFCA4
:103F480008BD00BF9C1301082C08010890B583B078
:103F580000AF0F2923DC2F4C103900233B710223BB
:103F68007B718AB0EC461CF110021AD0122022B1E3
:103F7800042802DD284BCCF8143000233B700223C0
:103F88007B70E2B10346082801DDCCF818400C2B01
:103F980001DDCCF81C100CF1200300210DE01F4CB2
:103FA800DAE76FF00040E2E701F1080404EB070EDE
:103FB8001EF808EC03F801EB01310129F4D91128A6
:103FC80024DD12234AB10421397100217971B971B4
:103FD8000121F9717868CCF8100000216FF3000115
:103FE8006FF341016FF382016FF3C501012060F3A4
:103FF8008811C3F30A0363F353216FF31F5100239E
:104008000748FFF7F1FA0C37BD4690BD6FF01B0368
:10401800D8E700BFC0130108F4130108D81301083A
:104028002C080108F8B505460F461446374A012101
:10403800374808F051FC374B9B6A13F4805F25D151
:104048001626344B9B6A13F4006F26D1314B9B6ABA
:1040580013F4007F28D12F4B9B6A13F4806F3FD154
:104068002C4B9B6A13F4807F41D12A4B9B6A13F433
:10407800005F43D1274A936A43F47F439362012147
:1040880028460AF03BF820703046F8BD224A012144
:104098001F4808F021FC1726D3E7204A01211C48B5
:1040A80008F01AFC1826D1E71D4A0121184808F023
:1040B80013FC184A936B926A12F4004F01D1192627
:1040C800C9E7184A0121124808F010FC37B1114A13
:1040D800936A23F4004393621926BCE71926BAE7CA
:1040E800114A01210A4808F0F7FB1A26B8E70F4AD7
:1040F8000121074808F0F0FB1B26BBE70C4A012109
:10410800034808F0E9FB1C26B4E700BF08140108BF
:104118002C08010800ED00E02014010834140108FF
:1041280048140108641401087C1401089814010853
:10413800B01401082DE9F04104460F461546464AD9
:104148000121464808F0C8FB454B9B6A13F0100F45
:104158003CD11026424B9B6A13F0080F3DD1404BCF
:104168009B6A13F0020F3FD16FF015083C4B9B6A16
:1041780013F0010F58D13A4B9B6A13F0200F5AD114
:10418800374B9B6A13F0100F04D1354B9B6A13F021
:10419800020F04D0324B5B6813F4006F52D1304BDE
:1041A8009B6A13F0200F04D02D4A536A23F400535E
:1041B80053622B4A936A43F0FF039362012120461E
:1041C80009F09CFF28703046BDE8F081254A01219E
:1041D800224808F081FB1126BCE7234A01211F4829
:1041E80008F07AFB1226BAE7204A01211B4808F09A
:1041F80073FB1B4BD3F834809B6A13F0800F03D1F9
:104208006FF015081326B1E74346194A01211348F0
:1042180008F06CFB37B1124A936A23F0800393626B
:104228001326A3E71326A1E7124A01210B4808F039
:1042380053FB14269FE7104A0121084808F04CFB5D
:1042480015269DE72146404600F0D0F90028A6D063
:1042580080F309880226A2E7E01401082C08010867
:1042680000ED00E0F8140108341401082C150108C9
:10427800441501085C150108B014010870B506461C
:104288000D462B4A01212B4808F026FB00232B70F2
:10429800294BDC6A14F002040AD1274BDB6A002B95
:1042A8000DDB254BDC6A14F080440ED1204670BD2E
:1042B800224A01211F4808F00FFB0024F6E7204A94
:1042C80001211C4808F008FBF0E71E4A01211948A3
:1042D80008F002FB3046FFF77FFD98B9164B9B6A42
:1042E80013F0FF0F16D1144B9C6A14F47F4418D1B5
:1042F800114B9B6AB3F5803FD8D33046FFF7AEFD2C
:104308000446D3E73368104A01210A4808F0EEFA58
:104318003468CBE72A4601213046FFF70BFF0446F5
:10432800C4E72A4601213046FFF77CFE0446BDE774
:104338007C1501082C08010800ED00E0941501081F
:10434800B8150108C8150108E815010830B58BB083
:104358001F4B5D68C5F30805002383F31188BFF37D
:104368006F8F0DF12603FFF755FD04460DF1270267
:10437800294609F0C5FE9DF827300BB10BB030BDBA
:1043880005460DF1040C20686168A268E368ACE892
:104398000F0020696169A269E369ACE80F009DF824
:1043A80026304BB1089BC3F308025AB96FEA53236E
:1043B8006FEA4323089305E0089B23F4FF7323F077
:1043C8000103089301A9284609F086FED6E700BF35
:1043D80000ED00E0024A536943F01003536170474F
:1043E80000ED00E0EFF30880EFF3098101B57246B4
:1043F800FFF7ACFF01BD00BF00200A49087010207C
:1044080080F3118808484FF40461401880F3098844
:10441800EFF314800221084380F31488BFF36F8FF1
:1044280000F09EF80F1F00208022002008B50A4BDC
:104438009B68834202D00BF074FC08BDEFF3058340
:10444800002BF8D0054B5A6842F080525A605A6ADD
:1044580022F400425A62EEE7D41E002000ED00E08C
:104468000A4A9368C3F8A8006FF00A01C3F8AC10B1
:1044780007494B6843F080534B60002383F311884E
:10448800BFF36F8F9368D3F8AC007047D41E002039
:1044980000ED00E016498A684FF030001044EFF351
:1044A800098C80E8F01F102080F31288BFF36F8F0B
:1044B800104F4FF000664A698A603E604FF0A404CE
:1044C800141920680C4C2060D2F8A8000023C2F808
:1044D800A83080F3118804B5104600F017F9BDE83C
:1044E800044002F1300090E8F01F8CF3098870470F
:1044F800D41E002004ED00E0581D00201EF0040F1B
:104508000CBFEFF30880EFF30980816911F8021CF2
:104518000229FFD001B509F0EBFD01BD002807DB3A
:1045280000F01F02400901239340024A42F820305C
:10453800704700BF00E100E0002808DB0901C9B2AC
:1045480000F1604000F5614080F80013704700F00A
:104558000F000901C9B2014B1954704714ED00E06E
:1045680008B50F4B0F4A22F07F029A60BFF34F8FB6
:10457800BFF36F8FD3F8882022F47002C3F8882025
:10458800EFF3148323F0040383F31488BFF36F8FCE
:1045980005F0E4FB06F04CF900F07CF805F04AFC65
:1045A80000ED00E00000000810B4A2F120040E495C
:1045B80042F8081C21F0010142F8081C42F8203C8E
:1045C800019B42F81C3C029B42F8183C039B42F8B2
:1045D800143C4FF0807342F8043C04650023C0F893
:1045E800A83010BC704700BFE52E0008104B9B6830
:1045F800BBB110F1160F0BD0D3F89420A2F1400CE8
:10460800844510D8824210D98A4207D800207047C2
:10461800D3F894208A4201D800207047D3F8940038
:10462800704700207047002070470020704700BF87
:10463800D41E002008B50D4614460A4A9060D0F8EA
:10464800A420094B1A6000F061F8204685F3098818
:10465800002163B681F31188BFF36F8F0022002316
:10466800FEF73CFCD41E0020581D002001491022F2
:104678000A60704710ED00E072B6404080F3118880
:10468800BFF36F8FBFF34F8F30BF62B6BFF36F8F2B
:10469800704700BF002207E003F1604303F5614360
:1046A800102183F800130132552A09DC53B2002B7C
:1046B800F2DA03F00F030349194410230B76F2E7EB
:1046C800704700BFFCEC00E001B5EFF30580A0F1F6
:1046D80010004FEAC0000449014409C99847BDE8E1
:1046E80001400249084700001C050108C53D0008B3
:1046F80008B5034B034A0121034809F067FD08BDCB
:1047080000000220000000200416010808B5D0F8B7
:104718009430403B0448036040234360034B83606C
:10472800012109F057FD08BD5C1D002000000B1594
:10473800084AC2F898000B6823F01F03034343F0AC
:104748001003C2F89C308B6843F00103C2F8A03014
:10475800704700BF00ED00E010B504460A4BD3F8DF
:104768009030C3F30723013B984203D8FFF7E0FFDB
:10477800204610BD0346054A0121054808F0B6F851
:104788006FF01500F5E700BF00ED00E01416010812
:10479800240801082DE9F04780460F469A46164638
:1047A800002409E02946F0B209F0F1FC064610F1B0
:1047B800160F1AD001360134BC4216DA04EB440550
:1047C80008EB85056A68002AF5D0BAF1000FE9D030
:1047D800284609F0CBFC0028E4D12346044A0121ED
:1047E800044808F083F86FF015063046BDE8F087F6
:1047F8003C1601082408010810B5034C012322784F
:10480800FFF7C8FF207010BD0E1F002008B5002359
:104818000B4A1278FFF7BEFF10F1160F0FD00246B1
:1048280006E0084BC3F898200021C3F8A010013215
:10483800044BD3F89030C3F307239342F1DC08BD4F
:104848000E1F002000ED00E0F0B585B0054603A876
:10485800FFF7A6F90646002425E0B3F5801F40F0CF
:10486800C680576809589368202B64D9B3F1004F64
:1048780063D8013BB3FA83F3C3F11F035B0003F072
:104888003E0343F0885343F4302300970191029389
:1048980069462878FFF760FF0028C0F2AD802B78C2
:1048A80001332B700134B44280F0AA8020010399AF
:1048B80001EB0412D3681B0D1B05B3F5000F5ED086
:1048C8001DD8B3F5001F3AD0B3F5800FC5D157688E
:1048D80009589368202B4ED9B3F1004F4DD8013BAE
:1048E800B3FA83F3C3F11F035B0003F03E0343F005
:1048F800E06343F40033009701910293C8E7B3F1F2
:10490800807F56D0B3F1007F71D1576809589368FA
:10491800202B68D9B3F1004F67D8013BB3FA83F372
:10492800C3F11F035B0003F03E0343F480230097A9
:1049380001910293ACE70823A3E73E23A1E7576858
:1049480009589368202B12D9B3F1004F11D8013BB5
:10495800B3FA83F3C3F11F035B0003F03E0343F094
:10496800885343F4002300970191029390E70823AA
:10497800F5E73E23F3E70823B9E73E23B7E757688F
:1049880009589368202B10D9B3F1004F0FD8013B79
:10499800B3FA83F3C3F11F035B0003F03E0343F054
:1049A800827300970191029372E70823F7E73E2389
:1049B800F5E7576809589368202B10D9B3F1004FD1
:1049C8000FD8013BB3FA83F3C3F11F035B0003F075
:1049D8003E0343F0887300970191029358E7082338
:1049E800F7E73E23F5E708239FE73E239DE7054ABF
:1049F8000121054807F070FF6FF0150005B0F0BD04
:104A08000020FBE76016010824080108044B052272
:104A1800C3F89420BFF34F8FBFF36F8F704700BF69
:104A280000ED00E0BFF35F8F024B0022C3F8942033
:104A3800704700BF00ED00E038B51C4B1D681C4BEB
:104A4800D3F89030C3F307239D422BD8FFF7EAFF32
:104A5800002409E0154B5B6804EB440103EB81017A
:104A68002046FFF765FE0134A542F3D811480570CA
:104A7800FFF7EAFE10F1160F13D00E4B1A780C4B05
:104A8800D3F89030C3F307239A4207DA084BC3F8E8
:104A980098200021C3F8A0100132F0E7FFF7B6FF15
:104AA800002038BD4FF0FF30FBE700BF8416010837
:104AB80000ED00E00E1F002008B5024B1B68984768
:104AC800002008BD681D0020034B1860034A937836
:104AD80043F0020393707047681D00201400002003
:104AE80030B587B00D461146002400940194029415
:104AF80003940494059402228DF80220044A01923A
:104B0800049005951A46684606F096F907B030BD38
:104B1800E5E1000808B5064921F00701C1F1005296
:104B280002F50032034807F047FA002008BD00BF2D
:104B3800873000206C1D002038B50546002401E0B0
:104B48000134E4B26B78A34216D3287820441F2896
:104B5800F6DC01238340094A526933EA0202EFD1A5
:104B6800064A5361064B53F83020002AE8D003EB7D
:104B7800C00359689047E3E738BD00BF003C0140D7
:104B8800781D0020002399420ADD10B400EB030CC5
:104B9800044C04F80C2001339942F7DC10BC704730
:104BA800704700BF2400002008B50246054B185680
:104BB80001239340044A11680B43136009F0C5FAB6
:104BC80008BD00BF24000020003C01401F2806DC6F
:104BD8000122824002490B6823EA02030B607047F6
:104BE800003C014003292ED8DFE801F0020E192409
:104BF80001228240144B996821EA02019960D96820
:104C080021EA0202DA607047012282400E4B99685D
:104C180011439960D96821EA0202DA6070470122DB
:104C28008240094BD9681143D960996821EA020288
:104C38009A60704701238340034A91681943916041
:104C4800D1680B43D3607047003C014010B40D4B52
:104C580053F830308B4209D08BB90A4B43F83010E7
:104C680003EBC0035A60002010BC7047054C04EBEE
:104C7800C00CDCF804409442EED10020F4E76FF059
:104C88000F00F1E7781D0020034B002243F8302085
:104C980003EBC0035A607047781D00200C4B1B685B
:104CA80013F0020F09D10A4A136843F00103136095
:104CB800074B1B6813F0020FFAD0054A936823F0DC
:104CC80003039360024B9B6813F00C0FFAD17047F3
:104CD800003802400C4B1A6842F480221A601A68A5
:104CE80042F480321A60084B1B6813F4003FFAD074
:104CF800054A536F43F001035367034B5B6F13F08F
:104D0800020FFAD0704700BF0038024010B5154BAB
:104D18009B6803F00C03082B1CD0124C236823F06B
:104D280080732360636823F4403343F48033636003
:104D3800636823F0706343F00063636000F0DAF89F
:104D4800236843F080732360064B1B6813F0007FD1
:104D5800FAD010BDFFF7A2FF024A936823F0F003D0
:104D68009360DAE70038024038B500F0DBF804F069
:104D780055FD1E4B9B68C3F303131D4AD35C20FAF1
:104D880003F513781B4C1C41A54226D3FFF7A2FF5D
:104D9800FFF7BCFF154A936823F0F003936093680C
:104DA80023F0030343F002039360104B9B6803F066
:104DB8000C03082BF9D1A54213D20F4B0D4A1A60E8
:104DC8000A4A936823F4E05343F48053936093684A
:104DD80023F460439360002038BD204604F08CFD26
:104DE800D4E7204604F088FDE7E700BF003802401A
:104DF8007429010800D8B80570000020F8B50C46E1
:104E08001546394B1E680221304609F042FA07461A
:104E18000121304609F03DFA2368442B28D8002B9D
:104E28005BD0013B432B5BD8DFE803F0364F5239A8
:104E3800445A5A5A5A5A5A5A5A5A5A5A5A5A5A5AE0
:104E48005A5A5A5A5A5A5A5A5A5A5A5A5A5A5A5ABA
:104E58005A5A5A5A5A5A5A5A5A5A5A2A5A5A5A2A0A
:104E68005A5A5A2D5A5A5A5A5A5A5A305A5A5A3318
:104E7800A82B02D12E60002034E06FF0850031E0CD
:104E88002E6000202EE02E6000202BE02F600020F6
:104E980028E02860002025E02E60002022E000F0B5
:104EA80025F804234FF4C072082109F0EBF92860B3
:104EB800002017E000F01AF808234FF4C0721946D2
:104EC80009F0E0F9286000200CE00020286009E0E3
:104ED8004FF4FA432B60002004E06FF0850001E0F6
:104EE8006FF08500F8BD00BF7000002000487047D3
:104EF80000127A0008B509F047FA084A5168084BC9
:104F08000B4040F4C04040F008000343536053682E
:104F180023F4403343F48033536008BD0038024023
:104F28000080BFFF82B0064B1A6C42F080521A64B0
:104F38001B6C03F080530193019B02B0704700BFC4
:104F48000038024010B504460A2806D0E1B20648E7
:104F580083685B689847204610BD034883685B6890
:104F68000D219847F2E700BF9004010810B5044CE2
:104F78002046FFF7A9FD2046FDF7AAFF10BD00BF98
:104F88004D4F000808B505480AF009FD18B1FFF7AC
:104F9800EDFF002008BD6FF01200FBE79004010848
:104FA80008B5436831B107488268126803F10C01FB
:104FB800904708BD03488268526803F10C01904786
:104FC800F7E700BFB40301085FFA81FC0CF10202A5
:104FD8000A4B53F822200B0C22EA114193FAA3F34F
:104FE8004BB1B3FA83F3984001430CF1020C034A26
:104FF80042F82C1070472023F5E700BF0038014025
:1050080070B582B004460D460A4A6B4692E8030022
:1050180083E80300084882681268194690470646E4
:1050280010B1304602B070BD2946204609F074FB25
:10503800F7E700BF90080108B4030108C3B20233C0
:10504800074A52F82320030C02EA104093FAA3F30C
:105058001BB1B3FA83F3D84070472023FBE700BFA6
:1050680000380140F8B50C46114647680269B1F5A9
:10507800001F1FD01D46B1F5800F34D01D492046B2
:10508800FFF7E4FD064688BB2146B868FFF7B8FF7E
:10509800B5F1806F23D0B5F1C06F22D0B5F1007F94
:1050A8001BD031462046FFF79DFD2046FFF77CFDCB
:1050B8003046F8BD204609F046FBBB68984201D04F
:1050C8000026F5E72046FFF781FD2046FFF7DCFDC7
:1050D80000212046FFF786FDF2E70221E2E70121E1
:1050E800E0E70321DEE76FF08506E1E76FF00F06E2
:1050F800DEE700BF5BE4000810B5044603695860AA
:1051080007480AF04CFC38B101212046FFF748FF58
:10511800002800DB002010BD6FF01200FBE700BF85
:10512800B403010830B52A4CA4FB014E4FEA9E4C4B
:10513800446824F03F0444EA9E444460046A24F02E
:105148003F04244DAA421BD80CF1010C44EA0C047C
:105158000462204CA24231D9F3B902EB4202B1FBFE
:10516800F2F2C2F30B0119B342F400410B43C269D6
:1051780022F44F4C2CF0FF0C4CEA0303C36130BD02
:105188004FF4967505FB0CFC134DA5FB0C5C4FEA20
:105198009C1C0CF1010CD9E702EB820202EB8202A3
:1051A800B1FBF2F2C2F30B0129B142F40041DDE791
:1051B80048F20101DAE748F20101D7E75200B1FBF2
:1051C800F2F340F6FC721342D1D10423CFE700BFBB
:1051D80083DE1B43A0860100D34D6210F0B583B077
:1051E8000446154606690027009709F09BFC2046EF
:1051F80009F005FB41F288320023304605F0D0FA69
:1052080030B9064A2946204609F043FB03B0F0BDF1
:10521800204609F003FB6FF00400F7E76018010867
:10522800F0B583B00446154646680769F6684FF03E
:10523800010CCDF800C009F075FC204609F0DFFA32
:10524800736843F4C063736041F2883200233846C0
:1052580005F0A6FA30B9064A2946204609F019FB96
:1052680003B0F0BD204609F0D9FA6FF00400F7E763
:105278004C18010808B542680369D0681B6AC3F373
:105288004203012B04D0022B08D06FF0150008BD93
:105298000023054AFFF746FF0020F8E70023034AEA
:1052A800FFF740FF0020F2E7A0860100801A060001
:1052B80008B5036993F84C201AB11B6A0B600020EB
:1052C80008BD044A0121044807F006FB6FF00400FA
:1052D800F6E700BF84180108FC07010808B5124B5F
:1052E80098421AD00AD9114B98421AD003F5C31321
:1052F80003F52063984209D10A2006E00C4B984236
:105308000DD00C4B984201D1042008BD0A4A012156
:105318000A4807F0E1FA0020F7E70620F5E702203F
:10532800F3E70820F1E700BF40420F0040E13300F7
:10533800A0860100801A0600A4180108FC070108CD
:1053480038B545680021686909F006FD041E08DBC8
:105358000B4883681B6869689847044640B920462B
:1053680038BD2346074A0121074807F0BFFAF6E788
:10537800064A0121044807F0AFFA6FF00404EEE78B
:10538800B4030108C0180108FC070108E018010867
:1053980043680269DB6882F84E1021B91A6822F066
:1053A8001A021A607047B0B582B000AF05686C4643
:1053B80000233B7102237B718AB0EC461CF110027A
:1053C80018D0122022B1042802DD274BCCF8143063
:1053D80000233B7002237B70D2B10346082801DD0D
:1053E800CCF818500C2B01DDCCF81C100CF1200364
:1053F80000210BE06FF00040E4E701F1080505EB40
:10540800070E1EF808EC03F801EB01310129F4D965
:10541800112825DD12234AB104213971002179713F
:10542800B9710121F9717868CCF8100000216FF387
:1054380000016FF341016FF382016FF3C501012091
:1054480060F38811C3F30A0363F353216FF31F5109
:1054580000230648FEF7C8F8A5460837BD46B0BD84
:105468006FF01B03D7E700BFFC180108FC07010811
:10547800F0B583B00E4643680569DF6800220192E3
:1054880059681B4B9B68DB6853B3044601AA18484C
:105498009847002824DB2E6205F110064FF0FF32F2
:1054A8004FF0FF33304605F07BF93B6823F00103EA
:1054B8003B6095F84E102046FFF76AFF0199204699
:1054C800FFF7D8FE044695F84D301BB13B6843F012
:1054D80001033B60304605F03BF9204603B0F0BDC0
:1054E800044A0121044807F0F7F96FF00404F4E7CF
:1054F800B403010810190108FC07010870B5044637
:10550800466805694FF0FF32002128460AF03AFC48
:10551800336820469847002385F84C3085F84E308C
:1055280005F11000012211460AF02CFC12480AF07D
:1055380036FA90B12046FFF703FF3069FFF7CEFE39
:1055480040F010012046FFF793FF041E0DDB0123F6
:1055580085F84C300024204670BD084A01210848CF
:1055680007F0BAF96FF01204F5E7064A012104487A
:1055780007F0B2F9EFE700BFB403010840190108CA
:10558800FC07010860190108AF2817D8F8B50446C8
:105598000D46164603090B4A52F823705FB1384688
:1055A8000AF0FDF938B133462A4604F00F013846AF
:1055B80009F0E0F8F8BD6FF01200FBE76FF0150096
:1055C800704700BFF419010830B5056909290BD0E7
:1055D8000A290DD0082903D04FF0020E002120E03F
:1055E8004FF0000E71461CE04FF0010E714618E0B6
:1055F8004FF0020E714614E005EB4103B3F9043095
:1056080040F2DC5000FB03F3074880FB030CD8177B
:10561800C0EBAC401060054C04FB103353600832FB
:1056280001318E45E8DA30BD83DE1B4340420F006E
:105638000269B2F90A30002B10DBDB1019330B605A
:10564800B2F90A305A4203F0070302F0070258BFC2
:105658005342034A02FB03F34B6070470733ECE7FE
:1056680048E8010008B50B2906D90C2906D11146CE
:10567800FFF7DEFF00200CE0082907D2054A0121C8
:10568800054807F029F96FF0850002E0FFF79CFF55
:10569800002008BD481A0108CC070108F8B50C46D7
:1056A800056947680121384607F03CFA70B905F1E9
:1056B8000C00C822002305F073F870B9214638465B
:1056C80007F0C6FA064688B93046F8BD06460A4AC3
:1056D80001210A4807F000F9F6E71423084A0121D6
:1056E800064807F003F96FF00406EDE7054A0121C3
:1056F800024807F0F1F8E7E7601A0108CC0701084B
:10570800781A0108F01D0108F0B583B006694568EC
:105718006B7E002B43D004466946FFF7BFFF074660
:10572800002830D1BDF90030B380BDF90230F380D4
:10573800BDF9043033812B7E002B3FD069462046CB
:10574800FFF7ACFF074620BBB188BDF8003019440D
:1057580009B2B180F288BDF802301A4412B2F28060
:105768003389BDF8040003441BB2338101EBD171C6
:105778004910B18002EBD2725210F28003EBD3735E
:105788005B1033811AE0124A0121124807F0A4F88D
:1057980014E00F4A01210F4807F09EF80EE0694611
:1057A800284607F055FA074658B9BDF90030B380C6
:1057B800BDF90230F380BDF904303381384603B0B7
:1057C800F0BD054A0121034807F086F8F6E700BF57
:1057D800A41A0108CC070108F01D010810B582B011
:1057E80004690DF10601406807F054FA002805DB4A
:1057F800BDF806306381002002B010BD034A0121C4
:10580800034807F069F86FF00400F5E7F01D010898
:10581800CC07010808B54AB1082A0BD0074A01216C
:10582800074807F059F86FF0850002E0194609F0BB
:10583800A7FB08BD1A4609F0C3FBFAE7BC1A010822
:10584800CC07010808B50B2904D93A2904D1FFF778
:10585800E1FF08BD0829FAD20B46044A0121044891
:1058680007F044F86FF08500F3E700BFD81A010885
:10587800CC0701082DE9F04182B005460669446865
:105888003060A37E33B10121204607F067FA002873
:10589800C0F2C2800DF10701204607F00DFA00287A
:1058A800C0F2BD809DF80730402B49D10121204628
:1058B80007F009FA00284BDB64200AF060F8A37EA1
:1058C80033B10121204607F049FA0028C0F2AA8026
:1058D8000121204607F0A3F9002841DB00212046DA
:1058E80007F039F9002843D1237E2BB10121204646
:1058F80007F063F9002843D10121204607F044F955
:105908000746002844D1237E13B1637E002B47D17C
:10591800637E002B60D00121204607F006FA8046FE
:1059280000284BD10121204607F0E6F980460028DF
:105938004BD106F10C00012200210AF023FA51E0B4
:105948003A4A01213A4806F0D1FF6FF015074BE0BB
:10595800384A0121364806F0BFFF6FF0040743E0DC
:10596800354A0121324806F0B7FF6FF004073BE0E3
:10597800324A01212E4806F0AFFF6FF0040733E0EA
:105988002F4A01212A4806F0A7FF6FF004072BE0F1
:105998002C4A0121264806F09FFF6FF0040723E0F8
:1059A8000121204607F022F980460028B0D0264A77
:1059B80001211F4806F090FF474615E0234A0121C0
:1059C8001B4806F089FF47460EE0214A0121184886
:1059D80006F082FF474607E00021204607F0A2F8BC
:1059E800064628B9E37E53B9384602B0BDE8F081CF
:1059F800184A01210E4806F06FFF3746F4E728469B
:105A080000F0AAF80028EFDA134A0121084806F046
:105A180063FF6FF00407E7E76FF00407E4E76FF050
:105A28000407E1E76FF00407DEE700BF001B010889
:105A3800CC070108181B01082C1B0108401B010892
:105A4800501B01086C1B01088C1B0108AC1B0108CA
:105A5800C41B0108D41B0108F01B0108F0B583B072
:105A680000AF0C4645686E4688B06B4613F11002CD
:105A78003CD010217AB10846042903DDDFF878C04C
:105A8800C3F814C0082803DDDFF870C0C3F818C0D5
:105A98000C2800DDDC610F292BDD4FF0100C3AB12A
:105AA8000421397100217971B971F9717868186127
:105AB80000216FF300016FF341016FF382016FF36F
:105AC800C501042363F38811CCF30A0C6CF353214A
