:020000040800F2
:1000000040120020CD1E000881170008B91E00080C
:10001000B91E0008B91E0008B91E00080000000043
:1000200000000000000000000000000005200008A3
:10003000B91E000800000000A11F0008213C0008B4
:10004000CD220008CD220008CD220008CD220008D4
:10005000CD220008CD220008CD220008CD220008C4
:10006000CD220008CD220008CD220008CD220008B4
:10007000CD220008CD220008CD220008CD220008A4
:10008000CD220008CD220008CD220008CD22000894
:10009000CD220008CD220008CD220008CD22000884
:1000A000CD220008CD220008CD220008CD22000874
:1000B000CD220008CD220008CD220008CD22000864
:1000C000CD220008CD220008CD220008CD22000854
:1000D000CD220008CD220008CD220008CD22000844
:1000E000CD220008CD220008CD220008CD22000834
:1000F000CD220008CD220008CD220008CD22000824
:10010000CD220008CD220008CD220008CD22000813
:10011000CD220008CD220008CD220008CD22000803
:10012000CD220008CD220008CD220008CD220008F3
:10013000CD220008CD220008CD220008CD220008E3
:10014000CD220008CD220008CD220008CD220008D3
:10015000CD220008CD220008CD220008CD220008C3
:10016000CD220008CD220008CD220008CD220008B3
:10017000CD220008CD220008CD220008CD220008A3
:10018000CD220008CD220008CD220008CD22000893
:08019000CD220008CD22000879
:08019800FFFFFFFFFFFFFFFF67
:1001A00001F0FF01102A2BDB10F0070F08D010F828
:1001B000013B013A8B422DD010F0070F42B3F6D12C
:1001C000F0B441EA012141EA014122F007047FF045
:1001D00000070023F0E80256083C85EA010586EA9C
:1001E000010685FA47F5A3FA87F586FA47F6A5FAD8
:1001F00087F68EB9EED1F0BC01F0FF0102F00702E4
:1002000032B110F8013B013A83EA010313B1F8D18E
:100210000020704701387047002D06BF354603386F
:10022000073815F0010F07D1013015F4807F02BFA8
:10023000013015F4C03F0130F0BC0138704700BFF9
:100240004FF0FF3C06E000BF4FF0010C02E000BFA2
:100250004FF0010C4DF804CD4FEA40024FEA410344
:100260007FEA226C18BF7FEA236C11D001B052EAFA
:10027000530C18BF90EA010F58BFB2EB030088BFC0
:10028000C81738BF6FEAE17018BF40F0010070472F
:100290007FEA226C02D15FEA402C05D17FEA236C11
:1002A000E4D15FEA412CE1D05DF8040B704700BF58
:1002B000844608466146FFE70FB5FFF7C9FF0028EF
:1002C00048BF10F1000F0FBD4DF808EDFFF7F4FF28
:1002D0000CBF012000205DF808FB00BF4DF808EDC1
:1002E000FFF7EAFF34BF012000205DF808FB00BFE4
:1002F0004DF808EDFFF7E0FF94BF012000205DF806
:1003000008FB00BF4DF808EDFFF7D2FF94BF0120B6
:1003100000205DF808FB00BF4DF808EDFFF7C8FFAF
:1003200034BF012000205DF808FB00BF53B94AB973
:10033000002908BF00281CBF4FF0FF314FF0FF30ED
:1003400000F00CB8ADF1080C6DE904CE00F0E8FD4A
:10035000DDF804E0DDE9022304B07047704700BF18
:100360004FF0FF3C06E000BF4FF0010C02E000BF81
:100370004FF0010C4DF804CD4FEA410C7FEA6C5C64
:100380004FEA430C18BF7FEA6C5C1BD001B050EA07
:10039000410C0CBF52EA430C91EA030F02BF90EAF2
:1003A000020F0020704710F1000F91EA030F58BFB1
:1003B000994208BF90422CBFD8176FEAE37040F013
:1003C000010070474FEA410C7FEA6C5C02D150EAB1
:1003D000013C07D14FEA430C7FEA6C5CD6D152EA6C
:1003E000033CD3D05DF8040B704700BF8446104631
:1003F00062468C461946634600E000BF01B5FFF730
:10040000B7FF002848BF10F1000F01BD4DF808EDFF
:10041000FFF7F4FF0CBF012000205DF808FB00BFD0
:100420004DF808EDFFF7EAFF34BF012000205DF82A
:1004300008FB00BF4DF808EDFFF7E0FF94BF012077
:1004400000205DF808FB00BF4DF808EDFFF7CEFF78
:1004500094BF012000205DF808FB00BF4DF808EDB7
:10046000FFF7C4FF34BF012000205DF808FB00BF88
:1004700003685A004CBF43F0004323F00043184484
:1004800070472DE9F0470646174641B301398846C3
:100490004FF0000909EB080404EBD474641006EB78
:1004A000C4052846FFF7E4FFA1424FEAC40A04D17D
:1004B000B84204D82846BDE8F087B84204D9A1451F
:1004C0000DD004F1FF38E5E70AF108003044FFF7EA
:1004D000CFFF0138B842EDD204F10109DAE7002577
:1004E000E8E7012806D0022806D00028034818BFF4
:1004F000002070470248704702487047FD0A000814
:10050000010B0008050B00081F4B37B504468D1E74
:100510004BB101A92846AFF3008048B90023092058
:10052000236103B030BD1948194B1B1ADB1001932E
:1005300001992A46FFF7A5FF01460028EED0FFF7F4
:1005400097FF4B68A064012B1AD0002B01F1040027
:1005500010DBFFF78DFF0023C4E913030368002BB2
:100560000ADAC3F30360FFF7BCFF03460028D5D0C7
:100570000020D5E70123EFE7FFF77AFF0346F7E70F
:1005800000230520CCE700BF0000000040EB01087D
:1005900040F901080368DA0710B5044605D49B0743
:1005A00000F1480018D500F0F9FB2368590703D47F
:1005B00004F1D00000F0FAFB23681A0703D404F515
:1005C000A87000F0FBFB2368DB0608D404F5E87094
:1005D000BDE8104000F036BC00F0D8FBE5E710BDE8
:1005E000092070470346006800B1184470477047FF
:1005F00070B505460C46216C2846FFF785FF064678
:1006000008B102F029F8236C6B6122462B69294658
:10061000012098470828EED00728F2D13046216CF7
:10062000FFF7E5FF201D00F0A5FB2DE9F0470C1DAD
:10063000D0F80C90D0F818A0074616460FCCADF5B0
:10064000727D03AD0FC50FCC0FC50FCC0FC594E85D
:100650000F000DF1080885E80F000025C8F80050CC
:10066000D8F840103846FFF74FFF0936F6B2044677
:1006700068BBD8F840307B614FF4F07241467AA8ED
:100680001DF0DCF93B697AAA394630469847889BC9
:100690000546C8F844303A46CDE9008A3B46314623
:1006A0000120C847C0B9C4B94FF4F0727AA94046D6
:1006B0001DF0C4F9082D2646D2D0072D0CD12046B6
:1006C000D8F84010FFF793FF03A800F053FBD8F8C9
:1006D000383046F01006DCE7092420460DF5727D1F
:1006E000BDE8F087406C7047F0B5CB6B0B640D1D17
:1006F00006460F460FCDF9B001AC0FC40FCD0FC4A5
:100700000FCD0FC495E80F0084E80F004FF0FF33C2
:10071000009310993046FFF7F7FE78B933696A46BF
:100720003146984708280446F3D06846FFF732FF61
:10073000062C03D139463046FFF75AFF092079B01D
:10074000F0BD10B48261DA6BC16010BC1A64194646
:1007500000226AE770B5C66843690B6404460D461B
:1007600026B10122FFF761FF01F076FF03690A4617
:10077000014602209847072805D00828F4D12946C9
:100780002046FFF735FF3046296CFFF730FF281D64
:1007900000F0F0FAC26802B9A6E7CA6B0A64002248
:1007A00043E77047836801460BB101201847704743
:1007B000012910B50446084605D005D9C81E0128F0
:1007C0008CBF0220012010BD43B90F2A06D804EBCC
:1007D0008204029A616811601846F4E70220F2E789
:1007E0001FB503AB009300230A461946FFF7E0FF4D
:1007F000039805B05DF804FB012910B504460846CE
:1008000005D005D9C81E01288CBF0220012010BDCB
:1008100043B90F2A06D8029904EB82040968616083
:100820001846F4E70220F2E71FB503AB009300235C
:1008300003920A461946FFF7DFFF05B05DF804FB97
:10084000F0B5D36B1364141D06460F460FCCADF5FF
:100850000F7D17AD0FC50FCC0FC50FCC0FC594E89A
:100860000F0085E80F004FF0FF3316932699684676
:10087000FFF74AFE90B90C2116A86A46FFF7D4FF8D
:10088000394616A8B04748B9049B16AA69460820FD
:1008900098470528044602D00928E7D1092416A85C
:1008A000FFF778FE20460DF50F7DF0BD2DE9F04FE6
:1008B000CD6C87B0174655F8042B04950C4600F014
:1008C00003099A463BBB12028DF8153003920323AD
:1008D0008DF81430236DB9F1020F08BFA56B13F02A
:1008E000010322D100F0080800932B6843BB03A941
:1008F000384600F0A4FC002840F0FB80009BDBB1F0
:100900000F213846FFF76CFF0E2102463846FFF7ED
:100910008BFF794A55E0130C8DF815301204DBB2C9
:1009200005EB830503920223D2E703A9384600F0C2
:1009300086FC002840F0DD80082007B0BDE8F08F7D
:10094000BAF1020F0CBFD5F804B0B5F802B0A26C32
:1009500018BF2B8801930CBF05F108062E1D0F212F
:100960002BF0010538461544FFF73AFF8542019BFD
:1009700029D823F001022A44824294BF0022012296
:100980004FEA4B0000F0020003F0010340EA0305C8
:10099000012D1AD0022D5ED0002D40F0AA80351D09
:1009A000B9F1000FA1D0002A9FD03046FFF760FDBB
:1009B000A563064620461BF023FE002800F0998020
:1009C00032460F213FE00022DAE7B9F1000F26D1CD
:1009D000002A3DD073683268991C4FEAD27200F049
:1009E000888004F158010133029109D0301DFFF7CE
:1009F000F9FD02AB014620460DF0C6FA054638B3B4
:100A00000D213846FFF7ECFE022D029B206202D139
:100A1000E36204F12C03C4E9093606208DE70D21B9
:100A20003846FFF7DDFE256A854211D1A36A9E4252
:100A30000ED13046FFF71CFD0F2102463846FFF766
:100A4000F3FE224600213846FFF7EEFE072074E74A
:100A500006F1080549E7356825F00045B9F1000FB2
:100A60002AD1A2B1B8F1000F19D085B9CB4617E051
:100A70000BF1010B019B029306EB8B00FFF7B2FD1C
:100A80000022014602AB20460DF07EFA58B13368D1
:100A9000002B00DA0436013506EB850525E7C34651
:100AA00004F158030193AB45E2D10D213846FFF71D
:100AB00097FE029B2062AEE70D213846FFF790FEBD
:100AC000D4F820B08345E2D1A36A9E42DFD14FF033
:100AD000000B0423C4E90BB3F318A5626363336806
:100AE0005B4503DA681C06EB8000A3E70123009353
:100AF000D1E7092021E700BF49E000080023D5E63F
:100B00000123D3E60223D1E62DE9F0410546C2B028
:100B100014461E46042925D8DFE811F005001C0004
:100B20002400D6000401EEB9836B92B20121043097
:100B300001FA06F717421CBF53F8047B40F82670F1
:100B40000136102EF4D1A60400D4AB63002042B0CD
:100B5000BDE8F081012E4FEA124794B204D13B194F
:100B6000102B41D90220F2E7052EFBD107EB040838
:100B7000B8F1200FF6D80F2F4DD9002CE6D003681E
:100B80005807A04608D5284623F0040340F8D03B78
:100B900000F010F90F2F48D9684600F00BF9AB6B45
:100BA000102F3A4642A938BF102201EBC2024FEA89
:100BB0004808A2F5C47208F1FF38101F4FEA8801F7
:100BC00002EB88021C4654F804CB40F804CF824262
:100BD000F9D10A1D012E134417D00F2FAB636FD923
:100BE000684600F0E3F8B1E7102FBBD00368DA07DE
:100BF00005D523F0030340F8483B00F0CBF820A8CC
:100C000000F0C8F8AB6B002C3FD10433AB6320A8D5
:100C100000F0BCF89AE7B8F1100F03682DD9DC0793
:100C2000A8F1100842D45807ADD420A800F0BAF8B3
:100C3000C7F11004684600F0BDF8640020AAAB6B51
:100C400002EBC702013C101FA10002EB84021C460C
:100C500054F804CB40F804CF9042F9D10A1D134454
:100C6000B8F1000F9CD1012ECFD00F2FAB633FF610
:100C70006DAF20A800F092F868E7D9070DD420A83E
:100C800000F090F8AB6B002CF3D0640020AA02EBCC
:100C9000C702013C4FF00008D5E723F0010343F001
:100CA000020340F8483B00F07DF8E8E723F0010339
:100CB00043F0020340F8483B00F074F82B68B2E7B9
:100CC00020A800F06BF88BE7032E7FF44BAF97B2B0
:100CD00007EB1244102C4FEA12463FF643AF03686D
:100CE000190706D523F00803036000F5A87000F08B
:100CF00087F820A800F084F8AA6B20AB03EBC603AA
:100D0000F900D41A03EBC707BB4203EB040005D17B
:100D10000A44AA6320A800F051F817E7006843F8D6
:100D2000040BF1E7002E7FF41DAF102A3FF61AAF37
:100D30000368DA0606D523F01003036000F5E870B7
:100D400000F08AF820AE304600F086F8AB6B002247
:100D5000012101FA02F020421CBF53F8040B46F8AF
:100D600022000132042AF4D1AB63304600F06AF865
:100D7000ECE600BF00F1340191E838009C46A6463D
:100D80004CF8045D90E8FF0FE54600BD90EC210BA8
:100D9000704700BF80EC210B704700BF90EC200B28
:100DA000704700BF80EC200B704700BFD0EC200BD9
:100DB000704700BFC0EC200B704700BFF0EC020191
:100DC000F0EC0211F0EC0221F0EC0231F0EC024107
:100DD000F0EC0251F0EC0261F0EC0271F0EC0281F7
:100DE000F0EC0291F0EC02A1F0EC02B1F0EC02C1E7
:100DF000F0EC02D1F0EC02E1F0EC02F1704700BF40
:100E0000E0EC0201E0EC0211E0EC0221E0EC023146
:100E1000E0EC0241E0EC0251E0EC0261E0EC027136
:100E2000E0EC0281E0EC0291E0EC02A1E0EC02B126
:100E3000E0EC02C1E0EC02D1E0EC02E1E0EC02F116
:100E4000704700BFB0FC0181B0FC0191B0FC01A172
:100E5000B0FC01B1704700BFA0FC0181A0FC019172
:100E6000A0FC01A1A0FC01B1704700BFEC4600B599
:100E70002DE900502DE9FF1F4FF000032DE90C0074
:100E800001A9FFF731FCDDF840E012B0704700BF68
:100E9000EC4600B52DE900502DE9FF1F4FF000038F
:100EA0002DE90C0001A9FFF755FCDDF840E012B078
:100EB000704700BFEC4600B52DE900502DE9FF1F3B
:100EC0004FF000032DE90C0001A9FFF763FCDDF8EA
:100ED00040E012B0704700BFEC4600B52DE900506D
:100EE0002DE9FF1F4FF000032DE90C0001ABFFF7C8
:100EF00028FCDDF840E012B0704700BFEC4600B5BA
:100F00002DE900502DE9FF1F4FF000032DE90C00E3
:100F100001AAFFF795FCDDF840E012B0704700BF72
:100F20002DE9F04786468C460846089E15467446CD
:100F30001946002B40F0C2808542B2FA82F245D9B0
:100F40004AB1C2F1200300FA02FC2EFA03F39540E5
:100F500043EA0C0C94404FEA154EA8B2BCFBFEF8D5
:100F6000230C0EFB18CC08FB00F943EA0C4399450F
:100F700028D9EB1808F1FF3704D2994502D9A8F116
:100F800002072B44A3EB0903A4B2B3FBFEFC0EFB48
:100F90001C330CFB00F044EA0344A04214D92C1982
:100FA0000CF1FF3304D2A04202D9ACF102032C446D
:100FB000241A43EA07401EB1D44000233460736012
:100FC000BDE8F0874746DDE76346F1E792BB431B88
:100FD00001214FEA154EAFB2B3FBFEFC200C0EFB15
:100FE0001C330CFB07F840EA0343984562D9EB1821
:100FF0000CF1FF3004D2984502D9ACF102002B4429
:10100000A3EB0803A4B2B3FBFEFC0EFB1C330CFBEA
:1010100007F744EA0344A7424ED92C190CF1FF33D9
:1010200004D2A74202D9ACF102032C44E41B43EAE8
:101030000040C0E7C2F1200320FA03F19540904040
:101040002EFA03F303434FEA154EAFB2B1FBFEFC99
:101050000EFB1C10190C0CFB07F841EA00418845F7
:1010600004FA02F422D969180CF1FF3004D2884541
:1010700002D9ACF102002944A1EB08019BB2B1FBFB
:10108000FEFC0EFB1C110CFB07F743EA01439F42D9
:101090000ED9EB180CF1FF3104D29F4202D9ACF10A
:1010A00002012B44DB1B41EA004192E76046E3E783
:1010B0006146F7E76046A3E76346B7E7834206D990
:1010C00016B9002108467BE7C6E900E0F9E7B3FA64
:1010D00083F78FB9834201D3724508D8BEEB02046F
:1010E00060EB030301209C461EB9002168E73846E7
:1010F000FAE7C6E9004CF8E7C7F1200CBB4022FA3A
:101100000CF41C432EFA0CF120FA0CF3B840014306
:101110004FEA14490EFA07F5B3FBF9F81FFA84FEFB
:1011200009FB18300B0C08FB0EFA43EA00439A4502
:1011300002FA07F240D9E31808F1FF3004D29A45C9
:1011400002D9A8F102002344A3EB0A0389B2B3FB3E
:10115000F9F809FB183308FB0EFE41EA03418E45FE
:101160002CD9611808F1FF3304D28E4502D9A8F1B9
:101170000203214443EA0040A0FB0298A1EB0E01C8
:101180004145CE46434602D306D14D4504D2B9EB84
:10119000020E68EB04030138002EA6D0B5EB0E0258
:1011A00061EB030101FA0CFC22FA07F34CEA03039A
:1011B000F940C6E9003198E74046C5E74346D9E71C
:1011C00010F8012B11F8013B012A28BF9A42F7D0F1
:1011D000D01A7047034611F8012B03F8012B002A9F
:1011E000F9D17047034613F8012B002AFBD1181AD6
:1011F00001387047027A03467AB9427A82B1013ADD
:1012000042724268111D12680260416003221A7224
:101210001A68100E12021A607047013AD2B2F6E74D
:10122000B02070471FB503AB009300230C22194672
:10123000FFF7BEFA039805B05DF804FBF2E72DE96D
:10124000F043054685B00E464FF000083046FFF7E4
:10125000D1FFB028044615D1B8F1000F0ED103AC70
:1012600043460E22414600942846FFF7A1FA009417
:1012700043460F2241462846FFF7BEFA002005B03C
:10128000BDE8F08302061DD4002303AF4FEA8009B6
:10129000194600970D222846FFF78AFA5FFA89F966
:1012A000039B09F1040914F0400F14BFA3EB0903D9
:1012B0004B440393009700230D2219462846FFF75D
:1012C0009BFAC3E700F0F003802B18D104023046EC
:1012D000FFF790FF0443B4F5004F01D10920CEE79A
:1012E00024010023A2B219462846FFF70DFC00286E
:1012F000F4D114F4004F18BF4FF00108A6E7902B6B
:101300000DD100F00D030D2BE8D003AF002300F04A
:101310000F02009719462846FFF74AFACAE7A02BA2
:1013200013D1C34303F007034FF47F621A4103074D
:1013300002F47F6201D542F4804200231946284618
:10134000FFF7E2FB002881D0C8E7B02B46D1B128D7
:1013500008D13046FFF74EFF431EDBB20E2B02468C
:10136000EBD9BBE7B22820D1002303AC0D221946EC
:1013700000942846FFF71CFA3046FFF73BFF022790
:1013800000F07F0110F08003039A01FA07F105D104
:1013900002F501720A44039200948DE70A44304634
:1013A00003920737FFF726FFEAE7B3280BD1304651
:1013B000FFF720FF020300F00F0002F4702201305B
:1013C00001230243BAE700F0FC03B42B86D000F0FF
:1013D00007020132012342F40022AFE7C02B44D1BF
:1013E000C6280AD13046FFF705FF020300F00F00C0
:1013F00002F4702201300323E3E7C7280BD1304603
:10140000FFF7F8FE431EDBB20E2B02463FF666AF37
:101410000023042193E700F0F803C02B06D100F06D
:101420000F020132032342F4202287E7C8280DD19E
:101430003046FFF7DFFE00F0F00200F00F00103240
:101440000130052340EA0232012178E7C9287FF400
:1014500045AF3046FFF7CEFE020300F00F0002F466
:101460007022013005230243EEE700F0F803D02B91
:101470007FF434AF00F007020132052342F400226A
:10148000E2E71FB503460846DA6C536808321902D2
:10149000019102921B0E032201A98DF80C208DF8F8
:1014A0000D30FFF7CCFE05B05DF804FB08B5FFF783
:1014B000C5FE806C08BD08B5FFF7C0FEC06CC379DF
:1014C000023300EB830008BD80B500AF084909482E
:1014D0001AF0E1FC0346084918461AF0DCFC034602
:1014E000064918461AF04EFB0023184680BD00BF7F
:1014F000B0FD0108D0050020C4FD010825BD01088C
:1015000080B582B000AF786039607B68012B0CD168
:101510003B684FF6FF72934207D1064804F0E6FDA0
:10152000054A0649034811F0BCF800BF0837BD461C
:1015300080BD00BFB8020020BC0200203D62000850
:1015400080B582B000AF094B7B6005E07B681B680B
:1015500098477B6804337B607B68054A9342F5D3E8
:1015600000BF00BF0837BD4680BD00BF90FD010829
:10157000ACFD010880B582B000AF094B1B687B60F1
:1015800006E07B685A1E7A60054A52F82330984775
:101590007B68002BF5D100BF00BF0837BD4680BD7A
:1015A00084FD010880B483B000AF7860034A7B6893
:1015B000136000BF0C37BD4680BC704700000020A0
:1015C00080B582B000AF78603960044B1B687868E2
:1015D0009847034618460837BD4680BD00000020E6
:1015E00080B58CB000AF7860396010F0A3FF03467F
:1015F000002B1BD007F11C0300221A605A609A606E
:10160000DA601A610223BB77134B3B6207F11C03BC
:101610003A68796818460FF043FAFB6A002B17D036
:1016200007F11C03184610F0A3FF11E007F10C03AB
:1016300000221A605A609A60DA600223BB73074B7B
:101640003B6107F10C033A68796818460FF028FAF5
:101650003037BD4680BD00BF99250108C11500087F
:1016600080B584B000AF786039600023FB600AE089
:10167000094B1B687968FA680A4412781046984743
:10168000FB680133FB60FA683B689A42F0D300BF05
:1016900000BF1037BD4680BD0000002080B500AF00
:1016A0001CF03AFA0346024A9B58184680BD00BF18
:1016B0000800000080B584B000AFF860B9607A60BF
:1016C0003B6010F099FF02461CF026FA03460649DB
:1016D0005A50FB683A687968B8689847FFF7DEFFA8
:1016E0000346184610F08FFF0800000080B400AFDA
:1016F000044B1B68034A43F40073136000BFBD46EC
:1017000080BC7047003C024080B400AF044B1B68B3
:10171000034A43F48063136000BFBD4680BC70473A
:10172000003C024080B500AFFFF7E0FFFFF7ECFFA1
:10173000024B034A1A600023184680BD780000203F
:101740000024F40080B400AF044B5B68034A23F02C
:101750000203536000BFBD4680BC7047002004E018
:1017600080B483B000AF78607B68044A1A600023BD
:1017700018460C37BD4680BC704700BFA001020868
:1017800080B500AF034B1B68984700F05FF800BFBF
:1017900080BD00BF0400002030BFFFF7FDBF00BFC9
:1017A00080B483B000AF0F4A0F4B1344013B0E4A85
:1017B000B3FBF2F30C4A02FB03F37B600B4A0C4BC6
:1017C0001344013B0A4AB3FBF2F3094A02FB03F359
:1017D0003B607A683B68134418460C37BD4680BCB2
:1017E000704700BF0000000001000000080000007A
:1017F0000400000080B584B000AF78600F4BFB6040
:101800000F4BBB60FA680F4978681CF017F90E4B54
:101810005A1EFB6813440C4AB3FBF2F30A4A02FB5C
:1018200003F37A6813447B60BA68002178681CF07F
:101830002DF900BF1037BD4680BD00BF000000007D
:1018400008000000ACFD010801000000044B99688D
:101850005869884203D003494FF080520A607047AC
:10186000FC03002004ED00E080B5ADF5187D00AF6D
:1018700007F51873A3F51573186007F51873A3F52A
:101880001673196007F51873A3F517731A60102300
:10189000C7F858326FF01503C7F8503200BF524BEB
:1018A0009B6A03F01003002B03D01123C7F85832B2
:1018B00000BF4D4B9B6A03F00803002B03D012239B
:1018C000C7F8583200BF484B9B6A03F00203002B55
:1018D0001FD01323C7F8583200BF434B5B6BC7F8C8
:1018E0004C32414B9B6A03F08003002B11D0D7F898
:1018F0004C32C7F8503200BF07F51873A3F51673C2
:101900001B68002B05D0384B9B6A374A23F08003B5
:101910009362354B9B6A03F00103002B03D0142321
:10192000C7F8583200BF304B9B6A03F02003002BEE
:1019300003D01523C7F8583200BF2B4B9B6A03F026
:101940001003002B05D1284B9B6A03F00203002BE8
:1019500021D0254B5B6803F40063002B1BD007F5F7
:101960001873A3F515731B681946D7F8500200F0D9
:1019700009FCC7F85402D7F85432002B0BD0D7F823
:101980005432C7F85C32D7F85C3283F3098800BF61
:101990000223C7F85832144B9B6A03F02003002B34
:1019A00005D0114B5B6A104A23F4005353620E4B6F
:1019B0009B6A0D4A43F0FF03936207F51873A3F582
:1019C00015730121186810F0A3FE03461A4607F5A7
:1019D0001873A3F517731B681A70D7F85832184696
:1019E00007F51877BD4680BD00ED00E080B5ADF588
:1019F0001E7D00AF07F51E73A3F51B73186007F576
:101A00001E73A3F51C73196007F51E73A3F51D73F0
:101A10001A601623C7F8743200BF384B9B6A03F470
:101A20008053002B03D01723C7F8743200BF334B09
:101A30009B6A03F40063002B03D01823C7F87432A9
:101A400000BF2E4B9B6A03F40073002B1BD019239D
:101A5000C7F8743200BF294B9B6BC7F87032274B15
:101A60009B6A03F40043002B0DD000BF07F51E73E3
:101A7000A3F51C731B68002B05D0204B9B6A1F4AE3
:101A800023F4004393621D4B9B6A03F48063002B95
:101A900003D01A23C7F8743200BF184B9B6A03F4B3
:101AA0008073002B03D01B23C7F8743209E0134B5B
:101AB0009B6A03F40053002B03D01C23C7F8743235
:101AC00000BF0E4B9B6A0D4A43F47F43936207F5B8
:101AD0001E73A3F51B730121186810F019FE03464D
:101AE0001A4607F51E73A3F51D731B681A70D7F805
:101AF0007432184607F51E77BD4680BD00ED00E044
:101B000080B4ADF50B7D00AF07F50A73A3F509733B
:101B100018601D23C7F8243200BF264B9B6A03F0D0
:101B20000073002B03D01E23C7F8243200BF214BC3
:101B30009B6A03F08073002B03D01F23C7F8243265
:101B400000BF1C4B9B6A03F40023002B03D021230E
:101B5000C7F8243200BF174B9B6A03F48023002B85
:101B600003D02223C7F8243200BF124B9B6A03F430
:101B70000033002B03D02323C7F8243200BF0D4BC2
:101B80009B6A03F48033002B03D02423C7F824324C
:101B900000BF084B9B6A074A6FEA03436FEA13438F
:101BA0009362D7F82432184607F50B77BD4680BC00
:101BB000704700BF00ED00E080B485B000AF7860F2
:101BC0007B689B69FB601B4B5B691A4A43F480731B
:101BD0005361BFF34F8F00BF00BF00BFBFF36F8FD4
:101BE00000BF00BF00BFFB6833F8023C7B81114B94
:101BF0005B69104A23F480735361BFF34F8F00BFBA
:101C000000BF00BFBFF36F8F00BF00BF00BF7B8965
:101C100003F47F43B3F55F4F05D17B89DBB2022B21
:101C200001D1012300E0002318461437BD4680BCD3
:101C3000704700BF00ED00E080B5FEB000AF07F5D3
:101C4000FC73A3F5FA73186007F5FC73A3F5FC7336
:101C500019600023C7F8F43100BF07F5FC73A3F542
:101C6000FC731B6800221A70344BDB6A03F002031A
:101C7000002B59D1314BDB6A002B57DB2F4BDB6A32
:101C800003F08043002B52D000BF07F5FC73A3F58F
:101C9000FA731868FFF790FF0346002B09D000BFC6
:101CA00007F5FC73A3F5FA731B681B68C7F8F431DA
:101CB0003DE0224B9B6ADBB2002B0FD007F5FC7393
:101CC000A3F5FC7207F5FC73A3F5FA731268012102
:101CD0001868FFF7C9FDC7F8F40128E0174B9B6AA5
:101CE00003F47F43002B10D007F5FC73A3F5FC72BF
:101CF00007F5FC73A3F5FA73126801211868FFF762
:101D000075FE0346C7F8F43111E00C4B9B6AB3F53E
:101D1000803F0CD307F5FC73A3F5FA731868FFF73F
:101D2000EFFEC7F8F40102E000BF00E000BFD7F803
:101D3000F431184607F5FC77BD4680BD00ED00E0A4
:101D400080B586B000AFF860B9607A6000237B612F
:101D50007B6800221A70BB68033B092B35D801A2AF
:101D600052F823F08D1D0008991D0008A71D0008DA
:101D7000B71D0008CB1D0008CB1D0008CB1D0008B7
:101D8000CB1D0008CB1D0008C11D00087968F8684C
:101D9000FFF752FF78611DE07A680021F868FFF7CD
:101DA00063FD786116E07A680021F868FFF71EFE8F
:101DB00003467B610EE0F868FFF7A2FE786109E058
:101DC0007968F86810F0B0FC04E0B968F86810F0C1
:101DD000C6FC00BF7B681B7883F00103DBB2002BDD
:101DE00003D0B968F86810F089FC7B691846183789
:101DF000BD4680BD80B592B000AFF860B9607A6032
:101E00003B6000237B64244B5B68C3F308033B64A3
:101E10000023BB63BB6B83F31188BFF36F8F00BFDD
:101E200007F136037A68B968F86810F0ACFCF8631B
:101E300007F137031A46396CF86BFFF781FF7864B6
:101E400097F83730002B23D107F114032022F96BC8
:101E500018461BF0F3FD97F83630002B0BD03B6B88
:101E6000C3F30803002B0CD13B6B6FEA53236FEADB
:101E700043233B6305E03B6B23F4FF7323F0010333
:101E80003B6307F114031946786C10F0E7FB00E0A0
:101E900000BF4837BD4680BD00ED00E080B400AF14
:101EA000044B5B69034A43F01003536100BFBD4616
:101EB00080BC704700ED00E0EFF30880EFF309818C
:101EC00001B57246FFF796FF01BD00BF102080F3F9
:101ED000118808484FF40461401880F30988EFF333
:101EE00014800221084380F31488BFF36F8F10F031
:101EF000E9FC00000014002080B584B000AF7860D9
:101F0000114B9B687A689A4216D1EFF30583FB6008
:101F1000FB68002B14BF01230023DBB2002B0BD086
:101F20000A4B5B68094A43F080535360074B5B6A76
:101F3000064A23F400435362786803F09BFB00BF1A
:101F40001037BD4680BD00BFFC03002000ED00E05F
:101F500080B485B000AF78600F4B9B687A685A6791
:101F60000D4B9B686FF00A029A670C4B5B680B4A3B
:101F700043F0805353600023FB60FB6883F31188B8
:101F8000BFF36F8F00BF044B9B689B6F18461437DD
:101F9000BD4680BC704700BFFC03002000ED00E0A0
:101FA00015498A684FF030001044EFF3098C80E83F
:101FB000F01F102080F31288BFF36F8F0F4F4FF088
:101FC00000664A698A603E604FF070041419206808
:101FD0000B4C2060506F0023536780F3118804B5C9
:101FE000104600F097F9BDE8044002F1300090E897
:101FF000F01F8CF309887047FC03002004ED00E01B
:10200000C00200201EF0040F0CBFEFF30880EFF3B6
:102010000980816911F8021C0229FFD001B510F076
:1020200030FB01BD80B483B000AF0346FB7197F96C
:102030000730002B0BDBFB7903F01F02064997F9F1
:1020400007305B09012000FA02F241F8232000BFAB
:102050000C37BD4680BC704700E100E080B483B01F
:1020600000AF03463960FB7197F90730002B0ADB9C
:102070003B68DAB20C4997F907301201D2B20B442F
:1020800083F800230AE03B68DAB20849FB7903F0E1
:102090000F03043B1201D2B20B441A7600BF0C3777
:1020A000BD4680BC704700BF00E100E000ED00E0ED
:1020B00080B400AF094B0A4A23F07F039360BFF35B
:1020C0004F8F00BF00BF00BFBFF36F8F00BF00BFC7
:1020D00000BF00BFBD4680BC704700BF00000008C5
:1020E00000ED00E080B483B000AF0D4BD3F8883032
:1020F0000B4A23F47003C2F88830EFF314833B607B
:102100003B6823F004037B607B6883F31488BFF390
:102110006F8F00BF00BF00BF0C37BD4680BC70474B
:1021200000ED00E080B487B000AFF860B9607A607D
:102130003B607B68203B7B61114A7B699A617B69CC
:102140009B6923F001027B699A613A687B691A6096
:102150003A6A7B695A607A6A7B699A60BA6A7B6973
:10216000DA607B694FF08072DA617A69FB681A6520
:10217000FB6800225A6700BF1C37BD4680BC704711
:10218000B516000880B485B000AF786039601C4B8C
:102190009B68FB60FB68002B01D100232BE04023F0
:1021A000BB607B6813F1160F17D0FB681A6EBB6813
:1021B000D31A7A689A420BD3FB681B6E7A689A42EC
:1021C00006D2FB681B6E3A689A4201D2012300E0F6
:1021D000002303F00103DBB207E0FB681B6E3A68E3
:1021E0009A4234BF01230023DBB2002B02D0FB68EC
:1021F0001B6E00E0002318461437BD4680BC7047B4
:10220000FC03002080B584B000AFF860B9607A604C
:1022100010F066FB0C4AFB689360FB681B6F0B4A6F
:102220001360F86800F076F87B68BA68184682F3A5
:102230000988002163B681F31188BFF36F8F0022F4
:102240000023FFF737FA00BFFC030020C002002084
:10225000014910220A60704710ED00E072B640405C
:1022600080F31188BFF36F8FBFF34F8F30BF62B61B
:10227000BFF36F8F704700BF80B483B000AF0346D9
:102280003960FB7197F90730002B0ADB3B68DAB243
:102290000C4997F907301201D2B20B4483F800239E
:1022A0000AE03B68DAB20849FB7903F00F03043B0C
:1022B0001201D2B20B441A7600BF0C37BD4680BC67
:1022C000704700BF00E100E000ED00E001B5EFF372
:1022D0000580A0F110004FEAC0000449014409C97B
:1022E0009847BDE80140024908470000D4FA0108B8
:1022F0004D18000880B500AF034A044B0121044883
:1023000010F0BFFD00BF80BD0000002000000220D3
:10231000A001020880B586B000AF78600023FB758D
:1023200040233B617B681A6E3B69D31AFB60FA7DE0
:10233000134913465B0013449B000B44FA681A6070
:10234000FA7D0F4913465B0013449B000B44043392
:102350003A691A60FA7D0A4913465B0013449B00F0
:102360000B440833074A1A60FB7D0133FB75FB7D84
:102370001946034810F097FD00BF1837BD4680BDD1
:10238000C402002000000B1580B483B000AF786059
:10239000054A7B689360044B00221A6100BF0C372A
:1023A000BD4680BC704700BF90ED00E080B483B0B4
:1023B00000AF074B1B687B607B681B0ADBB27B604E
:1023C0007B68DBB218460C37BD4680BC704700BF47
:1023D00090ED00E080B483B000AF7860034A7B6882
:1023E000936000BF0C37BD4680BC704790ED00E0A5
:1023F00080B5E4B000AF07F5C873A3F5C6731860E5
:1024000007F5C873A3F5C873196007F5C873A3F57A
:10241000C6731868FFF7DEFF07F5C873A3F5C87326
:102420001B681B6823F01F0207F5C873A3F5C6736A
:102430001B681343094A43F01003D36007F5C873C0
:10244000A3F5C8731B689B68044A43F0010313613A
:1024500000BF00BF07F5C877BD4680BD90ED00E026
:1024600080B586B000AFF8607A603B600B46FB72C7
:10247000094B1B787B617B69DAB2F97A0123F86832
:1024800010F070FC78617B69DAB2034B1A707B69DB
:1024900018461837BD4680BDDC0D002080B584B0DD
:1024A00000AF78600B46FB70124B1B78BB60BB68BB
:1024B000DAB2F9780023786810F054FCB860BB6891
:1024C00013F1160F10D0BB68FB6006E0FB681846DE
:1024D000FFF75AFFFB680133FB60FFF767FF034616
:1024E0001A46FB689342F1DBBB6818461037BD46BD
:1024F00080BD00BFDC0D002080B400AF084B05227A
:102500005A60BFF34F8F00BF00BF00BFBFF36F8F94
:1025100000BF00BF00BF00BFBD4680BC704700BF0A
:1025200090ED00E080B400AFBFF35F8F00BF00BF4D
:1025300000BF034B00225A6000BFBD4680BC7047FD
:1025400090ED00E090B5D5B000AF2D4B1C68FFF7C3
:102550002DFF03469C4202D94FF0FF334AE000BFF3
:10256000FFF7E0FF10F0D9F90023C7F84C3112E073
:10257000234B5968D7F84C2113465B0013449B004A
:102580000B441946D7F84C01FFF732FFD7F84C310E
:102590000133C7F84C311A4B1B68D7F84C219A42CB
:1025A000E6D3174B1B68DAB2164B1A70154810F0B9
:1025B0004EFA034613F1160F02D16FF0150319E01E
:1025C000104B1B78C7F8483109E0D7F84831184656
:1025D00010F0FDF9D7F848310133C7F84831FFF75B
:1025E000E5FE03461A46D7F848319342EDDBFFF784
:1025F00083FF0023184607F5AA77BD4690BD00BFAC
:10260000C4010208DC0D002080B582B000AF786004
:102610003960044B1B6878689847002318460837D0
:10262000BD4680BDD002002080B483B000AF78608A
:10263000074A7B681360074B9B7843F00203DAB2CA
:10264000044B9A7000BF0C37BD4680BC704700BF7A
:10265000D00200200800002080B500AF04480FF031
:10266000B9FF404080F311884FF0040002DF00BF43
:10267000E4FD010880B582B000AF4FF0FF324FF0AB
:10268000FF33044810F08EFC786000BF0837BD4669
:1026900080BD00BF1800002080B500AF024810F0D8
:1026A00092FC00BF80BD00BF1800002080B584B040
:1026B00000AF7860FFF7DEFF7A6808210B480FF063
:1026C00014FEF860FB68002B08D17B68002B05D056
:1026D0001BF022FA0346064A0C219950FFF7DCFF53
:1026E000FB6818461037BD4680BD00BFE4020020DD
:1026F0000C00000080B582B000AF00237B600C4B63
:10270000073323F007037B60094B073323F00703EC
:10271000C3F1005303F500333B603A68796805481C
:102720000FF08CFE002318460837BD4680BD00BF61
:10273000401C0020E402002080B582B000AF786029
:10274000FFF798FF796804480FF006FDFFF7A4FF34
:1027500000BF0837BD4680BDE402002080B483B0CE
:1027600000AF7860054B1A6804497B6813430B601F
:1027700000BF0C37BD4680BC704700BF003C014025
:1027800080B483B000AF7860054B1A687B68DB4388
:10279000034913400B6000BF0C37BD4680BC704737
:1027A000003C014080B483B000AF7860054B9A686C
:1027B00004497B6813438B6000BF0C37BD4680BC67
:1027C000704700BF003C014080B483B000AF786028
:1027D000054B9A687B68DB43034913408B6000BF5D
:1027E0000C37BD4680BC7047003C014080B483B0CC
:1027F00000AF7860054BDA6804497B681343CB600F
:1028000000BF0C37BD4680BC704700BF003C014094
:1028100080B483B000AF7860054BDA687B68DB4337
:1028200003491340CB6000BF0C37BD4680BC7047E6
:10283000003C014080B483B000AF7860074B5A6918
:102840007B6813407A689A420CBF01230023DBB2F5
:1028500018460C37BD4680BC704700BF003C0140A5
:1028600080B483B000AF7860034A7B68536100BFD7
:102870000C37BD4680BC7047003C014080B584B039
:1028800000AF78600023FB600A4A7B68134493F929
:102890000030FB607B68012202FA03F31846FFF761
:1028A0005DFFFB6818460FF0E1FF00BF1037BD4623
:1028B00080BD00BF2C00002080B582B000AF7860E2
:1028C00039604FF48011002010F08AFB3B68032B25
:1028D00046D801A252F823F0E92800080729000889
:1028E00025290008432900087B68012202FA03F326
:1028F0001846FFF769FF7B68012202FA03F31846C6
:10290000FFF786FF2DE07B68012202FA03F31846E9
:10291000FFF748FF7B68012202FA03F31846FFF72E
:1029200077FF1EE07B68012202FA03F31846FFF7E7
:102930005DFF7B68012202FA03F31846FFF744FFAC
:102940000FE07B68012202FA03F31846FFF72AFF23
:102950007B68012202FA03F31846FFF747FF00E005
:1029600000BF002010F046FB00BF0837BD4680BD09
:1029700080B588B000AF78601C4BBB61BB691B6938
:102980007B617B683B610023FB7725E03B691B781B
:102990001A46FB7F1344FB60F86810F046FB0346C1
:1029A000002B16D0F86810F055FB7B69FA6853F8D5
:1029B0003230002B0CD07B69FA6853F832207969E9
:1029C000FB68DB000B445B681946F868904700E041
:1029D00000BFFB7F0133FB773B695B78FA7F9A424C
:1029E000D4D900BF00BF2037BD4680BDF8F901082B
:1029F00080B485B000AF03463A60FB710B46BB71F3
:102A00000023FB600AE097F90720FB6813443A684B
:102A100051B2084AD154FB680133FB6097F9063084
:102A2000FA689A42EFDB00BF00BF1437BD4680BC96
:102A3000704700BF2C00002080B582B000AF7860E6
:102A4000364B1B785BB2354A527851B20622184693
:102A5000FFF7CEFF0022002106200FF014FF304BBD
:102A60001B785BB22E4A527851B207221846FFF704
:102A7000BFFF0022002107200FF005FF294B1B7824
:102A80005BB2284A527851B208221846FFF7B0FFCD
:102A90000022002108200FF0F6FE234B1B785BB2CA
:102AA000214A527851B209221846FFF7A1FF0022AD
:102AB000002109200FF0E7FE1C4B1B785BB21B4A7C
:102AC000527851B20A221846FFF792FF00220021E5
:102AD0000A200FF0D8FE164B1B785BB2144A5278CE
:102AE00051B217221846FFF783FF0022002117205A
:102AF0000FF0C9FE0F4B1B785BB20E4A527851B2F1
:102B000028221846FFF774FF0022002128200FF02A
:102B1000BAFE002318460837BD4680BDD40102081E
:102B2000D8010208DC010208E0010208E401020801
:102B3000E8010208EC01020880B487B000AFF86039
:102B4000B9607A60174B7B617B691B693B613B69AC
:102B5000FA6853F83230BA689A4209D13A69FB6888
:102B6000DB0013445B687A689A4201D1002314E0C9
:102B70003B69FA6853F83230002B02D06FF00F0334
:102B80000BE03B69FA68B96843F832103A69FB68B0
:102B9000DB0013447A685A60002318461C37BD4690
:102BA00080BC7047F8F9010880B485B000AF786048
:102BB0000A4BFB60FB681B69BB60BB687A6800213D
:102BC00043F83210BA687B68DB00134400225A6075
:102BD00000BF1437BD4680BC704700BFF8F901083C
:102BE00080B400AF044B1B68034A43F48023136096
:102BF00000BFBD4680BC70470038024080B400AFC3
:102C0000044B1B68034A43F48033136000BFBD4686
:102C100080BC70470038024080B400AF064B1B6890
:102C200003F40033B3F5003F0CBF01230023DBB2F4
:102C30001846BD4680BC70470038024080B400AFE3
:102C4000044B1B68034A43F00103136000BFBD46F9
:102C500080BC70470038024080B400AF064B1B6850
:102C600003F00203022B0CBF01230023DBB2184642
:102C7000BD4680BC704700BF0038024080B400AF42
:102C8000044B5B6F034A43F00103536700BFBD462B
:102C900080BC70470038024080B400AF064B5B6FC9
:102CA00003F00203022B0CBF01230023DBB2184602
:102CB000BD4680BC704700BF0038024080B483B07E
:102CC00000AF7860064B9B6823F0030204497B68E1
:102CD00013438B6000BF0C37BD4680BC704700BFFC
:102CE0000038024080B400AF034B9B6803F00C0334
:102CF0001846BD4680BC70470038024080B483B09F
:102D000000AF7860064B9B6823F0F00204497B68B3
:102D100013438B6000BF0C37BD4680BC704700BFBB
:102D20000038024080B483B000AF7860064B9B68E7
:102D300023F4E05204497B6813438B6000BF0C37D7
:102D4000BD4680BC704700BF0038024080B483B0ED
:102D500000AF7860064B9B6823F4604204497B68AF
:102D600013438B6000BF0C37BD4680BC704700BF6B
:102D70000038024080B400AF034B9B6803F0F003BF
:102D80001846BD4680BC70470038024080B400AF92
:102D9000044B1B68034A43F08073136000BFBD46B9
:102DA00080BC70470038024080B400AF044B1B6801
:102DB000034A23F08073136000BFBD4680BC704798
:102DC0000038024080B400AF064B1B6803F000736C
:102DD000B3F1007F0CBF01230023DBB21846BD46D0
:102DE00080BC70470038024080B485B000AF786086
:102DF0000023FB607B68013B062B1DD801A252F823
:102E000023F000BF3F2E0008212E00083F2E0008AF
:102E10003F2E00083F2E0008292E0008312E000802
:102E20006FF08503FB600BE06FF08503FB6007E04C
:102E30006FF08503FB6003E06FF0850301E000BFE6
:102E4000FB6818461437BD4680BC704780B58AB011
:102E500000AFF860B9607A60BB687B62754B1B6835
:102E60003B620221386A10F023F9F8610121386AC7
:102E700010F01EF9B8613B6A7B617B6A1B68442BCA
:102E800000F29280002B00F0CC80013B432B00F23B
:102E9000C88001A252F823F0D72F00081130000893
:102EA00019300008E12F0008F92F0008233000082E
:102EB00023300008233000082330000823300008A6
:102EC0002330000823300008233000082330000896
:102ED0002330000823300008233000082330000886
:102EE0002330000823300008233000082330000876
:102EF0002330000823300008233000082330000866
:102F00002330000823300008233000082330000855
:102F10002330000823300008233000082330000845
:102F20002330000823300008233000082330000835
:102F30002330000823300008233000082330000825
:102F40002330000823300008233000082330000815
:102F500023300008AF2F000823300008233000087A
:102F600023300008AF2F000823300008233000086A
:102F700023300008B72F0008233000082330000852
:102F800023300008233000082330000823300008D5
:102F900023300008BF2F000823300008233000082A
:102FA00023300008C72F0008A82B10D039E07B6819
:102FB0003A6A1A6038E07B687A691A6034E07B68A4
:102FC000FA691A6030E07B68BA691A602CE07B68A5
:102FD0007A691A6028E0174B1A687B681A6023E048
:102FE00000F0E6F804234FF4C072082110F04AF80C
:102FF00002467B681A6017E000F0DAF808234FF405
:10300000C072082110F03EF802467B681A600BE09F
:103010007B6800221A6007E07B684FF4FA421A606E
:1030200002E06FF0850300E0002318462837BD4614
:1030300080BD00BF7800002080B500AFFFF752FED2
:103040000346082B04D110F034F90020FFF756FE98
:10305000FFF7AAFE0E4B5B6823F440330C4A43F49F
:10306000803353600A4B5B6823F07063084A43F077
:103070000063536010F057F9FFF788FE00BFFFF7B9
:10308000A1FE0346012BFAD100BF00BF80BD00BFE7
:103090000038024090B585B000AF786010F050F96C
:1030A00000F07AFF0446FFF765FE03461B0903F0B4
:1030B0000F031D4AD35C24FA03F3FB601A4B1B7801
:1030C0001A461A4B1341BB60FA68BB689A4202D297
:1030D000B86801F099F810F007F9FFF7ADFF00208C
:1030E000FFF70CFE0220FFF7E9FD00BFFFF7FAFD36
:1030F0000346082BFAD1FA68BB689A4202D3B86833
:1031000001F082F80A4B094A1A604FF48050FFF729
:1031100009FE0020FFF71AFE0FF0AEFF002318464D
:103120001437BD4690BD00BFA003020800D8B80503
:103130007800002080B485B000AF7860084B1A6C2E
:1031400007497B6813430B64054B1A6C7B6813407B
:10315000FB60FB6800BF1437BD4680BC704700BFF2
:103160000038024080B485B000AFF860B9607A6082
:103170003B600D4B5A680D4B1340F968BA68114318
:103180007A6892010A43084913434B60064B5B6817
:1031900023F4403204493B6813434B6000BF1437AB
:1031A000BD4680BC704700BF003802400080BFFFB2
:1031B00080B400AF024B1846BD4680BC704700BFCC
:1031C00000127A0080B582B000AF7860124B1846CA
:1031D00010F0F8F80346002B01DA796817E07B68F5
:1031E0000A2B04D10C4B0D21184610F0DCF80A4ACA
:1031F0007B68DBB21946104610F0D5F806494FF04F
:103200000A024FF00003084610F0E6F879680B4612
:1032100018460837BD4680BDC0FA010880B500AF2A
:103220000348FFF701FA0248FEF7BCF900BF80BD72
:10323000C531000880B500AF084B184610F094F86F
:10324000034683F00103DBB2002B02D06FF01203C0
:1032500002E0FFF7E3FF0023184680BDC0FA010833
:1032600080B487B000AF78603960164A3B68DBB243
:10327000023352F823203B681B0CDB4302EA0301B4
:103280003B681B0C3B613B6993FAA3F3FB60FB6853
:103290007B617B69002B01D1202303E07B69B3FABA
:1032A00083F3DBB21A467B6803FA02F205483B68F7
:1032B000DBB20A43023340F8232000BF1C37BD466F
:1032C00080BC70470038014080B487B000AF7860A0
:1032D000104A7B68DBB2023352F823207B681B0C58
:1032E00013407A68120C3A613A6992FAA2F2FA60D3
:1032F000FA687A617A69002A01D1202203E07A69AA
:10330000B2FA82F2D2B2D34018461C37BD4680BC16
:10331000704700BF0038014080B586B000AF7860CC
:103320000B46FB707B685B683B6100237B610F4B46
:10333000FB60FB78002B07D03B690C331946F8681B
:1033400010F0DCFA786106E03B690C331946F86846
:1033500010F0E6FA78617B69002B01D07B6900E010
:103360007B6918461837BD4680BD00BFD0F90108FB
:1033700080B586B000AF786039600F4B7B610F4A33
:1033800007F1080392E8030083E8030007F108034C
:103390001946786910F0B2FA38613B69002B01D008
:1033A0003B6904E03968786810F095FC0023184602
:1033B0001837BD4680BD00BFD0F9010820FE0108C6
:1033C00080B588B000AFF8607A603B600B46FB7256
:1033D000FB685B687B61FB681B693B610023FB61E9
:1033E0000023BB617B68B3F5001F16D1FB7A18463A
:1033F00010F08BFC02467B699B689A424DD1FB7AA8
:1034000018460FF000FEFB7A1846FFF7CDFBFB7A5B
:1034100000211846FFF750FA3FE07B68B3F5800FB4
:1034200003D16FF08503BB6138E0FB7A3A691E492E
:103430001846FFF781FB0346002B03D06FF00F0304
:10344000BB612BE07B699B68FA7A11461846FFF74F
:103450008FFF3B68B3F1C06F12D03B68B3F1C06F10
:1034600011D83B68B3F1007F04D03B68B3F1806FA3
:1034700003D008E00223FB6105E00123FB6102E0C9
:103480000323FB6100BFFB7AF9691846FFF714FAC2
:10349000FB7A1846FFF7F2F900E000BFBB69184657
:1034A0002037BD4680BD00BFC53A010880B584B055
:1034B00000AF78607B681B69FB60FB687A685A60C4
:1034C0000E4810F099F8034683F00103DBB2002B9D
:1034D00002D06FF012030DE001217868FFF71CFFA6
:1034E000B860BB68002B01DABB6803E0786810F0B5
:1034F00029FA002318461037BD4680BDD0F90108CF
:1035000080B586B000AFF860B9607A60FB681B09CF
:103510000B22934202D36FF015031DE0FB681B09D9
:103520000F4A52F823307B617B69002B08D0786901
:1035300010F070FD034683F00103DBB2002B02D0D4
:103540006FF0120308E0FB6803F00F01BA687B68B4
:10355000786910F071FC034618461837BD4680BDE7
:10356000B40202082DE9B04FC0B000AFC7F8FC00AC
:10357000C7F8F810C7F8F420C7F8F030D7F8F430DF
:10358000B3F5004F40F00E81D7F8F8300022C7F8AD
:10359000E830C7F8EC20D7E93A4522462B46911887
:1035A00039665B417B66D7E91823204629460446E5
:1035B00012EB04080C4643EB04094FF000024FF0F5
:1035C00000034FEAC90343EA58734FEAC802904622
:1035D0009946034618EB0303C7F8E0300B4649EB66
:1035E0000303C7F8E430D7F8F03000229A46934638
:1035F0001AEB0A03BB654BEB0B03FB65D7E91623FC
:10360000D7E93801FCF792FE02460B46644BA3FB58
:1036100002235B099BB21B019CB2D7F8F830002251
:10362000C7F8D830C7F8DC20D7E9368942464B4680
:10363000911839655B417B65D7E9142341465118E0
:10364000B96449464B41FB644FF000024FF0000360
:10365000D7E912AB5946CB00554643EA557351465C
:10366000CA0010461946034642469B18C7F8D03098
:103670004B460A4642EB0303C7F8D430D7F8F03084
:103680000022C7F8C830C7F8CC20D7E932120B4661
:10369000DB183B64134642EB03037B64D7E910233A
:1036A000D7E93401FCF742FE02460B4611463C4B7B
:1036B000A3FB01235B09642202FB03F3CB1ADB00AB
:1036C00003F13202364BA3FB02235B099BB25B0082
:1036D0009BB203F4F8739BB223449CB2D7F8F83042
:1036E0000022C7F8C030C7F8C420D7E93089424665
:1036F0004B469118B9635B41FB63D7E90E23414602
:103700005118396349464B417B634FF000024FF03B
:103710000003D7E90CAB5946CB00554643EA557335
:103720005146CA0010461946034642469B18C7F840
:10373000B8304B460A4642EB0303C7F8BC30D7F813
:10374000F0300022C7F8B030C7F8B420D7E92C1207
:103750000B46DB18BB62134642EB0303FB62D7E95F
:103760000A23D7E92E01FCF7E1FD02460B460C4B7C
:10377000A3FB02135B09642101FB03F3D31ADB00F3
:103780003233074AA2FB03235B099BB203F0070312
:103790009BB223449BB21A46D7F8FC309A600CE1E6
:1037A0001F85EB51D7F8F8300022C7F8A830C7F8CA
:1037B000AC20D7E92A8942464B46911839625B41D1
:1037C0007B62D7E9082341465418CC4643EB0C05ED
:1037D0004FF000024FF00003EB0043EA5473E200A5
:1037E00014461D46404649460346E318C7F8A03034
:1037F0000B4645EB0303C7F8A430D7F8F03000229E
:10380000C7F89830C7F89C204FF000024FF0000333
:10381000D7E9264529468B0020462946044643EA37
:10382000947301468A00D7E92801FCF77FFD024620
:103830000B46654BA3FB02235B099BB21B019CB2A9
:10384000D7F8F8300022C7F89030C7F89420D7E9AD
:10385000248942464B469118B9615B41FB61D7E927
:10386000062341465118396149464B417B614FF06F
:1038700000024FF00003D7E904AB5946CB00554690
:1038800043EA55735146CA0010461946034642465C
:103890009B18C7F888304B460A4642EB0303C7F82B
:1038A0008C30D7F8F0300022C7F88030C7F8842079
:1038B0004FF000024FF00003D7E9208949468B0002
:1038C000454643EA957341468A00D7E92201FCF751
:1038D0002DFD02460B4611463B4BA3FB01235B0922
:1038E000642202FB03F3CB1A1B013233364AA2FBDC
:1038F00003235B099BB203F0F0039BB223449CB209
:10390000D7F8F8300022BB67FA67D7E91E8942462C
:103910004B469118B9605B41FB60D7E902234146F1
:103920005118396049464B417B604FF000024FF01F
:103930000003D7E900AB5946CB00554643EA55731F
:103940005146CA0010461946034642469B183B673B
:103950004B460A4642EB03037B67D7F8F030002260
:10396000BB66FA664FF000024FF00003D7E91A89F0
:1039700049468B00454643EA957341468A00D7E99C
:103980001C01FCF7D3FC02460B460F4BA3FB0213B2
:103990005B09642101FB03F3D31A1B0132330A4A8A
:1039A000A2FB03235B099BB203F00F039BB22344EA
:1039B0009BB21A46D7F8FC309A6000BF07F58077B3
:1039C000BD46BDE8B08F00BF1F85EB5180B588B004
:1039D00000AF786039607B685B68FB617B681B695E
:1039E000BB61BB695B687B613B681B79184610F063
:1039F00072FF38613B685B791946F86910F098FFEF
:103A0000F8603B689A793B681B791946104610F0BC
:103A1000CDFFB8603B681B79032B03D03B681B7953
:103A2000042B02D16FF0850352E03B681B79002B19
:103A300006D03B689B79042B02D16FF0850347E0E9
:103A4000F86810F094FF03461A463B685B799A4287
:103A500002D06FF085033BE03969B86810F0C0FF11
:103A600003461A463B689B799A4202D06FF0850361
:103A70002EE03B68DB79002B15D03B68DB79012B0E
:103A80000ED1FB691B68144A93420CD0FB691B687A
:103A9000124A934207D0FB691B68114A934202D035
:103AA0006FF0850314E0FB691B68184610F069FC91
:103AB0003968786810F0D5FFFB691B68184610F06C
:103AC00051FC7B693A6892E8030083E80300002315
:103AD00018462037BD4680BD00100140004400401C
:103AE0000014014080B582B000AF78603960054AAB
:103AF0003968786811F07AF8034618460837BD46E9
:103B000080BD00BFBF4C010880B582B000AF7860B7
:103B10000B46FB70FB1C044A1946786811F090F8BC
:103B200000BF0837BD4680BDE34C010880B485B0B6
:103B300000AF78607B681B69FB60054BBB60FB686E
:103B4000BA681A6000BF1437BD4680BC704700BF1A
:103B5000D0F9010880B483B000AF03463960FB712F
:103B600097F90730002B0ADB3B68DAB20C4997F96A
:103B700007301201D2B20B4483F800230AE03B68FD
:103B8000DAB20849FB7903F00F03043B1201D2B209
:103B90000B441A7600BF0C37BD4680BC704700BF8F
:103BA00000E100E000ED00E080B485B000AF194B0B
:103BB0009B68FB60174B1B687B60164B9B68BB6068
:103BC000FB68002B02D1144B1B68FB60BB68002B09
:103BD00002D1114B1B68BB607B6803F48033002B60
:103BE00003D1FA68BB689A4208D20C4B1A680A4B98
:103BF0001B681344094A1360064B1B68064B1A687E
:103C0000BB68D21A054B1B68134418461437BD46CF
:103C100080BC704710E000E0F4030020F8030020AF
:103C20002DE9B04F86B000AFF860FFF7BDFF214B24
:103C30001B680022984691461F4BD3E9002318EBDE
:103C40000201396049EB03037B601B4BD7E900128B
:103C5000C3E90012174B00221A60174BD3E9002367
:103C60001146164BD3E900231346CB1A7B617B69BF
:103C7000134AA2FB03239B0A3B613B694FF4165294
:103C800002FB03F300221C4615460C4BD3E900232C
:103C900014EB020A45EB030B084BC3E900AB3B698D
:103CA000184602F025F9FDF7D1FD00BF1837BD46D3
:103CB000BDE8B08FF803002030010020380100205B
:103CC000B5814E1B2DE9B04F98B000AFF8610B469F
:103CD000FB76FB7E002B0ED0FB69B3F1FF3F0AD1D0
:103CE0006E4B1B686D4A23F0010313606C4B4FF061
:103CF0007F421A60CEE06A4B1B68FB65FB69B3F13B
:103D0000FF3F01D0FB6901E040F2D263FB61FB6938
:103D1000012B07DDFB6940F2D3629342A8BF134633
:103D2000013B00E00023FB615E4B7B644FF010031E
:103D3000EFF3118283F31288BFF36F8F3A64FB6352
:103D40003B6C3B627B6CBB6300BF7B6C7B6300BFE7
:103D50003B6ABB62FFF728FFB865504B9B687B65E9
:103D6000BB6D00229A4693464F4BD3E900231AEBD2
:103D7000020139614BEB03037B614B4BD7E9041222
:103D8000C3E90012494B00221A60474BD3E90023D4
:103D90001146474BD3E900231346CB1A3B653B6DD5
:103DA000002B04DA3E4B4FF480621A602CE0FB6972
:103DB0004FF4165202FB03F3FB64FA6C3B6D1344A1
:103DC000FB64FB6C03F515533F333A4AA2FB032314
:103DD0009B0A4FF4165202FB03F3FB64FA6C3B6D33
:103DE000D31AFB64FB6CB3F5806F38BF4FF480636C
:103DF000FB64FB6C304A934203D9294B2E4A1A606C
:103E000002E0274AFB6C1360244B9B68BB64244B85
:103E10001B68224A013B5360204B00229A607A6D56
:103E2000BB6C9A4216D2FA6DBB6CD21A7B6D1344EE
:103E30000022984691461C4BD3E9002318EB02015F
:103E4000B96049EB0303FB60174BD7E90212C3E9E2
:103E5000001212E07A6DBB6CD31A00221C46154684
:103E6000114BD3E90023A118396045EB03037B60B4
:103E70000D4BD7E90012C3E900120A4B3B63BB6A42
:103E80007B627B6AFB62FB6A83F31188BFF36F8FEF
:103E900000BF00BF6037BD46BDE8B08F10E000E056
:103EA000F4030020F003002030010020F80300207C
:103EB00038010020B5814E1B00C3FF0080B58CB0D7
:103EC00000AF1E4BFB614FF01003EFF3118283F341
:103ED0001288BFF36F8FBA617B61BB697B60FB693E
:103EE0003B6100BFFB69FB6000BF7B68BB60144B9C
:103EF000D3E900231146134BD3E900231346CB1A11
:103F0000FB62FFF751FE0246FB6A1344BB620B4B98
:103F10007B62BB683B603B683B623B6A83F3118812
:103F2000BFF36F8F00BF00BFBB6A074AA2FB03232A
:103F30009B0A18463037BD4680BD00BFF003002005
:103F40003001002038010020B5814E1B80B500AF44
:103F500001214FF0FF30FFF7FDFD0C4B4FF41652DF
:103F60001A600B4B00221A60084B1B68094A013B80
:103F70005360084B00229A60064B1B68054A43F0C9
:103F8000070313600023184680BD00BFF403002020
:103F9000F803002010E000E02DE9B04F94B000AF2E
:103FA00000237B640023FB6400233B640023BB6489
:103FB0007C4B9B6803F00C03082B0DD0082B00F200
:103FC000E780002B02D0042B03D0E1E0764BBB64EA
:103FD000E1E0764BBB64DEE0724B5B6803F03F03CD
:103FE0007B64704B5B6803F48003002B65D06D4BE2
:103FF0005B689B090022BB63FA63BB6BC3F30803D6
:104000003B6300237B63D7E90C4522462B464FF0E8
:1040100000004FF00001590141EAD261500102460F
:104020000B462146511A3961294663EB01037B6136
:104030004FF000024FF00003D7E904AB59468B0163
:10404000514643EA916351468A01D446B2EB0C08CB
:10405000594663EB01094FF000024FF000034FEAAD
:10406000C90343EA58734FEAC8029046994623466B
:1040700018EB0303BB602B4649EB0303FB604FF0D7
:1040800000024FF00003D7E9024529464B022046C3
:104090002946044643EAD45301464A0210461946CB
:1040A0007B6C0022BB62FA62D7E90A23FCF73EF977
:1040B00002460B461346FB645CE03A4B5B689B0987
:1040C000002218461146C0F308033B6200237B62BE
:1040D000D7E9088942464B464FF000004FF00001F7
:1040E000590141EAD261500102460B46C446B2EB87
:1040F0000C0A404649468C4663EB0C0B4FF000021D
:104100004FF000034FEA8B1343EA9A634FEA8A1297
:10411000B2EB0A0463EB0B054FF000024FF0000313
:10412000EB0043EA5473E20014461D460346E318CD
:104130003B600B4645EB03037B604FF000024FF002
:104140000003D7E9004529468B022046294604464C
:1041500043EA945301468A02104619467B6C0022BA
:10416000BB61FA61D7E90623FCF7E0F802460B468B
:104170001346FB640B4B5B681B0C03F0030301331A
:104180005B003B64FA6C3B6CB2FBF3F3BB6402E094
:10419000054BBB6400BFBB6C18465037BD46BDE83D
:1041A000B08F00BF003802400024F40000127A00F3
:1041B00080B483B000AF7860064B1B6823F0070221
:1041C00004497B6813430B6000BF0C37BD4680BCBD
:1041D000704700BF003C024080B400AF034B1B6837
:1041E00003F007031846BD4680BC7047003C024000
:1041F00080B400AF034B1B6803F440431846BD4630
:1042000080BC70470070004080B586B000AF786019
:1042100000233B610023FB737B68002B02D1012349
:10422000FB736EE0FFF7E4FF0346B3F5404F1BD18D
:104230007B68364A934204D93B69002B01D10323A2
:104240003B617B68324A934205D93B69002B02D11E
:1042500002233B6108E07B682E4A934204D93B6904
:10426000002B01D101233B61FFF7C2FF0346B3F5E9
:10427000004F12D17B68264A934205D93B69002B37
:1042800002D102233B6108E07B68224A934204D9B1
:104290003B69002B01D101233B61FFF7A9FF0346D6
:1042A000B3F5804F12D17B68194A934205D93B6917
:1042B000002B02D102233B6108E07B68154A934240
:1042C00004D93B69002B01D101233B613869FFF719
:1042D0006FFF02237B61FFF77FFFB8607B69013BC3
:1042E0007B61BA683B699A4202D07B69002BF2D1AC
:1042F000BA683B699A4202D00123FB7301E00023B4
:10430000FB73FB7B18461837BD4680BD804A5D05B0
:104310000090D00380C3C90180B582B000AF0B4BC1
:104320007B6005E0786810F03CFE7B6814337B60AE
:104330007B68074A934234BF01230023DBB2002B82
:10434000F0D100BF00BF0837BD4680BDD0F90108DD
:10435000D4FA010880B5ADF5107D00AF07F51073F4
:10436000A3F50F73186007F51073A3F510731960A8
:104370004FF01003EFF3118283F31288BFF36F8FB6
:10438000C7F82C22C7F83432D7F82C32C7F82832B5
:10439000304B9B68C7F8243200BF07F51073A3F5B4
:1043A00010731B68002B13D007F51073A3F510735F
:1043B0001B68C7F83032D7F83032DB69C3F3080323
:1043C000002B14BF01230023DBB2002B00D000BF61
:1043D00000BF07F51073A3F5107107F51073A3F56F
:1043E0000F73D7F824220968186810F00FFE07F53C
:1043F0001073A3F5107207F51073A3F50F7311680E
:10440000186810F01EFE07F51073A3F510731B68F3
:10441000002B0CD007F51073A3F510731B68C7F8B9
:104420003C32D7F83C32DB69C3F30803002BD7F8E2
:104430002832C7F83832D7F8383283F31188BFF3FF
:104440006F8F00BFD7F8240210F0D5FD07F5107765
:10445000BD4680BDFC03002080B483B000AF03469E
:104460003960FB7197F90730002B0ADB3B68DAB241
:104470000C4997F907301201D2B20B4483F800239C
:104480000AE03B68DAB20849FB7903F00F03043B0A
:104490001201D2B20B441A7600BF0C37BD4680BC65
:1044A000704700BF00E100E000ED00E080B483B0A1
:1044B00000AF78607B6801225A737B6801221A730F
:1044C0007B6800221A667B6800225A667B6800229D
:1044D000DA66044A7B68936000BF0C37BD4680BC37
:1044E000704700BFFC03002080B500AF044A054BB5
:1044F000D31A1A460021034810F009FE80BD00BF00
:10450000040E00203001002080B586B000AF0346C5
:10451000FB71FB79244A52F823307B6136E07B69DA
:104520005B68FB60FB68002B2AD000233B617B6942
:104530001B68002B17D07B691B68F86898473861A7
:104540003B69002B0FD03B69002B02DA3B695B42D1
:104550003B613B69FF2B01DDFF233B61FB68DB68AF
:104560003A69D2B21A70FB68DA68537843F00103F3
:1045700053703B69002B06D1F86810F0BEFD02E0D5
:104580007B691B6898477B6908337B61FB79013342
:10459000054A52F823307A699A42C0D300BF00BF5F
:1045A0001837BD4680BD00BF7C00002080B584B0B8
:1045B00000AFF860B9607A600D4B01221A700320D9
:1045C000FFF7A2FF01F064FD0DF012FA0420FFF7DF
:1045D0009BFF00F093F9FCF777FF064B1B7B23F062
:1045E0000103DAB2034B1A7300BF1037BD4680BD1A
:1045F000DD0D00204001002080B58CB006AF786052
:104600007B68DB01164A13447B617A6813465B00C2
:104610001344DB01134A13443B610023FB607A68B7
:1046200013469B0013449B000F4A1344FA680592FB
:10463000012204920F220392002202920022019290
:1046400000930A4B4FF4A0723969786900F01AF9A7
:10465000786910F03CFD00BF1837BD4680BD00BF33
:10466000C001002080120020FC030020555B0108DF
:1046700080B582B000AF78607868FFF7BDFF7B68D7
:10468000DB011A4A99181A487A6813469B001344AA
:104690009B0003440C3319607B68D8B214497A68D4
:1046A00013469B0013449B000B44103302461A70C0
:1046B0007A6813465B0113449B010E4A1344184663
:1046C00010F0FAFC034603F5006109487A681346C6
:1046D0009B0013449B00034404331960064810F008
:1046E000DEFC00BF0837BD4680BD00BFC001002012
:1046F000FC030020001400201C04002080B588B0BA
:1047000006AF00F04BFF124B124A5A61124B059351
:1047100001230493002303930023029300230193B6
:10472000002300930D4B4FF480620D49094800F0BF
:10473000A9F87860074810F0CAFC064800F0EAFBC8
:104740000020FFF795FF7B6818460837BD4680BDFF
:10475000FC03002040010020DCFE0108AD450008FC
:10476000400E002080B582B000AF7860024A7968C0
:104770000248FDF747FD00BFAD450008400100209D
:1047800080B5A2B000AF10F0B2FC0020FFF7BCFE75
:10479000304810F091FC034603F50063C7F88430FD
:1047A000D7F88430C7F88030D7F8803083F3088892
:1047B00000BF294B5B69284A43F40073536100BF73
:1047C000FF216FF00100FFF747FE00216FF00400AA
:1047D000FFF742FE00216FF00B00FFF73DFE0021C6
:1047E0006FF00A00FFF738FE00216FF00900FFF7B5
:1047F00033FE00216FF00300FFF72EFE164B5B6ABD
:10480000154A43F4E023536200BFFDF747FBFDF771
:104810001FFD114B4FF0FF329A620F4B4FF0FF32EA
:10482000DA6200BFFDF78EFEFDF764FD00BF3B4678
:104830001846FFF73BFEFFF76FFD0120FFF764FE10
:104840000220FFF761FEFFF759FF03461846FFF706
:1048500089FF00BF0014002000ED00E080B584B0A7
:1048600000AFF860C7E90023FB6803F11800D7E93F
:104870000023034901F00CFA00BF1037BD4680BD8C
:104880009759010880B58AB004AFF860B9607A60C2
:104890003B60FB685833184610F0A4FCF8683B6B8B
:1048A0000422F96A10F053FD7A68B968F86810F0CC
:1048B000CDFC7861BB6A02937B6A01933B6A0093EB
:1048C0003B687A69B968F868FDF72CFCFB68002240
:1048D0005A65094B9B68002B04D1FB680022DA66FD
:1048E0007B6905E0044B9B68DA6EFB68DA667B69DE
:1048F00018461837BD4680BDFC030020F0B58FB0C8
:1049000006AF314BFB6129E0FB691E68FB695B6800
:10491000FB60FB699A68BA60FB69D8687860FB69DC
:104920001B69FA695269F9698969F869C069FC69A2
:10493000246AFD696D6A05950494039002910192C1
:1049400000937B68BA68F9683046FFF79BFFFB6904
:104950001B68FA695A65FB693033FB61FB691B4AC6
:10496000934234BF01230023DBB2002BCCD100F0F3
:1049700085FD154BBB6118E0BB69D3E90A23C7E984
:104980000423D7E904234FF0FF304FF0FF318B426F
:1049900008BF824206D0BB691968D7E904230846DC
:1049A00010F037FCBB693033BB61BB69074A9342E7
:1049B00034BF01230023DBB2002BDDD100F096FDD4
:1049C00000BF2437BD46F0BD84FD010884FD010809
:1049D00080B584B000AFF860C7E90023FB6803F13D
:1049E0001800D7E90023034901F052F900BF10373E
:1049F000BD4680BD9759010880B483B000AF786090
:104A00007B68054A93420CBF01230023DBB21846A2
:104A10000C37BD4680BC7047C001002080B400AF99
:104A2000044B9B68DA7B013AD2B2DA7300BFBD4611
:104A300080BC7047FC03002080B58CB000AF78606C
:104A4000786810F012FE0346002B19D07B68FB62D9
:104A5000FB6A5B7B03F07F03DAB2FB6A5A73F86A86
:104A600010F0BEFE0346002B09D0FB6ABB62BB6A96
:104A70007B62344BB96A184611F016F800BF00BFCC
:104A80007B683B623B6A5B7B63F07F03DAB23B6A25
:104A90005A73386A10F0A4FE0346002B42D03B6ADA
:104AA000FB61FB69BB61274B7B61FB693B617869FB
:104AB00010F0ACFC0346002B04D0786910F0A6FC83
:104AC000034600E00023FB6023E0F968386910F03A
:104AD0006CFE0346002B06DDFB683A69114618465A
:104AE00010F0E5FC1DE0FB68002B10D0FB681946B8
:104AF000786910F0B0FC0346002B06D0FB6819461D
:104B0000786910F0A8FC034602E0002300E00023CF
:104B1000FB60FB68002BD8D13B691946786910F01F
:104B2000ADFC00BF00BF084B9B687A689A420CBF7F
:104B300001230023DBB2184600F01EF900BF303716
:104B4000BD4680BD14040020FC03002080B485B065
:104B500000AF7860044B1B68FB60FB681846143795
:104B6000BD4680BC704700BF2404002080B584B0DF
:104B700000AF7860786810F0FEFD0346002B29D066
:104B80007868FFF7E3FF0346002B23D07B6893F997
:104B90000E301A46154B1B681946104610F0C3FD1F
:104BA000034683F00103DBB2002B13D0786810F0CA
:104BB000E9FC034683F00103DBB2002B0AD07868DE
:104BC000FFF71AFF034683F00103DBB2002B01D08D
:104BD000012300E00023FB73FB7B03F00103FB7365
:104BE000FB7B18461037BD4680BD00BF280400205F
:104BF00080B485B000AF78607B68084A9B1ADB10F0
:104C0000074A02FB03F3FB60064AFB6813440122D8
:104C10001A7000BF1437BD4680BC704740020020A8
:104C2000ABAAAAAA2C0400202DE9904385B000AFBE
:104C30007860194B1B7CFB60FA6813465B001344D9
:104C4000DB00164A1344184601F00CF9144AFB68BD
:104C5000134400221A707868FFF788FF0346002B80
:104C600014D0FA6813465B001344DB000B4A9C180F
:104C70007868FFF76BFF0346013BDA1798469146C9
:104C800042464B460749204601F002F800BF143760
:104C9000BD46BDE8908300BFFC0300204002002019
:104CA0002C040020F14B000880B58EB000AF2E4BD5
:104CB0003B634FF01003EFF3118283F31288BFF3CD
:104CC0006F8FFA62BB62FB6A3B603B6B7B6200BF2B
:104CD0003B6B3B6200BF3B68FB60244B9B687B6384
:104CE000234B1B687A6B9A420FD1786BFFF79CFFBE
:104CF0001D4BFB61FB687B607B68BB61BB6983F319
:104D00001188BFF36F8F00BF2BE0194B00221A6090
:104D1000164B1B7C1A46174B9B5C002B14D0786BF0
:104D2000FFF724FF0346002B0ED0786B10F02AFC0F
:104D3000034683F00103DBB2002B02D0786BFFF750
:104D40007BFE786BFFF770FF074B7B61FB68BB60F6
:104D5000BB683B613B6983F31188BFF36F8F00BF72
:104D600000BF3837BD4680BD20040020FC03002072
:104D7000300400202C04002080B586B000AF78609D
:104D8000294B184610F09DFE0346BB60BB68002B04
:104D900002D1264BDB6800E0BB687B617B693B612D
:104DA0007B68FB60FB68002B01D0012322E01F4BD6
:104DB0009B68184610F0E6FB0346002B01D0012348
:104DC00018E0386910F0F2FB0346002B01D00123F4
:104DD00010E0164B9B68184610F0CDFC0346002BE4
:104DE00005D1386910F0D7FC0346002B01D0012310
:104DF00000E00023002B0ED00C4B9B687A699A428E
:104E000002D07869FFF710FF786910F00FFD074AAC
:104E10007B69536103E0054B9B68044A536100BF03
:104E20001837BD4680BD00BF14040020FC030020DD
:104E300080B588B000AF7860786810F016FC034643
:104E400083F00103DBB2002B5DD0786810F0C7FB64
:104E50000346002B57D07B68FB61FB695B7B63F0EB
:104E60007F03DAB2FB695A73F86910F0B9FC0346A4
:104E7000002B42D0FB69BB61BB697B61244B3B616A
:104E8000BB69FB60386910F0C1FA0346002B04D0FF
:104E9000386910F0BBFA034600E00023BB6023E052
:104EA000B968F86810F081FC0346002B06DDBB688A
:104EB000FA681146184610F0FAFA1DE0BB68002B9C
:104EC00010D0BB681946386910F0C5FA0346002BAC
:104ED00006D0BB681946386910F0BDFA034602E0F7
:104EE000002300E00023BB60BB68002BD8D1FB6827
:104EF0001946386910F0C2FA00BF00BF0020FFF762
:104F00003BFF10F08DFC00BF2037BD4680BD00BFC9
:104F10001404002080B58EB000AF78600023BB6120
:104F20001C4B7B634FF01003EFF3118283F3128865
:104F3000BFF36F8F3A63FB623B6BFB607B6BBB62C3
:104F400000BF7B6B7B6200BFFB687B611AE0786807
:104F500010F075FC034683F00103DBB2002B02D096
:104F60007868FFF765FF0B4B3B627B693B613B69F0
:104F7000FB61FB6983F31188BFF36F8F00BF00BF34
:104F80000123BB61BB69002BE1D000BF00BF3837F4
:104F9000BD4680BD2004002080B58CB000AF786095
:104FA0001A4BFB624FF01003EFF3118283F3128868
:104FB000BFF36F8FBA627B62BB6ABB60FB6A3B6206
:104FC00000BFFB6AFB6100BFBB683B61786810F003
:104FD00026FB0346002B0CD00C4BBB613B69FB60EE
:104FE000FB687B617B6983F31188BFF36F8F00BF20
:104FF00009E0786810F056FB7868FFF719FF396907
:10500000024810F0FEFC3037BD4680BD2004002071
:1050100080B58CB000AFF860B9601346FB71FB79C6
:10502000002B01D0082300E010231946F86800F097
:10503000CDFA184B9B68FA689A4219D1EFF30583B1
:10504000FB62FB6A002B14BF01230023DBB283F059
:105050000103DBB2002B0BD00F4BBB62BB687B6143
:10506000BB6A7B6200BF7B69184610F077FB0CE0DF
:10507000094B3B62BB68BB61BB69FB61FB6983F3A6
:105080001188BFF36F8F00BF00BF00BF3037BD4630
:1050900080BD00BFFC0300202004002080B586B046
:1050A00000AF7860786810F0E0FA0346002B19D062
:1050B0007B687B617B695B7B03F07F03DAB27B6992
:1050C0005A73786910F08CFB0346002B09D07B697A
:1050D0003B613B69FB600B4B3969184610F0E4FCFF
:1050E00000BF00BF084B9B687A689A420CBF01233F
:1050F0000023DBB21846FFF73FFE00BF1837BD465E
:1051000080BD00BF14040020FC03002080B58EB0D9
:1051100000AF78600B46FB7000237B61284B3B633C
:105120004FF01003EFF3118283F31288BFF36F8FF8
:10513000FA62BB62FB6ABB603B6B7B6200BF3B6B8E
:105140003B6200BFBB683B6132E07B685B7B03F086
:105150002803002B14BF0123002387F8373097F86A
:10516000373083F00103DBB2002B12D07B689B68E1
:10517000002B02D0786810F0F8FB786810F092FAF3
:10518000FB78002B02D0786810F07CFA7868FFF783
:105190004FFE0B4BFB613B69FB60FB68BB61BB696E
:1051A00083F31188BFF36F8F00BF00BF01237B61C2
:1051B0007B69002BC9D000BF00BF3837BD4680BD1A
:1051C0002004002080B58EB000AFF860B9607A602E
:1051D000184B9B68184A1360184BBB624FF01003C2
:1051E000EFF3118283F31288BFF36F8F7A623B6211
:1051F0007B6A7B61BB6AFB6100BFBB6ABB6100BFAE
:105200000C4B9868D7E91023796810F09AFBFB687B
:10521000FB6200BF094B7B63BB683B617B6B3B63FD
:1052200000BF3B69184610F099FA03461846383714
:10523000BD4680BDFC030020300400202004002077
:1052400080B58EB000AF786000237B6300237B6164
:105250001D4B3B634FF01003EFF3118283F3128871
:10526000BFF36F8FFA62BB62FB6ABB603B6B7B6212
:1052700000BF3B6B3B6200BFBB683B611CE07B68CF
:10528000184610F01EFC78637B6B002B05D0786B02
:1052900010F06BFB786B10F052F90B4BFB613B6924
:1052A000FB60FB68BB61BB6983F31188BFF36F8F41
:1052B00000BF00BF01237B617B69002BDFD07B6BCC
:1052C00018463837BD4680BD2004002080B598B010
:1052D00000AF78603960002387F85F300023BB613E
:1052E000594BBB654FF01003EFF3118283F3128823
:1052F000BFF36F8F7A653B657B6DFB60BB6DFB64B5
:1053000000BFBB6DBB6400BFFB687B6191E0786848
:1053100010F065F9034687F85F3097F85F30002B8F
:1053200074D07B68FB62FB6A5B7B03F07F03DAB2BD
:10533000FB6A5A73F86A10F053FA0346002B09D03F
:10534000FB6ABB62BB6A7B62404BB96A184610F0CD
:10535000ABFB00BF00BF3B685AB27B689A737B68A7
:105360007B647B6C5B7B63F07F03DAB27B6C5A738C
:10537000786C10F035FA0346002B42D07B6C3B640E
:105380003B6CFB63314BBB633B6C7B63B86B10F0D6
:105390003DF80346002B04D0B86B10F037F80346F5
:1053A00000E000233B6323E0396B786B10F0FDF9DC
:1053B0000346002B06DD3B6B7A6B1146184610F056
:1053C00076F81DE03B6B002B10D03B6B1946B86B99
:1053D00010F041F80346002B06D03B6B1946B86B22
:1053E00010F039F8034602E0002300E000233B639D
:1053F0003B6B002BD8D17B6B1946B86B10F03EF895
:1054000000BF00BF0120FFF7B7FC03E03B685AB2C2
:105410007B689A730C4B3B627B693B613B69FB6128
:10542000FB6983F31188BFF36F8F00BF00BF0123B7
:10543000BB61BB69002B3FF46AAF97F85F30184639
:105440006037BD4680BD00BF20040020140400204A
:1054500080B483B000AF084B5B697B60064B9B68F0
:105460007A689A4214BF01230023DBB218460C3736
:10547000BD4680BC704700BFFC03002080B58CB0E7
:1054800000AF00233B61184BFB624FF01003EFF3BA
:10549000118283F31288BFF36F8FBA627B62BB6A9B
:1054A0007B60FB6A3B6200BFFB6AFB6100BF7B68FD
:1054B000FB6010E0FFF7B2FA0B4BBB61FB68BB600F
:1054C000BB687B617B6983F31188BFF36F8F00BF7B
:1054D00000BF01233B613B69002BEBD000BF00BF45
:1054E0003037BD4680BD00BF2004002080B5E6B047
:1054F00000AF0023C7F87831264BC7F880314FF052
:105500001003EFF3118283F31288BFF36F8FC7F894
:105510007C21C7F88431D7F87C31C7F86C31D7F8D3
:105520008031C7F88C3100BFD7F88031C7F8883197
:1055300000BFD7F86C31C7F874311EE0164B9B687A
:10554000DA7B0132D2B2DA730020FFF715FC114B7F
:10555000C7F89031D7F87431C7F87031D7F8703187
:10556000C7F89431D7F8943183F31188BFF36F8F64
:1055700000BF00BF0123C7F87831D7F87831002B7E
:10558000DCD000BF0FF0E9FF00BF07F5CC77BD46C8
:1055900080BD00BF20040020FC03002080B500AFC8
:1055A000024810F0A2FA00BF80BD00BF1004002026
:1055B00080B483B000AF044B9B687B607B68184667
:1055C0000C37BD4680BC7047FC03002080B586B018
:1055D00000AF78600B46FB707B685A7BFB7813400A
:1055E000DBB2002B40D17B685A7BFB781343DAB2E5
:1055F0007B685A73786810F003F9786810F035F812
:105600000346002B19D07B687B617B695B7B03F0D1
:105610007F03DAB27B695A73786910F0E1F80346C8
:10562000002B09D07B693B613B69FB60104B3969FA
:10563000184610F039FA00BF00BFFB78082B0ED1D6
:105640007B689B68002B02D0786810F08EF9786830
:105650000FF075FF7B685833184610F053FA01209D
:10566000FFF78AFBFB78102B1837BD4680BD00BFC3
:105670001404002080B590B000AF7860254BFB6328
:105680004FF01003EFF3118283F31288BFF36F8F93
:10569000BA637B63BB6BFB60FB6B3B6300BFFB6B65
:1056A000FB6200BFFB68BB617B681B7B03F00103EF
:1056B000002B13D0174BBB62BB693B613B697B621C
:1056C0007B6A83F31188BFF36F8F00BF00BF404038
:1056D00080F311884FF0040002DF18E07B685B7BE9
:1056E00003F00803002B0DD00A4B3B62BB697B61C2
:1056F0007B69FB61FB6983F31188BFF36F8F00BF88
:1057000000BF04E00122B9697868FFF781FC4037E7
:10571000BD4680BD2004002080B5ADF5826D02AF8E
:1057200007F58161A1F57F71086007F1080141E982
:105730000223002387F8BF33BC4BC7F8C8334FF0B0
:105740001003EFF3118283F31288BFF36F8FC7F852
:10575000D023C7F8CC33D7F8D033C7F8A433D7F861
:10576000C833C7F8DC3300BFD7F8C833C7F8D8331D
:1057700000BFD7F8A433C7F8B43307F58163A3F5A6
:105780007F731B68DB68002B0CBF01230023DBB297
:10579000002B0ED107F58163A3F57F731B689A6810
:1057A000A34B9B689A420CBF01230023DBB2002B62
:1057B00001D0012300E00023002B43D007F58163D3
:1057C000A3F57F731B68DB68002B04D1984B9B68A3
:1057D00093F90E3005E007F58163A3F57F731B682D
:1057E0001B6907F58162A2F57F721268136107F5E4
:1057F0008163A3F57F731B68DB685A1C07F581631F
:10580000A3F57F731B68DA60894B9A6807F581639B
:10581000A3F57F731B689A6000BF844BC7F8D4332D
:10582000D7F8B433C7F8A833D7F8A833C7F8E033AC
:10583000D7F8E03383F31188BFF36F8F00BF00BF49
:1058400000230CE107F1080353E902234FF00000A5
:105850004FF000018B4208BF82420CBF012300239E
:10586000DBB2002B1BD0714BC7F8E43307F5816323
:10587000A3F58873D7F8B4231A6007F58163A3F5FD
:1058800088731B68C7F8F833D7F8F83383F31188A7
:10589000BFF36F8F00BF00BF6FF00F03DFE0644BFB
:1058A0009B6893F90E301A4607F58163A3F57F7361
:1058B0001B689B6893F90E301946104610F0CFF91B
:1058C000C7F8C00300BF07F58163A3F57F731B68AA
:1058D0009B6893F90E301946D7F8C00310F0A4F96D
:1058E0000346002B0BD007F58163A3F57F73D7F830
:1058F000C013186810F0CCF9034687F8BF3307F5DA
:105900008163A3F57F73196807F1080353E9022344
:10591000CDE900230A46D7F8B4134448FFF752FCF8
:10592000C7F8B80300BF00BFD7F8B833002B01D1C8
:10593000002394E000BF3D4BC7F8F4334FF0100351
:10594000EFF3118283F31288BFF36F8FC7F8F02350
:10595000C7F8EC33D7F8F033C7F8AC33D7F8F433E3
:10596000C7F8E83300BFD7F8F433C7F8003400BFF6
:10597000D7F8AC33C7F8B43307F58163A3F57F7369
:105980001B689B68002B14BF01230023DBB2002B94
:1059900042D007F58163A3F57F731B68184610F0AA
:1059A00051F9C7F8C403D7F8C433002B10D0D7F887
:1059B000C43393F90E301A4607F58163A3F57F735C
:1059C0001B681B691946104610F049F9034605E0AB
:1059D00007F58163A3F57F731B681B69C7F8C033A4
:1059E00000BF07F58163A3F57F73D7F8C01318686C
:1059F00010F04EF90346002B03D197F8BF33002B6C
:105A000001D0012300E0002387F8BF3397F8BF33AC
:105A100003F0010387F8BF3397F8BF33002B09D099
:105A2000D7F8B41301480FF0ECFF16E0340400205F
:105A3000FC0300200C4BC7F8FC33D7F8B433C7F88D
:105A4000B033D7F8B033C7F80434D7F8043483F34D
:105A50001188BFF36F8F00BF00BF6FF00A031846B5
:105A600007F58167BD4680BD3404002080B5ADF5E3
:105A70000C7D00AF07F50C73A3F50B73186007F5E9
:105A80000C73A3F50B731B689B68002B02D16FF09E
:105A90001503A6E007F50C73A3F50B731B689A6852
:105AA000524B9B689A4202D04FF0FF3399E000BFFF
:105AB00007F50C73A3F50B731B68DB68012B0DD97D
:105AC00007F50C73A3F50B731B68DB685A1E07F50B
